:10000000BCC00000F1C00000EFC00000EDC0000067
:10001000EBC00000E9C00000E7C00000E5C0000040
:10002000E3C00000E1C00000DFC000000C94370B0B
:10003000DBC00000D9C00000D7C00000D5C0000060
:10004000D3C00000D1C00000CFC00000CDC0000070
:10005000CBC00000C9C00000C7C00000C5C0000080
:10006000C3C00000C1C00000BFC00000BDC0000090
:10007000BBC0000005010905A101150025013500DF
:1000800045017501950D05091901290D8102950399
:10009000810105012507463B017504950165140999
:1000A00039814265009501810126FF0046FF000964
:1000B000300931093209357508950481020600FFBF
:1000C00009200921092209230924092509260927CC
:1000D00009280929092A092B950C81020A2126954C
:1000E00008B102C01201100100000040C410C0821B
:1000F0000001010200010902220001010080320911
:100100000400000103000000092111010001227018
:10011000000705810340000A040309041A036B0069
:1001200061006400650076006900630065002E00D0
:1001300063006F006D00000040034B00410044006D
:10014000450020002D0020004B00690063006B007B
:1001500020004100730073002000440079006E000D
:1001600061006D0069006300200045006E006300BF
:100170006F00640065007200000011241FBECFEF05
:10018000D2E0DEBFCDBF04B603FE18C080913601B9
:1001900090913701A0913801B09139018A5C9C4A55
:1001A000A244BC4D59F410923601109237011092BE
:1001B000380110923901E0E0F8E1099511E0A0E082
:1001C000B1E0EAEEFCE102C005900D92A830B10763
:1001D000D9F711E0A8E0B1E001C01D92A633B10744
:1001E000E1F7CBD10C94730E0BCF519A882311F405
:1001F00059980895813009F4599A0895559A882399
:1002000011F45D980895813009F45D9A089501C054
:1002100000004D99FDCFE9DF01C000004D9BFDCFEF
:10022000089501C000004D99FDCF89B101C00000C3
:100230004D9BFDCF90E082709070959587950895C5
:10024000982F482F50E0881F8827881F9170892792
:1002500091E089279A012270307035952795822781
:100260009A0124703070359527953595279582270A
:100270009A0128703070E3E035952795EA95E1F70B
:1002800082279A012071307074E0359527957A9510
:10029000E1F782279A012072307065E03595279545
:1002A0006A95E1F782274074507036E0559547957E
:1002B0003A95E1F7842708959F92AF92BF92CF922B
:1002C000DF92EF92FF920F931F93CF93DF93182F3C
:1002D000B7DF982E212F30E0C9018270907095957C
:1002E0008795A82EC90184709070959587959595EE
:1002F0008795B82EC9018870907053E095958795C1
:100300005A95E1F7C82EC9018071907044E0959527
:1003100087954A95E1F7D82EC9018072907005E063
:10032000959587950A95E1F7E82E20743070B6E030
:1003300035952795BA95E1F7F22E012F001F00277A
:10034000001FC8E5D2E0117080E058DFCE010197B0
:10035000F1F780E04ADF81E051DF55985D9A812F07
:1003600056DF8A2D54DF8B2D52DF8C2D50DF8D2DE3
:100370004EDF8E2D4CDF8F2D4ADF802F48DF892DF9
:1003800046DF81E044DF5198599A4BDF8823E1F63C
:10039000DF91CF911F910F91FF90EF90DF90CF9061
:1003A000BF90AF909F900895BF92CF92DF92EF924F
:1003B000FF920F931F9335DF34DFB82E32DFC82E44
:1003C00030DF182F2EDF082F2CDFF82E2ADFE82E43
:1003D00028DFD82E26DFCC0C110F110F1C291B296A
:1003E000000F000F000F012BF294A0EFFA22F02A69
:1003F000E294EE0CF0EEEF22EF28D294DD0CDD0C4F
:10040000E0ECDE22DE28082F0795002707950D294E
:1004100008DF182F06DF802F13DF181711F08EEF7B
:100420004BDF802F1F910F91FF90EF90DF90CF90C7
:10043000BF90089590911301892F8072880F880FC3
:1004400080930E0180911501809308018093100123
:100450009071990F990F990F90930F01809114014A
:10046000809309018093110108951F938BEE24DF7F
:100470009BDF109212010BC097DFE12FF0E0ED5EE1
:10048000FE4F8083809112018F5F80931201109143
:100490001201133088F31F9108950F931F93CF9388
:1004A000DF93EC018B018FEF07DF7EDF7DDF7CDFE9
:1004B00084EF02DF79DF88EEFFDE76DF209711F42C
:1004C00080E00AC0C130D10511F481E005C0229757
:1004D00011F482E001C083E0EFDE66DF83EFECDE43
:1004E00063DF0115110511F48AE01AC0013011050E
:1004F00011F484E115C00230110511F488E210C036
:100500000330110511F48CE30BC00430110511F414
:1005100080E506C00530110511F484E601C088ECC1
:10052000CBDE80EFC9DE40DFDF91CF911F910F91CD
:1005300008950E94DA0AF89420E040E05AEFCA01D8
:100540000197F1F72F5F2038D1F78AEC9CEAA2E4FB
:10055000BCED8093360190933701A0933801B0939E
:1005600039012CE088E190E00FB6F894A8958093CB
:1005700060000FBE20936000FFCF2F923F924F92FA
:100580005F926F927F928F929F92AF92BF92CF9223
:10059000DF92EF92FF920F931F93DF93CF93CDB72C
:1005A000DEB7CE54D0400FB6F894DEBF0FBECDBF3D
:1005B00080E8809361001092610014B817B81AB8EF
:1005C0008FEF85B988B98BB914B1B7B1AAB175B13C
:1005D00068B15BB180E68AB940E020E931E05D981E
:1005E00080E491E0F9013197F1F70197D9F75E982E
:1005F00080E491E0F9013197F1F70197D9F75D9A1D
:1006000080E491E0F9013197F1F70197D9F75E9A0B
:1006100080E491E0F9013197F1F70197D9F74F5F45
:100620004430E9F614B9B7B9AAB975B968B95BB974
:1006300028961FAE289700E010E085E1E82EF12C07
:10064000EC0EFD1EC8010E946B0EF701E00FF11FBA
:1006500080838C3119F08D3109F06AC0902F00230E
:1006600019F442983A9A0AC0013019F45898509AED
:1006700059C0023019F45998519A54C0933019F462
:100680005A98529A4FC0943019F45B98539A4AC0C2
:10069000953019F45C98549A45C0963019F45D98D9
:1006A000559A40C0973019F45E98569A3BC09830DE
:1006B00019F42898209A36C0993019F42998219A6B
:1006C00031C09A3019F42A98229A2CC09B3019F420
:1006D0002B98239A27C09C3019F42C98249A22C076
:1006E0009D3019F42D98259A1DC09E3019F42E982E
:1006F000269A18C09F3019F45F98579A13C090310A
:1007000019F447983F9A0EC0913119F446983E9AD1
:1007100009C0923119F445983D9A04C0933111F4FF
:1007200044983C9A8D3121F481E028968FAF289728
:100730000F5F1F4F0832110509F084CF89E290E066
:100740000E946B0E182F8AE290E00E946B0E282EFA
:100750008BE290E00E946B0E26968FAF26978DE27B
:1007600090E00E946B0EF82E8EE290E00E946B0EDD
:10077000082F8FE290E00E946B0E25968FAF259791
:1007800087E390E00E946B0E24968FAF249788E356
:1007900090E00E946B0E23968FAF239789E390E041
:1007A0000E946B0E22968FAF22978AE390E00E9400
:1007B0006B0E21968FAF21978BE390E00E946B0E1A
:1007C0008FAF8CE390E00E946B0E8EAF8DE390E0D4
:1007D0000E946B0E8DAF94E0921518F0BFE02B2EA7
:1007E00005C08AEF821510F4AAEF2A2E28969FAD35
:1007F0002897913009F08CC0112309F489C020E0BA
:10080000412F50E060E971E008C080E197E2FB0110
:100810003197F1F70197D9F72F5F822F90E0841776
:1008200095079CF320E030E0AE014B5E5F4FFA018C
:10083000E20FF31F80818D3109F064C0822F2223E3
:1008400019F4429A3A9A0AC0213019F4589A509AE7
:1008500059C0223019F4599A519A54C0833019F46E
:100860005A9A529A4FC0843019F45B9A539A4AC0EC
:10087000853019F45C9A549A45C0863019F45D9A13
:10088000559A40C0873019F45E9A569A3BC088301A
:1008900019F4289A209A36C0893019F4299A219A95
:1008A00031C08A3019F42A9A229A2CC08B3019F45C
:1008B0002B9A239A27C08C3019F42C9A249A22C0A0
:1008C0008D3019F42D9A259A1DC08E3019F42E9A68
:1008D000269A18C08F3019F45F9A579A13C0803146
:1008E00019F4479A3F9A0EC0813119F4469A3E9AFC
:1008F00009C0823119F4459A3D9A04C0833111F43C
:10090000449A3C9A2F5F3F4F2832310509F08FCF30
:1009100081E05ED526968FAD2697813031F45E9AC0
:100920008F2D90E0602F70E0B8DD00E0DD242B9685
:100930001FAE2B9791E029969FAF299733D586B1AB
:100940008470898389B181708A8389B182708B8335
:1009500089B184708C8389B188708D8389B18071ED
:100960008E8389B180728F8389B18074888783B1C7
:100970008170898783B182708A8783B184708B8705
:1009800083B188708C8783B180718D8783B18072C9
:100990008E8783B180748F8783B18078888B86B18E
:1009A0008078898B86B180748A8B86B180728B8BBC
:1009B00086B180718C8B4F9B04C02C961FAE2C97F8
:1009C00017C0002389F48EEFD80E97EF9D1508F419
:1009D0008EC480E02B969FAD2B97992309F481E07C
:1009E0002B968FAF2B9783C481E02C968FAF2C97DB
:1009F0009AEF9D1508F0D3942B968FAD2B978130ED
:100A000019F43324339403C02C963FAC2C97DE01A9
:100A100055962F961FAE2F972E961FAE2E9700E05D
:100A200010E02A961FAE2A97CC2427961FAE279750
:100A300040E050E0942FE1E0F0E0EC0FFD1FE40F08
:100A4000F51F8081882309F051C081E0381611F02C
:100A5000242F02C0242F2C5E3C91373119F4CC2472
:100A6000C3940DC0E5E1F0E0EC0FFD1FE20FF11DB6
:100A70008081873111F4CC24C394363149F0E5E10B
:100A8000F0E0EC0FFD1FE20FF11D8081863121F4B3
:100A900081E027968FAF2797E5E1F0E0EC0FFD1F8F
:100AA000E20FF11DE081E83179F0E93169F0EA31D6
:100AB00009F423C4EB3109F420C4E13049F481E0A6
:100AC0002F968FAF2F9712C081E02A968FAF2A976B
:100AD000E23029F481E02E968FAF2E9707C0E330E5
:100AE00011F401E003C0E43009F411E08C918C3181
:100AF00009F0B9C081E0381609F052C0992311F409
:100B0000429A51C0913011F4589A52C0923011F467
:100B1000599A53C0933011F45A9A54C0943011F436
:100B20005B9A55C0953011F45C9A56C0963011F41A
:100B30005D9A57C0973011F45E9A58C0983011F4FE
:100B4000289A59C0993011F4299A5AC09A3011F450
:100B50002A9A5BC09B3011F42B9A5CC09C3011F434
:100B60002C9A5DC09D3011F42D9A5EC09E3011F418
:100B70002E9A5FC09F3019F45F9A579A74C09031D3
:100B800011F4479A60C0913111F4469A61C09231D4
:100B900011F4459A62C0933109F065C0449A62C06D
:100BA000992319F442983A9A5EC0913019F45898F2
:100BB000509A59C0923019F45998519A54C09330B0
:100BC00019F45A98529A4FC0943019F45B98539A7A
:100BD0004AC0953019F45C98549A45C0963019F47F
:100BE0005D98559A40C0973019F45E98569A3BC06C
:100BF000983019F42898209A36C0993019F4299819
:100C0000219A31C09A3019F42A98229A2CC09B302C
:100C100019F42B98239A27C09C3019F42C98249A05
:100C200022C09D3019F42D98259A1DC09E3019F4CC
:100C30002E98269A18C09F3019F42F98279A13C01F
:100C4000903119F447983F9A0EC0913119F44698A3
:100C50003E9A09C0923119F445983D9A04C09331E7
:100C600011F444983C9A4F5F5F4F119644315105FF
:100C700009F0E0CE2A969FAD2A97913039F4299653
:100C80008FAD2997819529968FAF299726969FAD8D
:100C90002697913011F4E9DBCDDB88E080931801D1
:100CA00080E880931A018093190180931C0180933E
:100CB0001B011092160180911701109224011092CD
:100CC000230110922201109221011092250110920D
:100CD00026011092270110922801807E809317012F
:100CE00027968FAD27978130C1F42F969FAD2F9710
:100CF000913011F4109218012E968FAD2E978130FD
:100D000019F484E080931801013019F486E080938F
:100D10001801113071F582E02AC0013019F486E023
:100D200080931801113019F482E0809318012F96F6
:100D30009FAD2F97913069F4013021F487E08093C3
:100D4000180107C0113019F41093180102C0109255
:100D500018012E968FAD2E97813059F4013011F481
:100D600085E005C0113011F483E001C084E0809378
:100D7000180126969FAD2697913009F054C025960C
:100D80008FAD2597813009F068C0909110012496AD
:100D90008FAD2497813021F5892F815E8F3318F430
:100DA0008FE7891B07C0903214F010921C01913E0E
:100DB0001CF48FEF80931C0190911101892F815EAB
:100DC0008F3320F4905890931B012DC090321CF06B
:100DD0008FEF80931B01913E34F510921B0123C0CD
:100DE000892F815E8F3318F48FE7891B07C09032FB
:100DF00014F010921A01913E1CF48FEF80931A01A7
:100E000090911101892F815E8F3320F49058909337
:100E1000190109C090321CF08FEF80931901913EA7
:100E200014F410921901EE24FF248C2D90E0F2E1CD
:100E30004F2E512C480E591EE3E16E2E712C681A6C
:100E4000790A7FE1872E912C880E991E60E2A62EEA
:100E5000B12CA81AB90A0FEF1CC090911001209173
:100E6000110124968FAD2497813041F48FE7891BBF
:100E700080931C01205820931B01D5CF8FE7891B3D
:100E800080931A01205820931901CDCF2D961FAFC2
:100E90002D97E1E0F0E0EC0FFD1FEE0DFF1D8081CE
:100EA000882309F0E5C081E0381611F08E2D02C0CC
:100EB0008E2D8C5EE5E1F0E0EC0FFD1FE80FF11DDB
:100EC0001081112309F4D4C0153041F4809116012A
:100ED000816080931601009324011DC0163041F4F7
:100EE000809116018260809316010093230113C044
:100EF000173041F4809116018460809316010093AD
:100F0000220109C0183039F480911601886080935D
:100F10001601009321012A969FAD2A979130A1F5E1
:100F200029968FAD2997813039F5183141F4809198
:100F30001601816080931601009324011DC01931B0
:100F400041F4809116018260809316010093230181
:100F500013C01A3141F48091160184608093160108
:100F60000093220109C01B3139F480911601886079
:100F7000809316010093210120E080EA9FE0019711
:100F8000F1F72F5F2215C8F3193041F48091160153
:100F9000806180931601009325013DC01A3041F411
:100FA000809116018062809316010093260133C060
:100FB0001B3041F4809116018064809316010093E8
:100FC000270129C01C3041F480911601806880936C
:100FD0001601009328011FC01F3021F480911701D2
:100FE000846017C0103121F480911701886011C00E
:100FF0001D3021F48091170181600BC01E3021F457
:1010000080911701826005C0113129F48091170188
:10101000806180931701812F90E08415950511F46C
:1010200010921A018615970511F400931A011431D4
:1010300019F41092190104C0153111F4009319012B
:101040008815990511F410921C018A159B0511F45D
:1010500000931C01113219F410921B010CC01232C2
:1010600019F400931B0107C01E3129F462DA03C092
:101070002D961FAD2D970894E11CF11C94E1E91603
:10108000F10409F003CF26968FAD2697813009F041
:1010900022C100E08C2D90E052E1452E512C480EEB
:1010A000591E43E1642E712C681A790A3FE1832EA0
:1010B000912C880E991E20E2A22EB12CA81AB90AF2
:1010C000FF24FA9491E0391661F4002311F41FAD66
:1010D00019C0013011F41EAD15C0023099F41DADD8
:1010E00011C0002321F423961FAD23970BC00130BC
:1010F00021F422961FAD229705C0023019F42196E3
:101100001FAD2197112309F4E2C08091130180FFE4
:1011100002C0002349F081FF02C0013029F082FFA4
:10112000D6C0023009F0D3C0153041F480911601C9
:10113000816080931601F09224011DC0163041F4A5
:1011400080911601826080931601F092230113C0F2
:10115000173041F480911601846080931601F0925B
:10116000220109C0183039F48091160188608093FB
:101170001601F09221012A968FAD2A978130A1F5B0
:1011800029969FAD2997913039F5183141F4809116
:101190001601816080931601F09224011DC019315F
:1011A00041F480911601826080931601F092230130
:1011B00013C01A3141F480911601846080931601A6
:1011C000F092220109C01B3139F480911601886028
:1011D00080931601F092210120E080EA9FE00197C0
:1011E000F1F72F5F2215C8F3193041F480911601F1
:1011F000806180931601F09225013DC01A3041F4C0
:1012000080911601806280931601F092260133C00E
:101210001B3041F480911601806480931601F09296
:10122000270129C01C3041F4809116018068809309
:101230001601F09228011FC01F3021F48091170180
:10124000846017C0103121F480911701886011C0AB
:101250001D3021F48091170181600BC01E3021F4F4
:1012600080911701826005C0113129F48091170126
:10127000806180931701812F90E08415950511F40A
:1012800010921A018615970511F4F0921A01143183
:1012900019F41092190104C0153111F4F0921901DA
:1012A0008815990511F410921C018A159B0511F4FB
:1012B000F0921C01113219F410921B0108C0123275
:1012C00019F4F0921B0103C01E3109F432D90F5FEB
:1012D000033009F0F7CE80E49FE10197F1F7AAD03F
:1012E0002C960FAD2C972D961FAF2D9727CB81E015
:1012F0002C968FAF2C97DD247ECB81E02A968FAF82
:101300002A97F4CBDA019330B1F0943028F491307D
:1013100041F0923079F50AC0913211F1923251F5D3
:1013200024C0E4EEF0E022E130E028C0E6EFF0E097
:1013300022E230E023C0813049F0813018F0823061
:10134000C9F40AC0E8E1F1E0849103C0ECE1F1E006
:101350008491282F30E012C0E8E3F1E08491F9CFC6
:10136000E8E0F1E029E030E009C0E4E7F0E020E760
:1013700030E004C0E0E0F0E020E030E0ED93FC93EA
:10138000C9010895E0910A01F0910B01309709F02D
:1013900009950895E0910C01F0910D01309709F045
:1013A00009950895A895089583E1E6E1F1E0DF014C
:1013B0001D928A95E9F788E08093180180E8809370
:1013C000190180931A0180931B0180931C010895D9
:1013D000882361F02FE088E190E00FB6F894A8959B
:1013E000809360000FBE2093600008C088E10FB6B4
:1013F000F89480936000109260000FBED5DF28D172
:101400007894089580912D01843099F481E080933F
:10141000E9008091E80080FF0CC086E191E063E183
:1014200070E040E050E084D28091E8008E778093B5
:10143000E8000895E7DF3AC480912F01813051F52B
:1014400080912E01813A31F58091300190913101E6
:101450008050934081F48091E800877F8093E8007A
:1014600080E091E068E070E0A4D18091E8008B77A3
:101470008093E80008958091E800877F8093E800DA
:1014800086E191E063E170E094D18091E8008B7790
:101490008093E800089581E061EC42E300C0382FBA
:1014A000282F2EC0822F8F708093E900231721F4FC
:1014B000762F942F50E006C07091EC009091ED00D3
:1014C0005091F00091FF1BC08091EB008E7F8093C4
:1014D000EB008091ED008D7F8093ED008091EB001B
:1014E00081608093EB007093EC009093ED0050933B
:1014F000F0008091EE0087FD02C080E008952F5F2C
:10150000253080F23F703093E90081E008958091AA
:101510002E0188239CF404C080912D018823B9F00A
:101520008091E80082FFF8CF8091E8008B7780936C
:10153000E800089580912D01882349F08091E8000A
:1015400080FFF8CF8091E8008E778093E8000895BF
:101550004091E4005091E50024E68091EC0080FF8A
:1015600024C08091E80080FD1EC080912D01882359
:1015700011F482E00895853011F483E0089580919C
:10158000EB0085FF02C081E008958091E400909116
:10159000E5008417950709F3222311F484E00895E8
:1015A0002150AC01DACF80E008958091E80082FFFD
:1015B000DCCFF9CF56D058D0E0EEF0E080818160EA
:1015C0008083E8EDF0E080818F77808319BCE3E6CB
:1015D000F0E080818160808310922C01089541D0D9
:1015E00043D08091D8008F778093D8008091D80025
:1015F00080688093D8008091D8008F7D8093D80038
:1016000084E089BD86E089BD09B400FEFDCF10925B
:101610002D011092290110922B0110922A0180E0D5
:1016200060E042E33CDF8091E1008E7F8093E10047
:101630008091E20081608093E2008091E200886006
:101640008093E2008091E0008E7F8093E000089517
:10165000E3E6F0E080818E7F808381E080932C013F
:10166000BECF1092E20008951092E10008951F92FB
:101670000F920FB60F9211242F933F934F935F93C6
:101680006F937F938F939F93AF93BF93EF93FF934A
:101690008091E10082FF0AC08091E20082FF06C0D3
:1016A0008091E1008B7F8093E100FFD28091E10087
:1016B00080FF17C08091E20080FF13C08091E2009C
:1016C0008E7F8093E2008091E20080618093E2004F
:1016D0008091D80080628093D80019BC10922D01AF
:1016E00059DE8091E10084FF2DC08091E20084FFEB
:1016F00029C084E089BD86E089BD09B400FEFDCF24
:101700008091D8008F7D8093D8008091E1008F7EFA
:101710008093E1008091E2008F7E8093E2008091CF
:10172000E20081608093E20080912901882331F4F6
:101730008091E30087FD02C081E001C084E08093D6
:101740002D0120DE8091E10083FF22C08091E20024
:1017500083FF1EC08091E100877F8093E10082E0DB
:1017600080932D01109229018091E1008E7F80935A
:10177000E1008091E2008E7F8093E2008091E200A0
:1017800080618093E20080E060E042E388DE8DD2F9
:10179000FF91EF91BF91AF919F918F917F916F9149
:1017A0005F914F913F912F910F900FBE0F901F901F
:1017B00018959C0140913401509135014617570707
:1017C00018F4F90190E03DC06115710511F0AB010D
:1017D000F8CF8091E8008E778093E80040E050E0F9
:1017E000F0CF80912D018823F1F18530F1F18091C6
:1017F000E80083FF02C081E008958091E80082FD47
:101800002CC08091E80080FF1CC08091F200282F3E
:1018100030E007C081918093F100415050402F5F2C
:101820003F4F4115510519F02034310598F390E0F0
:101830002034310509F491E08091E8008E7780939F
:10184000E8004115510569F6992359F606C08091C3
:101850002D01882341F0853041F08091E80082FF1E
:10186000F6CF80E0089582E0089583E008959C011A
:1018700040913401509135014617570718F4F9018A
:1018800090E040C06115710511F0AB01F8CF809177
:10189000E8008E778093E80040E050E0F0CF809140
:1018A0002D01882309F440C0853009F43FC08091A0
:1018B000E80083FF02C081E008958091E80082FD86
:1018C0002DC08091E80080FF1DC08091F200282F7C
:1018D00030E008C084918093F1003196415050402F
:1018E0002F5F3F4F4115510519F02034310590F31A
:1018F00090E02034310509F491E08091E8008E7782
:101900008093E8004115510551F6992341F606C030
:1019100080912D01882341F0853041F08091E800CD
:1019200082FFF6CF80E0089582E0089583E0089575
:10193000BF92CF92DF92EF92FF920F931F93CF93BC
:10194000DF93182F092F7B016A0102DEB82E88234E
:10195000B1F5812F902F9C01E901C114D10439F018
:10196000F60180819181E81AF90AC80FD91F00E0B9
:1019700010E022C08091E80085FD16C08091E8004B
:101980008E778093E80092D1C114D10449F0F6011A
:1019900080819181800F911F9183808385E010C0A9
:1019A000D7DD882349F00CC089918093F100089419
:1019B000E108F1080F5F1F4FE114F104D9F68B2DF8
:1019C000DF91CF911F910F91FF90EF90DF90CF901B
:1019D000BF9008950F931F93DF93CF93CDB7DEB7DA
:1019E000AC970FB6F894DEBF0FBECDBFEEE2F1E0CC
:1019F0008091F100819321E0E633F207C9F71CDD05
:101A00008091E80083FF38C180912E0130912F0131
:101A1000353009F487C0363040F43130C9F1313007
:101A200070F0333009F028C133C0383009F4F6C003
:101A3000393009F405C1363009F01EC197C080382D
:101A400021F0823809F018C108C090912A018091D4
:101A50002B01882399F0926011C0809132018F7020
:101A60008093E9008091EB0090E025E096958795C2
:101A70002A95E1F7982F91701092E9008091E80083
:101A8000877F8093E8009093F1001092F100D1C01D
:101A9000882319F0823009F0EFC090E08F719070C8
:101AA000009721F0029709F0E7C00CC08091300147
:101AB000813009F0E1C010922B01333069F5809339
:101AC0002B012AC080913001882331F52091320109
:101AD0002F7009F4D1C02093E9008091EB0080FFC2
:101AE0001BC0333021F48091EB00806213C08091E1
:101AF000EB0080618093EB0081E090E002C0880FF2
:101B0000991F2A95E2F78093EA001092EA008091EB
:101B1000EB0088608093EB001092E9008091E80070
:101B2000877F8AC0882309F0A7C0109130011F77F2
:101B30000FB7F8948091E800877F8093E800E7DC96
:101B40008091E80080FFFCCF8091E3008078812BBA
:101B50008093E30080688093E300112311F482E016
:101B600001C083E080932D010FBF86C08058823072
:101B700008F082C0809130019091310123E08C3DCA
:101B8000920709F033C083E08C838AE28B837FB7AE
:101B9000F894DE0115966EE040E050E011E2E62F89
:101BA000F0E010935700849140FF03C082958F703E
:101BB0006F5F8F70282F30E08A3018F0C901C79608
:101BC00002C0C901C0968D939D934F5F5F4F443112
:101BD000510529F77FBF8091E800877F8093E80057
:101BE000CE0103966AE270E0E4DD12C0609132013A
:101BF000AE014F5F5F4F86DBBC01009709F43CC02C
:101C00008091E800877F8093E80089819A812FDEA8
:101C10008091E8008B778093E8002EC0803861F5D2
:101C20008091E800877F8093E8008091290180936C
:101C3000F1008091E8008E778093E80068DC1CC09A
:101C40008823D1F4909130019230B0F48091E80073
:101C5000877F8093E8009093290159DC80912901C6
:101C6000882331F48091E30087FD02C081E001C048
:101C700084E080932D010FDC8091E80083FF0AC08F
:101C80008091EB0080628093EB008091E800877F79
:101C90008093E800AC960FB6F894DEBF0FBECDBFC0
:101CA000CF91DF911F910F91089508951F93809117
:101CB0002D01882371F01091E9008091EC001092C1
:101CC000E9008091E80083FF01C084DE1F7010935B
:101CD000E9001F910895F999FECF92BD81BDF89A50
:0A1CE000992780B50895F894FFCF0E
:081CEA002126010700000000A3
:00000001FF
