:10000000ACC00000C5C00000C3C00000C1C00000FB
:10001000BFC00000BDC00000BBC00000B9C00000F0
:10002000B7C00000B5C00000B3C000004AC6000061
:10003000A8C60000ADC00000ABC00000A9C0000011
:10004000A7C00000A5C00000A3C00000A1C0000020
:100050009FC000009DC000009BC0000099C0000030
:1000600097C0000095C0000093C0000091C0000040
:100070008FC0000000010000AB001200020000BDB4
:10008000002200220000DF003F00210000CF000915
:10009000000300001E01040103090422010A0203F7
:1000A00009042E012A000001C126001201000200ED
:1000B000000020C0167E0400010102000109022296
:1000C00000010100C0320904000001030001000921
:1000D0002111010001223F000705830320000105D3
:1000E000010906A101050719E029E7150025017599
:1000F00001950881027508950181030508190129F8
:100100000575019505910275039501910305071980
:100110000029FF150025FF7508951E8100C0040306
:1001200009040A034B0041004400450000002A0373
:1001300055005300420020004B006500790062002A
:100140006F00610072006400200045006E006300D3
:100150006F00640065007200000011241FBECFEF25
:10016000D2E0DEBFCDBF11E0A0E0B1E0E0E9F0E118
:1001700002C005900D92A230B107D9F711E0A2E0BC
:10018000B1E001C01D92A632B107E1F702D07EC7EF
:1001900037CF2F923F924F925F926F927F928F92C2
:1001A0009F92AF92BF92CF92DF92EF92FF920F9306
:1001B0001F93DF93CF93CDB7DEB7EC970FB6F894CC
:1001C000DEBF0FBECDBF20E820936100109261001A
:1001D00080E090E00FB6F894209361008093610076
:1001E0000FBE14B817B81AB88FEF85B988B98BB994
:1001F00014B1B7B1AAB175B168B15BB180E68AB983
:1002000040E020E931E05D9880E491E0F901319728
:10021000F1F70197D9F75E9880E491E0F901319701
:10022000F1F70197D9F75D9A80E491E0F9013197F0
:10023000F1F70197D9F75E9A80E491E0F9013197DF
:10024000F1F70197D9F74F5F4430E9F614B9B7B920
:10025000AAB975B968B95BB900E010E075E1E72E9D
:10026000F12CEC0EFD1EC80109D7F701E00FF11FBC
:1002700080830F5F1F4F08321105A9F7D3D4E6D44E
:100280008823E9F390E010E0FF246E010894C11C7C
:10029000D11C65E1A62EB12CAC0EBD1E53EEE52E91
:1002A00042EE942E31EE832E20EE722E86B18470B3
:1002B000898389B181708A8389B182708B8389B186
:1002C00084708C8389B188708D8389B180718E83AD
:1002D00089B180728F8389B18074888783B181707E
:1002E000898783B182708A8783B184708B8783B159
:1002F00088708C8783B180718D8783B180728E877F
:1003000083B180748F8783B18078888B86B1807841
:10031000898B86B180748A8B86B180728B8B86B113
:1003200080718C8B4F9B02C000E00DC0992351F46B
:100330001250183F08F073C480E0FF2009F481E0F8
:10034000F82E6DC401E01B3F08F41F5F81E0F81632
:1003500011F431E001C0302F90E040E050E061E660
:1003600070E6AFE5BEE58DE5682EFCE55F2EEBE5BA
:100370004E2E2AE5322E89E5282EF601E40FF51FD0
:100380008081882309F033C4313011F0842F02C0FA
:10039000842F8C5EF501E80FF11DE081EE2309F456
:1003A00026C4E13041F4E92FF0E0EC5FFE4F84E039
:1003B00080839F5F1CC4E23041F4E92FF0E0EC5FE2
:1003C000FE4F85E080839F5F12C4E33041F4E92F44
:1003D000F0E0EC5FFE4F86E080839F5F08C4E4306E
:1003E00041F4E92FF0E0EC5FFE4F87E080839F5FF0
:1003F000FEC3E53041F4E92FF0E0EC5FFE4F88E00A
:1004000080839F5FF4C3E63041F4E92FF0E0EC5FB6
:10041000FE4F89E080839F5FEAC3E73041F4E92F14
:10042000F0E0EC5FFE4F8AE080839F5FE0C3E8303E
:1004300041F4E92FF0E0EC5FFE4F8BE080839F5F9B
:10044000D6C3E93041F4E92FF0E0EC5FFE4F8CE0D9
:1004500080839F5FCCC3EA3041F4E92FF0E0EC5F8A
:10046000FE4F8DE080839F5FC2C3EB3041F4E92FE4
:10047000F0E0EC5FFE4F8EE080839F5FB8C3EC300E
:1004800041F4E92FF0E0EC5FFE4F8FE080839F5F47
:10049000AEC3ED3041F4E92FF0E0EC5FFE4F80E1B8
:1004A00080839F5FA4C3EE3041F4E92FF0E0EC5F5E
:1004B000FE4F81E180839F5F9AC3EF3041F4E92FC3
:1004C000F0E0EC5FFE4F82E180839F5F90C3E031FC
:1004D00041F4E92FF0E0EC5FFE4F83E180839F5F02
:1004E00086C3E13141F4E92FF0E0EC5FFE4F84E197
:1004F00080839F5F7CC3E23141F4E92FF0E0EC5F41
:10050000FE4F85E180839F5F72C3E33141F4E92FA1
:10051000F0E0EC5FFE4F86E180839F5F68C3E431CB
:1005200041F4E92FF0E0EC5FFE4F87E180839F5FAD
:100530005EC3E53141F4E92FF0E0EC5FFE4F88E166
:1005400080839F5F54C3E63141F4E92FF0E0EC5F14
:10055000FE4F89E180839F5F4AC3E73141F4E92F71
:10056000F0E0EC5FFE4F8AE180839F5F40C3E8319B
:1005700041F4E92FF0E0EC5FFE4F8BE180839F5F59
:1005800036C3E93141F4E92FF0E0EC5FFE4F8CE136
:1005900080839F5F2CC3EA3141F4E92FF0E0EC5FE8
:1005A000FE4F8DE180839F5F22C3EB3141F4E92F41
:1005B000F0E0EC5FFE4F8EE180839F5F18C3EC316B
:1005C00041F4E92FF0E0EC5FFE4F8FE180839F5F05
:1005D0000EC3ED3141F4E92FF0E0EC5FFE4F80E215
:1005E00080839F5F04C3EE3141F4E92FF0E0EC5FBC
:1005F000FE4F81E280839F5FFAC2EF3141F4E92F21
:10060000F0E0EC5FFE4F82E280839F5FF0C2E03259
:1006100041F4E92FF0E0EC5FFE4F83E280839F5FBF
:10062000E6C2E13241F4E92FF0E0EC5FFE4F84E2F4
:1006300080839F5FDCC2E23241F4E92FF0E0EC5F9F
:10064000FE4F85E280839F5FD2C2E33241F4E92FFF
:10065000F0E0EC5FFE4F86E280839F5FC8C2E43229
:1006600041F4E92FF0E0EC5FFE4F87E280839F5F6B
:10067000BEC2E53241F4E92FF0E0EC5FFE4F88E2C4
:1006800080839F5FB4C2E63241F4E92FF0E0EC5F73
:10069000FE4F89E280839F5FAAC2E73241F4E92FCF
:1006A000F0E0EC5FFE4F8AE280839F5FA0C2E832F9
:1006B00041F4E92FF0E0EC5FFE4F8BE280839F5F17
:1006C00096C2E93241F4E92FF0E0EC5FFE4F8CE294
:1006D00080839F5F8CC2EA3241F4E92FF0E0EC5F47
:1006E000FE4F8DE280839F5F82C2EB3241F4E92F9F
:1006F000F0E0EC5FFE4F8EE280839F5F78C2EC32C9
:1007000041F4E92FF0E0EC5FFE4F8FE280839F5FC2
:100710006EC2ED3241F4E92FF0E0EC5FFE4F80E372
:1007200080839F5F64C2EE3241F4E92FF0E0EC5F1A
:10073000FE4F81E380839F5F5AC2EF3241F4E92F7D
:10074000F0E0EC5FFE4F82E380839F5F50C2E033B6
:1007500041F4E92FF0E0EC5FFE4F83E380839F5F7D
:1007600046C2E13341F4E92FF0E0EC5FFE4F84E351
:1007700080839F5F3CC2E23341F4E92FF0E0EC5FFD
:10078000FE4F85E380839F5F32C2E33341F4E92F5C
:10079000F0E0EC5FFE4F86E380839F5F28C2E43386
:1007A00041F4E92FF0E0EC5FFE4F87E380839F5F29
:1007B0001EC2E53341F4E92FF0E0EC5FFE4F88E321
:1007C00080839F5F14C2E63341F4E92FF0E0EC5FD1
:1007D000FE4F89E380839F5F0AC2E73341F4E92F2C
:1007E000F0E0EC5FFE4F8AE380839F5F00C2E83356
:1007F00041F4E92FF0E0EC5FFE4F8BE380839F5FD5
:10080000F6C1E93341F4E92FF0E0EC5FFE4F8CE3F1
:1008100080839F5FECC1EA3341F4E92FF0E0EC5FA5
:10082000FE4F8DE380839F5FE2C1EB3341F4E92FFC
:10083000F0E0EC5FFE4F8EE380839F5FD8C1EC3326
:1008400041F4E92FF0E0EC5FFE4F8FE380839F5F80
:10085000CEC1ED3341F4E92FF0E0EC5FFE4F80E4D0
:1008600080839F5FC4C1EE3341F4E92FF0E0EC5F79
:10087000FE4F81E480839F5FBAC1EF3341F4E92FDB
:10088000F0E0EC5FFE4F82E480839F5FB0C1E03414
:1008900041F4E92FF0E0EC5FFE4F83E480839F5F3B
:1008A000A6C1E13441F4E92FF0E0EC5FFE4F84E4AF
:1008B00080839F5F9CC1E23441F4E92FF0E0EC5F5C
:1008C000FE4F85E480839F5F92C1E33441F4E92FBA
:1008D000F0E0EC5FFE4F86E480839F5F88C1E434E4
:1008E00041F4E92FF0E0EC5FFE4F87E480839F5FE7
:1008F0007EC1E53441F4E92FF0E0EC5FFE4F88E47F
:1009000080839F5F74C1E63441F4E92FF0E0EC5F2F
:10091000FE4F89E480839F5F6AC1E73441F4E92F89
:10092000F0E0EC5FFE4F8AE480839F5F60C1E834B3
:1009300041F4E92FF0E0EC5FFE4F8BE480839F5F92
:1009400056C1E93441F4E92FF0E0EC5FFE4F8CE44E
:1009500080839F5F4CC1EA3441F4E92FF0E0EC5F03
:10096000FE4F8DE480839F5F42C1EB3441F4E92F59
:10097000F0E0EC5FFE4F8EE480839F5F38C1EC3483
:1009800041F4E92FF0E0EC5FFE4F8FE480839F5F3E
:100990002EC1ED3441F4E92FF0E0EC5FFE4F80E52D
:1009A00080839F5F24C1EE3441F4E92FF0E0EC5FD7
:1009B000FE4F81E580839F5F1AC1EF3441F4E92F38
:1009C000F0E0EC5FFE4F82E580839F5F10C1E03571
:1009D00041F4E92FF0E0EC5FFE4F83E580839F5FF9
:1009E00006C1E13541F4E92FF0E0EC5FFE4F84E50C
:1009F00080839F5FFCC0E23541F4E92FF0E0EC5FBB
:100A0000FE4F85E580839F5FF2C0E33541F4E92F17
:100A1000F0E0EC5FFE4F86E580839F5FE8C0E43541
:100A200041F4E92FF0E0EC5FFE4F87E580839F5FA4
:100A3000DEC0E53541F4E92FF0E0EC5FFE4F88E5DC
:100A400080839F5FD4C0E63539F4E92FF0E0EC5F96
:100A5000FE4F20829F5FCBC0E73539F4E92FF0E0ED
:100A6000EC5FFE4F30829F5FC2C0E83539F4E92F5A
:100A7000F0E0EC5FFE4F40829F5FB9C0E93539F48A
:100A8000E92FF0E0EC5FFE4F50829F5FB0C0EA3587
:100A900039F4E92FF0E0EC5FFE4F60829F5FA7C062
:100AA000EB3539F4E92FF0E0EC5FFE4FB0839F5F48
:100AB0009EC0EC3539F4E92FF0E0EC5FFE4FA083E7
:100AC0009F5F95C0ED3539F4E92FF0E0EC5FFE4F04
:100AD00070839F5F8CC0EE3539F4E92FF0E0EC5F56
:100AE000FE4F60839F5F83C0EF3541F4E92FF0E054
:100AF000EC5FFE4F82E680839F5F79C0E03641F471
:100B0000E92FF0E0EC5FFE4F83E680839F5F6FC0CC
:100B1000E13639F4E92FF0E0EC5FFE4F70829F5F21
:100B200066C0E23639F4E92FF0E0EC5FFE4F8082D8
:100B30009F5F5DC0E33639F4E92FF0E0EC5FFE4FD4
:100B400090829F5F54C0E43639F4E92FF0E0EC5F07
:100B5000FE4FE0829F5F4BC0E53639F4E92FF0E0AD
:100B6000EC5FFE4F70829F5F42C0E63639F4E92F9A
:100B7000F0E0EC5FFE4F80829F5F39C0E73639F4CA
:100B8000E92FF0E0EC5FFE4F90829F5F30C0E836C7
:100B900039F4E92FF0E0EC5FFE4FE0829F5F27C061
:100BA000E93641F4E92FF0E0EC5FFE4F84EE8083FC
:100BB0009F5F1DC0EA3641F4E92FF0E0EC5FFE4F85
:100BC00085EE80839F5F13C0EB3641F4E92FF0E0A0
:100BD000EC5FFE4F86EE80839F5F09C0EC3639F4F0
:100BE000E92FF0E0EC5FFE4F87EE80839F5F4F5F61
:100BF0005F4F4431510509F0C0CB06C0E92FF0E04A
:100C0000EC5FFE4F10829F5F9E31C0F39093020114
:100C100020D080E49FE10197F1F7902F47CB01E0CE
:100C200010E093CB80EA8093D80086E089BD09B4B8
:100C300000FEFDCF80E88093D8001092E000109273
:100C400023018CE08093E200789408958091230141
:100C5000089580912301882391F12FB7F89483E0C0
:100C60008093E9009091E4009E5C33E08091E8007D
:100C700085FD0EC02FBF80912301882301F1809153
:100C8000E4008917E1F02FB7F8943093E900EECF34
:100C9000809103018093F1001092F100E4E0F1E013
:100CA00081918093F10081E0E232F807C9F78AE38D
:100CB0008093E800109224012FBF80E008958FEF09
:100CC00008951F920F920FB60F9211242F938F93B6
:100CD0009F93EF93FF938091E1001092E100982F92
:100CE00083FF0FC01092E90081E08093EB00109227
:100CF000EC0082E28093ED0088E08093F000109297
:100D0000230192FF34C080912301882381F1209137
:100D10000001222361F1809125018F5F80932501DD
:100D200090E083709070892B11F583E08093E90047
:100D30008091E80085FF1BC0809124018F5F809324
:100D400024018217A1F41092240180910301809361
:100D5000F1001092F100E4E0F1E081918093F10064
:100D600081E0E232F807C9F78AE38093E800FF9157
:100D7000EF919F918F912F910F900FBE0F901F9029
:100D800018951F920F920FB60F9211240F931F9375
:100D90002F933F934F935F936F937F938F939F9383
:100DA000AF93BF93EF93FF931092E9008091E80017
:100DB00083FF4EC14091F1003091F1008091F1002C
:100DC000682F70E02091F100922F80E0682B792B42
:100DD0008091F100A82FB0E02091F100922F80E0E7
:100DE000A82BB92B1091F1000091F10082EF8093B4
:100DF000E800363009F05AC02BE730E0A901455031
:100E00005040F9013797859194918617970701F51E
:100E1000FA01859194918A179B07D1F49A012E5F6C
:100E20003F4FF901659174912E5F3F4FF901449155
:100E3000212F30E0902F80E0282B392B2F3F3105D8
:100E400019F010F02FEF30E0241758F4422F09C0AA
:100E5000295F3F4F495F5F4FF0E02C3A3F0789F62B
:100E6000F7C05EEF8091E800282F30E0C90185705F
:100E70009070892BB9F322FDEEC0342F413208F077
:100E800030E2232FCB0106C0FC010196E491E093F0
:100E9000F10021502223C1F7630F711D431B5093B2
:100EA000E8004423F9F63032E9F2D5C0353061F478
:100EB0008EEF8093E8008091E80080FFFCCF862FC2
:100EC00080688093E300C7C0393031F5442309F0CE
:100ED00071C0609323018EEF8093E80085EA90E073
:100EE00021E02093E900FC010196E491E093EB00FE
:100EF000EE2369F0AC014F5F5F4FFC01849180935A
:100F0000EC00CA010196FA0134913093ED002F5F95
:100F1000253039F78EE149C0383051F4403809F0B6
:100F200049C08091E80080FFFCCF809123016EC012
:100F30003323D1F48091E80080FFFCCF423811F0D8
:100F400080E00DC0A093E9008091EB0090E025E0E7
:100F5000969587952A95E1F781701092E900809324
:100F6000F1001092F10070C0313011F0333011F502
:100F7000423001F561157105E9F42A2F2F77822F90
:100F800081508430B8F48EEF8093E8002093E9001C
:100F9000333009F45DC089E18093EB0081E090E09B
:100FA00002C0880F991F2A95E2F78093EA001092F9
:100FB000EA0051C0AB2B09F04BC0413A51F531303A
:100FC000A1F48091E80080FFFCCF80910301809321
:100FD000F1001092F100E4E0F1E081918093F100E2
:100FE00081E0E232F807C9F72FC0323039F480913E
:100FF000E80080FFFCCF8091000108C0333041F54C
:101000008091E80080FFFCCF809101018093F10086
:101010001BC04132E9F4393061F48091E80082FF6D
:10102000FCCF8091F100809322018BEF8093E80048
:101030000BC03A3029F4709300011092240104C0CF
:101040003B3031F4609301018EEF8093E80003C0E0
:1010500081E28093EB00FF91EF91BF91AF919F915F
:101060008F917F916F915F914F913F912F911F9140
:101070000F910F900FBE0F901F901895F999FECF0A
:1010800092BD81BDF89A992780B50895F894FFCF55
:021090007D01E0
:00000001FF
