:10000000BCC00000D5C00000D3C00000D1C00000BB
:10001000CFC00000CDC00000CBC00000C9C00000B0
:10002000C7C00000C5C00000C3C0000007C4000076
:10003000BFC00000BDC00000BBC00000B9C00000D0
:10004000B7C00000B5C00000B3C00000B1C00000E0
:10005000AFC00000ADC00000ABC00000A9C00000F0
:10006000A7C00000A5C00000A3C00000A1C0000000
:100070009FC0000005010905A101150025013500FB
:1000800045017501950D05091901290D8102950399
:10009000810105012507463B017504950165140999
:1000A00039814265009501810126FF0046FF000964
:1000B000300931093209357508950481020600FFBF
:1000C00009200921092209230924092509260927CC
:1000D00009280929092A092B950C81020A2126954C
:1000E00008B102C01201100100000040C410C0821B
:1000F0000001010200010902220001010080320911
:100100000400000103000000092111010001227018
:10011000000705810340000A040309042A036B0059
:1001200061006400650076006900630065002E00D0
:1001300063006F006D0000002A034B004100440083
:10014000450020002D0020004B00690063006B007B
:1001500020004100730073002000440079006E000D
:1001600061006D0069006300200045006E006300BF
:100170006F00640065007200000011241FBECFEF05
:10018000D2E0DEBFCDBF11E0A0E0B1E0E8EAFEE0E2
:1001900002C005900D92A830B107D9F711E0A8E090
:1001A000B1E001C01D92AC32B107E1F706D07AC6CA
:1001B00027CF5E9A08955E9808952F923F924F92AE
:1001C0005F926F927F928F929F92AF92BF92CF92E7
:1001D000DF92EF92FF920F931F93CF93DF9310E87C
:1001E000109361001092610014B817B880E68AB9C4
:1001F0008FEF85B988B98FE98BB95D9A89ED90E069
:10020000C5D18BED90E0C7D181E0DED110936100C4
:100210001092610014B1B7B1AAB175B168B15BB108
:1002200040E020E931E05D9888EE93E0F9013197F4
:10023000F1F70197D9F75E9888EE93E0F9013197CD
:10024000F1F70197D9F75D9A88EE93E0F9013197BC
:10025000F1F70197D9F75E9A88EE93E0F9013197AB
:10026000F1F70197D9F74F5F4430E9F614B9B7B900
:10027000AAB975B968B95BB910E0CC24AA2485E0A5
:10028000582E07E0402EB2E03B2EA6E02A2E662430
:100290006A94F0E87F2EE1E0EE2EF12C70E4872ED8
:1002A0007CE9972E71D1D3B006B129B127FF02C0E6
:1002B000BB2410C0112361F48EEFC80E8FE28C15A1
:1002C00008F40EC190E0AA2009F491E0A92E08C11B
:1002D000BB24B39482E38C1508F0C39481E0A81684
:1002E00011F411E001C01B2D88E080930E01E02F76
:1002F000F0E0DF01A470B070822F90E0EC01C170DB
:10030000D070BC0162707070AC01447050701130DC
:1003100031F520E0CD2B09F421E05D98AB2B19F0ED
:10032000222329F407C010921001222329F06092A1
:10033000100102C07092100120E0452B09F421E069
:10034000672B19F0222329F407C010920F012223F2
:1003500081F160920F012DC070920F012AC05D9A49
:100360006115710511F420920E014115510511F42A
:1003700030920E01AB2B79F46115710519F440929E
:100380000E0109C04115510521F421E020930E0111
:1003900002C010920E01CD2B61F4672B19F450921C
:1003A0000E0107C0452B11F423E001C024E0209387
:1003B0000E0163E0969587956A95E1F79C012E25DD
:1003C0003F25217040910C014C7F969587958E2595
:1003D0009F258170880F422B482B6D2D70E09B016B
:1003E0002E253F252170220F220F437FCB019695AA
:1003F00087958E259F258170880F880F880F422B47
:10040000482B9B0136952795369527952E253F2518
:1004100021702295207F4F7CCB01B3E09695879584
:10042000BA95E1F78E259F2581708295880F807E91
:10043000422B482BCB01A4E096958795AA95E1F72E
:100440008E259F2581708295880F880F807C4F7341
:1004500055E0769567955A95E1F79B012E253F2546
:10046000279522272795482B422B40930C01009576
:10047000001F0027001F000F000F20910D01237F98
:10048000CF0136E0969587953A95E1F78E259F2521
:100490008170880F880F880F202B282B7695679501
:1004A0006E257F2561702C7FD094DD1CDD24DD1C42
:1004B000DD0C262B2D2985E0F695E7958A95E1F749
:1004C000EE25FF258E2F81708295807F2F7E282B31
:1004D00020930D01C4010197F1F7A8D01B2DE2CEA6
:1004E000BB24B394CC24F9CEDA019330B1F094302C
:1004F00028F4913041F0923079F50AC0913211F12F
:10050000923251F524C0E4EEF0E022E130E028C060
:10051000E6EFF0E022E230E023C0813049F08130A4
:1005200018F08230C9F40AC0E8E1F1E0849103C018
:10053000ECE1F1E08491282F30E012C0E8E3F1E033
:100540008491F9CFE8E0F1E029E030E009C0E4E788
:10055000F0E020E730E004C0E0E0F0E020E030E050
:10056000ED93FC93C9010895E0910801F091090110
:10057000309709F009950895E0910A01F0910B0177
:10058000309709F009950895A89508959093090169
:1005900080930801089590930B0180930A010895B8
:1005A00083E1ECE0F1E0DF011D928A95E9F788E054
:1005B00080930E0180E880930F0180931001809357
:1005C0001101809312010895882361F02FE088E1E2
:1005D00090E00FB6F894A895809360000FBE20932A
:1005E000600008C088E10FB6F89480936000109214
:1005F00060000FBED5DF13D1789408958091230158
:10060000843099F481E08093E9008091E80080FFD4
:100610000CC08CE091E063E170E040E050E06FD20C
:100620008091E8008E778093E8000895E7DF25C485
:1006300080912501813051F580912401813A31F575
:1006400080912601909127018050934081F4809100
:10065000E800877F8093E80080E091E068E070E048
:100660008FD18091E8008B778093E8000895809186
:10067000E800877F8093E8008CE091E063E170E020
:100680007FD18091E8008B778093E800089581E026
:1006900061EC42E300C0382F282F2EC0822F8F70CC
:1006A0008093E900231721F4762F942F50E006C0A1
:1006B0007091EC009091ED005091F00091FF1BC003
:1006C0008091EB008E7F8093EB008091ED008D7F19
:1006D0008093ED008091EB0081608093EB0070933C
:1006E000EC009093ED005093F0008091EE0087FDB8
:1006F00002C080E008952F5F253080F23F70309374
:10070000E90081E008958091240188239CF404C0CD
:10071000809123018823B9F08091E80082FFF8CF0F
:100720008091E8008B778093E80008958091230101
:10073000882349F08091E80080FFF8CF8091E8009D
:100740008E778093E80008954091E4005091E50091
:1007500024E68091EC0080FF24C08091E80080FDB9
:100760001EC080912301882311F482E00895853012
:1007700011F483E008958091EB0085FF02C081E0D1
:1007800008958091E4009091E5008417950709F39E
:10079000222311F484E008952150AC01DACF80E0E7
:1007A00008958091E80082FFDCCFF9CF41D043D09B
:1007B0008091D8008F778093D8008091D80080688E
:1007C0008093D8008091D8008F7D8093D80084E0FA
:1007D00089BD86E089BD09B400FEFDCF10922301DA
:1007E00010921F01109221011092200180E060E020
:1007F00042E351DF8091E1008E7F8093E1008091A0
:10080000E20081608093E2008091E2008860809342
:10081000E2008091E0008E7F8093E0000895E3E69F
:10082000F0E080818E7F808381E080932201BECFC3
:100830001092E20008951092E10008951F920F9225
:100840000FB60F9211242F933F934F935F936F93A3
:100850007F938F939F93AF93BF93EF93FF93809179
:10086000E10082FF0AC08091E20082FF06C0809111
:10087000E1008B7F8093E100FFD28091E10080FF57
:1008800017C08091E20080FF13C08091E2008E7F4C
:100890008093E2008091E20080618093E200809189
:1008A000D80080628093D80019BC1092230164DEC6
:1008B0008091E10084FF2DC08091E20084FF29C077
:1008C00084E089BD86E089BD09B400FEFDCF80913A
:1008D000D8008F7D8093D8008091E1008F7E809337
:1008E000E1008091E2008F7E8093E2008091E2003F
:1008F00081608093E20080911F01882331F4809110
:10090000E30087FD02C081E001C084E08093230101
:100910002BDE8091E10083FF22C08091E20083FF03
:100920001EC08091E100877F8093E10082E0809388
:10093000230110921F018091E1008E7F8093E100DE
:100940008091E2008E7F8093E2008091E2008061DE
:100950008093E20080E060E042E39DDE8DD2FF9173
:10096000EF91BF91AF919F918F917F916F915F9127
:100970004F913F912F910F900FBE0F901F901895A0
:100980009C0140912A0150912B014617570718F4FA
:10099000F90190E03DC06115710511F0AB01F8CF90
:1009A0008091E8008E778093E80040E050E0F0CF3F
:1009B000809123018823F1F18530F1F18091E800E5
:1009C00083FF02C081E008958091E80082FD2CC081
:1009D0008091E80080FF1CC08091F200282F30E059
:1009E00007C081918093F100415050402F5F3F4FED
:1009F0004115510519F02034310598F390E0203469
:100A0000310509F491E08091E8008E778093E80049
:100A10004115510569F6992359F606C080912301C5
:100A2000882341F0853041F08091E80082FFF6CFC5
:100A300080E0089582E0089583E008959C0140914C
:100A40002A0150912B014617570718F4F90190E03D
:100A500040C06115710511F0AB01F8CF8091E8003D
:100A60008E778093E80040E050E0F0CF8091230142
:100A7000882309F440C0853009F43FC08091E80024
:100A800083FF02C081E008958091E80082FD2DC0BF
:100A90008091E80080FF1DC08091F200282F30E097
:100AA00008C084918093F1003196415050402F5FEF
:100AB0003F4F4115510519F02034310590F390E076
:100AC0002034310509F491E08091E8008E7780931D
:100AD000E8004115510551F6992341F606C0809171
:100AE0002301882341F0853041F08091E80082FFA6
:100AF000F6CF80E0089582E0089583E00895BF92E4
:100B0000CF92DF92EF92FF920F931F93CF93DF93D9
:100B1000182F092F7B016A0117DEB82E8823B1F543
:100B2000812F902F9C01E901C114D10439F0F60105
:100B300080819181E81AF90AC80FD91F00E010E0FE
:100B400022C08091E80085FD16C08091E8008E7774
:100B50008093E80092D1C114D10449F0F60180815C
:100B60009181800F911F9183808385E010C0ECDD1F
:100B7000882349F00CC089918093F1000894E10822
:100B8000F1080F5F1F4FE114F104D9F68B2DDF91AF
:100B9000CF911F910F91FF90EF90DF90CF90BF907A
:100BA00008950F931F93DF93CF93CDB7DEB7AC9724
:100BB0000FB6F894DEBF0FBECDBFE4E2F1E0809146
:100BC000F100819321E0EC32F207C9F731DD809129
:100BD000E80083FF38C18091240130912501353030
:100BE00009F487C0363040F43130C9F1313070F04B
:100BF000333009F028C133C0383009F4F6C0393039
:100C000009F405C1363009F01EC197C0803821F0C3
:100C1000823809F018C108C090912001809121010B
:100C2000882399F0926011C0809128018F70809381
:100C3000E9008091EB0090E025E0969587952A9554
:100C4000E1F7982F91701092E9008091E800877F7A
:100C50008093E8009093F1001092F100D1C08823B6
:100C600019F0823009F0EFC090E08F71907000971A
:100C700021F0029709F0E7C00CC080912601813075
:100C800009F0E1C010922101333069F58093210110
:100C90002AC080912601882331F5209128012F70E8
:100CA00009F4D1C02093E9008091EB0080FF1BC0C4
:100CB000333021F48091EB00806213C08091EB000F
:100CC00080618093EB0081E090E002C0880F991F63
:100CD0002A95E2F78093EA001092EA008091EB00F7
:100CE00088608093EB001092E9008091E800877F94
:100CF0008AC0882309F0A7C0109126011F770FB77B
:100D0000F8948091E800877F8093E800FCDC809174
:100D1000E80080FFFCCF8091E3008078812B8093F6
:100D2000E30080688093E300112311F482E001C0A6
:100D300083E0809323010FBF86C08058823008F083
:100D400082C0809126019091270123E08C3D92077B
:100D500009F033C083E08C838AE28B837FB7F894F9
:100D6000DE0115966EE040E050E011E2E62FF0E083
:100D700010935700849140FF03C082958F706F5F7E
:100D80008F70282F30E08A3018F0C901C79602C052
:100D9000C901C0968D939D934F5F5F4F44315105BC
:100DA00029F77FBF8091E800877F8093E800CE011C
:100DB00003966AE270E0E4DD12C060912801AE01A2
:100DC0004F5F5F4F91DBBC01009709F43CC08091FD
:100DD000E800877F8093E80089819A812FDE8091E7
:100DE000E8008B778093E8002EC0803861F5809111
:100DF000E800877F8093E80080911F018093F100D5
:100E00008091E8008E778093E8007DDC1CC0882309
:100E1000D1F4909126019230B0F48091E800877F60
:100E20008093E80090931F016EDC80911F0188235E
:100E300031F48091E30087FD02C081E001C084E0CD
:100E40008093230124DC8091E80083FF0AC0809115
:100E5000EB0080628093EB008091E800877F8093B5
:100E6000E800AC960FB6F894DEBF0FBECDBFCF91B1
:100E7000DF911F910F91089508951F938091230191
:100E8000882371F01091E9008091EC001092E90044
:100E90008091E80083FF01C084DE1F701093E90099
:080EA0001F910895F894FFCFA3
:080EA8002126010700000000F3
:00000001FF
