:1000000083C000009CC000009AC0000098C000009F
:1000100096C0000094C0000092C0000090C0000094
:100020008EC000008CC000008AC0000075C40000B3
:1000300086C0000084C0000082C0000080C00000B4
:100040007EC000007CC000007AC0000078C00000C4
:1000500076C0000074C0000072C0000070C00000D4
:100060006EC000006CC000006AC0000068C00000E4
:1000700066C0000012011001000000085E040202C8
:100080000001000000010902200001010080320986
:100090000400000258420000070582032000040704
:1000A000050203080004040309042A036B0061002D
:1000B0006400650076006900630065002E0063003F
:1000C0006F006D0000002A034B0041004400450012
:1000D00020002D0020004B00690063006B00200011
:1000E0004100730073002000440079006E0061003D
:1000F0006D0069006300200045006E0063006F0022
:10010000640065007200000011241FBECFEFD2E032
:10011000DEBFCDBF11E0A0E0B1E0E8EBFFE002C040
:1001200005900D92A230B107D9F711E0A2E0B1E03D
:1001300001C01D92AB33B107E1F706D03BC760CFDA
:100140005E9A08955E9808952F923F924F925F9223
:100150006F927F928F929F92AF92BF92CF92DF92D7
:10016000EF92FF920F931F93CF93DF9310E81093BA
:1001700061001092610014B817B880E68AB98FEF59
:1001800085B988B98FE98BB95D9A80EA90E026D26B
:1001900082EA90E028D281E052D21093610010925E
:1001A000610014B1B7B1AAB175B168B15BB140E0FB
:1001B00020E931E05D9888EE93E0F9013197F1F79D
:1001C0000197D9F75E9888EE93E0F9013197F1F73E
:1001D0000197D9F75D9A88EE93E0F9013197F1F72D
:1001E0000197D9F75E9A88EE93E0F9013197F1F71C
:1001F0000197D9F74F5F4430E9F614B9B7B9AAB9F6
:1002000075B968B95BB9C0E4DCE905C0E0D1CE01DD
:100210000197F1F746D2DDD1892BC1F310E000E060
:1002200066247724739455245A9421E0822E912CCD
:1002300044244A949FEFA92E9FE7B92EC12C80E851
:10024000D82EB0E92B2EB1E03B2EC1D173B1F6B060
:1002500029B127FF02C0EE240EC0112351F4025031
:10026000003308F06EC180E0662009F481E0682E5A
:1002700068C1EE24E394033308F40F5F81E068164D
:1002800011F461E001C06E2DEF2DF0E0CF019695E5
:1002900087959695879588259925482F417030E058
:1002A000C90188259925582F5170C90196958795C0
:1002B00088259925A82FA170C901969587959695AF
:1002C000879588259925B82FB170613009F08CC0C9
:1002D0005D98872F90E0EC01C170D07070FF2FC047
:1002E00076FF519481E0581619F4852F542F482F2A
:1002F00077FF719423FD04C080910C01806403C0DA
:1003000080910C018F7B80930C0124FD04C08091AF
:100310000C01806803C080910C018F7780930C01E1
:100320001092140110921501E5FD09C040921401CC
:100330004092150180910C01806280930C0144234E
:1003400011F45523E9F081E0781669F4442321F093
:10035000D0921901C09218015523D1F0B092190121
:10036000A092180115C0442321F0D0921D01C09223
:100370001C01552369F0B0921D01A0921C0108C018
:10038000109219011092180110921D0110921C0177
:10039000AA2311F4BB23F9F081E0781671F4AA23A3
:1003A00021F0D0921701C0921601BB2309F4CDC0F1
:1003B000B0921701A0921601C8C0AA2321F0D092D2
:1003C0001B01C0921A01BB2309F4BFC0B0921B01EC
:1003D000A0921A01BAC01092170110921601109241
:1003E0001B0110921A01B1C05D9A442321F0809143
:1003F0000C01816003C080910C018E7F80930C0101
:10040000552321F080910C01826003C080910C0182
:100410008D7F80930C01AA2321F080910C018460D0
:1004200003C080910C018B7F80930C01BB2321F0D2
:1004300080910C01886003C080910C01877F8093BC
:100440000C0123FD02C08FEF01C080E080931401F6
:1004500024FD02C08FEF01C080E0809315018091E0
:100460000C018F7380930C01972F72FD02C08FEFE8
:1004700001C080E080930E0193FD02C08FEF01C0A8
:1004800080E080930F0194FD02C08FEF01C080E0F7
:100490008093100195FD02C08FEF01C080E0809332
:1004A000110196FD02C08FEF01C080E08093120120
:1004B0007095770F770B70931301E5FD1FC010E067
:1004C0000AC085D0F6B088EE93E0F1013197F1F7DC
:1004D0000197D9F71F5FF5FE03C0183220F007C05F
:1004E000193279F704C080910C01806321C04092D9
:1004F0001401409215014092120113C091FD04C0F5
:10050000F7FC02C0E6FF16C0F7FC04C080910C01A6
:10051000806103C080910C018F7E80930C01E6FD09
:1005200004C080910C01806203C080910C018F7D1A
:1005300080930C0180E49CE90197F1F7B2D01E2D65
:1005400084CEEE24E39400E098CECD2B09F479CF4D
:100550008BCFDA01923049F0933061F09130F9F4A9
:10056000E4E7F0E022E130E01EC0E6E8F0E020E25F
:1005700030E019C0813049F0813018F0823079F4D0
:1005800008C0E6EAF0E0849107C0EAEAF0E084916E
:1005900003C0E6ECF0E08491282F30E004C0E0E0F6
:1005A000F0E020E030E0ED93FC93C9010895E09184
:1005B0000401F0910501309709F009950895E09143
:1005C0000601F0910701309709F009950895A89563
:1005D0000895809108019091090108959093030175
:1005E0008093020108959093070180930601089576
:1005F000EAE0F1E084E2DF011D928A95E9F794E1F7
:1006000090930B0180E180931E0182E480931F018F
:100610001092200181E0809321018093220182E0E9
:10062000809323019093240186E0809325017C969A
:100630008FEF8193B1E0EE32FB07D9F7089588235D
:1006400061F02FE088E190E00FB6F894A8958093D0
:1006500060000FBE2093600008C088E10FB6F894D8
:1006600080936000109260000FBEC2DF46D1789484
:10067000089580913201843099F482E08093E900FA
:100680008091E80080FF0CC08AE091E064E170E0B6
:1006900040E050E0BCD28091E8008E778093E80083
:1006A0000895E7DF72C4909134019130A1F48091F4
:1006B0003301813A91F58091E800877F8093E800CB
:1006C0008AE091E064E170E0D8D18091E8008B7716
:1006D0008093E800089580913301813CF1F49630D5
:1006E000E1F48091E800877F8093E8008EE191E05B
:1006F00060E170E0C2D18091E8008B778093E800E0
:1007000081E090E09093090180930801E09102015B
:10071000F0910301309709F00995089582E061ECAA
:1007200042E200C0382F282F2EC0822F8F70809376
:10073000E900231721F4762F942F50E006C0709122
:10074000EC009091ED005091F00091FF1BC0809162
:10075000EB008E7F8093EB008091ED008D7F809386
:10076000ED008091EB0081608093EB007093EC00D2
:100770009093ED005093F0008091EE0087FD02C051
:1007800080E008952F5F253080F23F703093E900BC
:1007900081E008958091330188239CF404C0809106
:1007A00032018823B9F08091E80082FFF8CF809170
:1007B000E8008B778093E8000895809132018823C8
:1007C00049F08091E80080FFF8CF8091E8008E77B3
:1007D0008093E80008954091E4005091E50024E6FC
:1007E0008091EC0080FF24C08091E80080FD1EC055
:1007F00080913201882311F482E00895853011F44C
:1008000083E008958091EB0085FF02C081E00895A8
:100810008091E4009091E5008417950709F3222365
:1008200011F484E008952150AC01DACF80E00895FE
:100830008091E80082FFDCCFF9CFDF93CF9300D027
:10084000CDB7DEB763D065D08091D8008F77809325
:10085000D8008091D80080688093D8008091D8001B
:100860008F7D8093D80084E089BD86E089BD09B47E
:1008700000FEFDCF1092320110922E011092300135
:1008800010922F0180E091E060E0AE014F5F5F4F7A
:1008900060DE892B31F0E981FA813796E491E093AB
:1008A00000018091000190E028E030E040E003C0CA
:1008B0004F5F220F331F28173907D0F34295407F2F
:1008C000426080E060E02EDF8091E1008E7F8093C7
:1008D000E1008091E20081608093E2008091E2007B
:1008E00088608093E2008091E0008E7F8093E0003A
:1008F0000F900F90CF91DF910895E3E6F0E08081B3
:100900008E7F808381E08093310197CF1092E20047
:1009100008951092E10008951F920F920FB60F9262
:1009200011242F933F934F935F936F937F938F93F4
:100930009F93AF93BF93EF93FF938091E10082FF6A
:100940000AC08091E20082FF06C08091E1008B7FA7
:100950008093E10019D38091E10080FF17C080915E
:10096000E20080FF13C08091E2008E7F8093E2005E
:100970008091E20080618093E2008091D8008062E3
:100980008093D80019BC1092320119DE8091E100E9
:1009900084FF2DC08091E20084FF29C084E089BDDE
:1009A00086E089BD09B400FEFDCF8091D8008F7D1F
:1009B0008093D8008091E1008F7E8093E100809148
:1009C000E2008F7E8093E2008091E200816080935C
:1009D000E20080912E01882331F48091E30087FDAD
:1009E00002C081E001C084E080933201E0DD8091AB
:1009F000E10083FF31C08091E20083FF2DC0809130
:100A0000E100877F8093E10082E0809332011092C1
:100A10002E018091E1008E7F8093E1008091E200C1
:100A20008E7F8093E2008091E20080618093E200FB
:100A30008091000190E040E028E030E003C04F5F8B
:100A4000220F331F28173907D0F34295407F4260A9
:100A500080E060E067DE98D2FF91EF91BF91AF91A7
:100A60009F918F917F916F915F914F913F912F91C6
:100A70000F900FBE0F901F901895E82F40913901ED
:100A800050913A014617570750F42E2F392FC901BC
:100A9000FC0180910001682F70E090E03DC061157D
:100AA000710511F0AB01F1CF8091E8008E77809352
:100AB000E80040E050E0E9CF809132018823F1F175
:100AC0008530F1F18091E80083FF02C081E0089554
:100AD0008091E80082FD2CC08091E80080FF1CC05E
:100AE0008091F200282F30E007C081918093F100BF
:100AF000415050402F5F3F4F4115510519F02617C7
:100B0000370798F390E02617370709F491E08091B2
:100B1000E8008E778093E8004115510569F6992326
:100B200059F606C080913201882341F0853041F0AA
:100B30008091E80082FFF6CF80E0089582E008957A
:100B400083E008959C014091390150913A01461784
:100B5000570738F4F90180910001682F70E090E0A8
:100B600040C06115710511F0AB01F4CF8091E80030
:100B70008E778093E80040E050E0ECCF8091320126
:100B8000882309F440C0853009F43FC08091E80013
:100B900083FF02C081E008958091E80082FD2DC0AE
:100BA0008091E80080FF1DC08091F200282F30E086
:100BB00008C084918093F1003196415050402F5FDE
:100BC0003F4F4115510519F02617370790F390E074
:100BD0002617370709F491E08091E8008E7780931B
:100BE000E8004115510551F6992341F606C0809160
:100BF0003201882341F0853041F08091E80082FF86
:100C0000F6CF80E0089582E0089583E00895BF92D2
:100C1000CF92DF92EF92FF920F931F93CF93DF93C8
:100C2000182F092F7B016A01D6DDB82E8823B1F574
:100C3000812F902F9C01E901C114D10439F0F601F4
:100C400080819181E81AF90AC80FD91F00E010E0ED
:100C500022C08091E80085FD16C08091E8008E7763
:100C60008093E80092D1C114D10449F0F60180814B
:100C70009181800F911F9183808385E010C0ABDD4F
:100C8000882349F00CC089918093F1000894E10811
:100C9000F1080F5F1F4FE114F104D9F68B2DDF919E
:100CA000CF911F910F91FF90EF90DF90CF90BF9069
:100CB00008950F931F93DF93CF93CDB7DEB7AC9713
:100CC0000FB6F894DEBF0FBECDBFE3E3F1E0809135
:100CD000F100819321E0EB33F207C9F7E4DC809166
:100CE000E80083FF38C18091330130913401353001
:100CF00009F487C0363040F43130C9F1313070F03A
:100D0000333009F028C133C0383009F4F6C0393027
:100D100009F405C1363009F01EC197C0803821F0B2
:100D2000823809F018C108C090912F0180913001DC
:100D3000882399F0926011C0809137018F70809361
:100D4000E9008091EB0090E025E0969587952A9543
:100D5000E1F7982F91701092E9008091E800877F69
:100D60008093E8009093F1001092F100D1C08823A5
:100D700019F0823009F0EFC090E08F719070009709
:100D800021F0029709F0E7C00CC080913501813055
:100D900009F0E1C010923001333069F580933001E1
:100DA0002AC080913501882331F5209137012F70B9
:100DB00009F4D1C02093E9008091EB0080FF1BC0B3
:100DC000333021F48091EB00806213C08091EB00FE
:100DD00080618093EB0081E090E002C0880F991F52
:100DE0002A95E2F78093EA001092EA008091EB00E6
:100DF00088608093EB001092E9008091E800877F83
:100E00008AC0882309F0A7C0109135011F770FB75A
:100E1000F8948091E800877F8093E800BBDC8091A4
:100E2000E80080FFFCCF8091E3008078812B8093E5
:100E3000E30080688093E300112311F482E001C095
:100E400083E0809332010FBF86C08058823008F063
:100E500082C0809135019091360123E08C3D92074C
:100E600009F033C083E08C838AE28B837FB7F894E8
:100E7000DE0115966EE040E050E011E2E62FF0E072
:100E800010935700849140FF03C082958F706F5F6D
:100E90008F70282F30E08A3018F0C901C79602C041
:100EA000C901C0968D939D934F5F5F4F44315105AB
:100EB00029F77FBF8091E800877F8093E800CE010B
:100EC00003966AE270E0D9DD12C060913701AE018D
:100ED0004F5F5F4F3EDBBC01009709F43CC080913F
:100EE000E800877F8093E80089819A812BDE8091DA
:100EF000E8008B778093E8002EC0803861F5809100
:100F0000E800877F8093E80080912E018093F100B4
:100F10008091E8008E778093E8003CDC1CC0882339
:100F2000D1F4909135019230B0F48091E800877F40
:100F30008093E80090932E012DDC80912E01882370
:100F400031F48091E30087FD02C081E001C084E0BC
:100F500080933201E3DB8091E80083FF0AC0809137
:100F6000EB0080628093EB008091E800877F8093A4
:100F7000E800AC960FB6F894DEBF0FBECDBFCF91A0
:100F8000DF911F910F91089508951F938091320171
:100F9000882371F01091E9008091EC001092E90033
:100FA0008091E80083FF01C084DE1F701093E90088
:080FB0001F910895F894FFCF92
:020FB80008002F
:00000001FF
