:10000000EDC0000006C1000004C1000002C10000F4
:1000100000C10000FEC00000FCC00000FAC00000EB
:10002000F8C00000F6C00000F4C00000CFC400001B
:10003000F0C00000EEC00000ECC00000EAC000000C
:10004000E8C00000E6C00000E4C00000E2C000001C
:10005000E0C00000DEC00000DCC00000DAC000002C
:10006000D8C00000D6C00000D4C00000D2C000003C
:10007000D0C0000005010902A10185010901A1000C
:100080000509190129031500250195037501810250
:10009000950175058101050109300931093815F609
:1000A000250A35F6450A950375088106C0C0050185
:1000B0000906A1018502050719E029E715002501B8
:1000C00075019508810295017508810105081901DE
:1000D000290595057501910295017503910115009A
:1000E00025FF0507190029FF950F75088100C0122B
:1000F00001100100000008EB034E2001000102DCAA
:100100000109026600030102C032080B000202026C
:10011000010209040000010202010305240010018C
:10012000042402060524060001070581030800FFD8
:1001300009040100020A0000030705030210000180
:1001400007058202100001090402000203010104F4
:10015000092111010001227B00070584031200011F
:1001600007050503120001040309041A036B00616B
:10017000006400650076006900630065002E00637E
:10018000006F006D0000001A034B00410044004561
:1001900000200045006E0063006F0064006500727F
:1001A0000000001A034B00410044004500200045B8
:1001B000006E0063006F0064006500720000001AAA
:1001C000034B00410044004500200045006E0063E1
:1001D000006F0064006500720000000011241FBE63
:1001E000CFEFD2E0DEBFCDBF11E0A0E0B1E0E6E5A9
:1001F000F1E102C005900D92A230B107D9F711E0EC
:10020000A2E0B1E001C01D92A234B107E1F792D0A3
:10021000A0C7F6CE0F931F9380913901843081F5EA
:1002200085E08093E9008091E80082FF10C0809112
:10023000E80085FF07C08AE091E062E170E040E0FD
:1002400050E064D58091E8008B778093E80084E0EB
:100250008093E9008091E80080FF12C00CE111E07A
:10026000C80162E170E040E050E0A2D583E1F8010E
:1002700011928A95E9F78091E8008E778093E800E3
:100280001F910F9108950F931F9380913B0181302F
:1002900019F0893061F518C080913A01813A39F539
:1002A0008091E800877F8093E8000CE111E0C801AD
:1002B00062E170E02DD483E1F80111928A95E9F7AB
:1002C0008091E8008B7711C080913A01813279F4F6
:1002D0008091E800877F8093E8008AE091E062E106
:1002E00070E074D48091E8008E778093E8001F91CD
:1002F0000F91089584E061EC42E298D285E060ECD1
:1003000042E294C284B7877F84BF88E10FB6F89435
:1003100080936000109260000FBEE1E6F0E080E89C
:100320008083108214B817B81AB88FEF85B988B9CE
:100330008BB93DC35F926F927F928F929F92AF92E3
:10034000BF92CF92DF92EF92FF920F931F93CF93C2
:10035000DF93D8DF789486B18093300189B18093A0
:10036000320186B18093340189B18093330186B123
:1003700080932E0189B18093310111E072E0A72EA4
:1003800063E1962E58E2852E4EE1742E32E2632E02
:100390002BE1522E0DE191EEF92E8CE2E82EB2EE19
:1003A000DB2EA0EECA2EF9E2BF2EC0EBD4E04F99AF
:1003B00005C0809100018F5F809300018091000152
:1003C000853010F01093000186B19091300189279B
:1003D00082FD06C099B180913201892780FF56C005
:1003E00010920501329902C010930501489905C089
:1003F000809105018E5F80930501209105012223E4
:1004000029F4809102018230E9F414C0213029F4EA
:1004100080910201882371F026C0233029F4809155
:1004200002018130C9F406C0223051F480910201EA
:10043000833069F48091070190910001890F1CC0FD
:10044000222341F4809102018130C1F410C088233D
:1004500071F014C0233029F480910201823071F4CC
:1004600006C0213059F480910201833039F4809123
:10047000070190910001891B8093070120930201DD
:1004800086B18093300189B180933201809133012C
:10049000482F50E089B19A01369527958695822795
:1004A00080FD0AC089B15695479556954795869522
:1004B0008695842780FF56C010920501499902C095
:1004C000109305014A9905C0809105018E5F8093C4
:1004D000050120910501222329F480910301823036
:1004E000E9F414C0213029F480910301882371F0CC
:1004F00026C0233029F4809103018130C9F406C05D
:10050000223051F480910301833069F48091080115
:1005100090910001890F1CC0222341F480910301B6
:100520008130C1F410C0882371F014C0233029F445
:1005300080910301823071F406C0213059F480911A
:100540000301833039F48091080190910001891BE7
:10055000809308012093030186B18093340189B10F
:100560008093330180913101482F50E089B19A0185
:1005700063E0369527956A95E1F786958695869589
:10058000822780FD0BC089B194E0569547959A95D6
:10059000E1F782958F70842780FF56C01092050185
:1005A0004B9902C0109305014C9905C0809105013B
:1005B0008E5F8093050120910501222329F480910B
:1005C00004018230E9F414C0213029F4809104013F
:1005D000882371F026C0233029F4809104018130F2
:1005E000C9F406C0223051F480910401833069F4CB
:1005F0008091090190910001890F1CC0222341F4D0
:10060000809104018130C1F410C0882371F014C0BE
:10061000233029F480910401823071F406C0213026
:1006200059F480910401833039F48091090190914B
:100630000001891B809309012093040186B18093F6
:100640002E0189B180933101809106018F5F8093E3
:100650000601823041F0843031F0863021F088305C
:1006600011F08A3091F510931C0110921D014D99E3
:1006700002C010931D014E9905C080911D0182603A
:1006800080931D01189905C080911D01846080939D
:100690001D018091070180931E01809108018093C4
:1006A0001F01809109018093200110922101109275
:1006B000220110922301109224011092070110923E
:1006C000080110920901A6DD31D58091060185301F
:1006D00019F08A3009F054C0A0921C0110921D013B
:1006E00010921E0110921F01109220011092210100
:1006F00010922201109223011092240110922501E0
:1007000010922601109227011092280110922901BF
:1007100010922A0110922B0110922C0110922D019F
:10072000199902C0B0921F011A9902C0C09220010B
:100730001B9902C0D09221011C9902C0E0922201B3
:100740001D9902C0F09223011E9902C0009324015A
:100750001F9902C050922501379902C0609226016C
:10076000369902C070922701359902C08092280103
:10077000349902C090922901D9D44CDD109206011F
:10078000CE010197F1F713CEDA019330C9F094301E
:1007900030F4913059F0923009F040C00CC09132E1
:1007A00009F432C0923209F039C033C0EFEEF0E004
:1007B00022E130E037C0E1E0F1E026E630E032C08F
:1007C0008230B1F0833028F4882341F0813031F554
:1007D00009C0833089F0843009F512C0E7E6F1E002
:1007E000849103C0EBE6F1E08491282F30E01AC039
:1007F000E7E8F1E08491F9CFE3EAF1E08491F5CF05
:10080000EFEBF1E08491F1CFE0E5F1E029E030E0B9
:1008100009C0E4E7F0E02BE730E004C0E0E0F0E0FE
:1008200020E030E0ED93FC93C9010895382F282F84
:100830002CC02093E900231721F4762F942F50E049
:1008400006C07091EC009091ED005091F00091FF86
:100850001BC08091EB008E7F8093EB008091ED00B8
:100860008D7F8093ED008091EB0081608093EB00A1
:100870007093EC009093ED005093F0008091EE00A7
:1008800087FD02C080E008952F5F253090F23093FD
:10089000E90081E0089580913A0188239CF404C026
:1008A000809139018823B9F08091E80082FFF8CF68
:1008B0008091E8008B778093E8000895809139015A
:1008C000882349F08091E80080FFF8CF8091E8000C
:1008D0008E778093E80008954091E4005091E50000
:1008E00024E68091EC0080FF24C08091E80080FD28
:1008F0001EC080913901882311F482E0089585306B
:1009000011F483E008958091EB0085FF02C081E03F
:1009100008958091E4009091E5008417950709F30C
:10092000222311F484E008952150AC01DACF80E055
:1009300008958091E80082FFDCCFF9CF41D043D009
:100940008091D8008F778093D8008091D8008068FC
:100950008093D8008091D8008F7D8093D80084E068
:1009600089BD86E089BD09B400FEFDCF1092390132
:1009700010923501109237011092360180E060E04C
:1009800042E054DF8091E1008E7F8093E10080910E
:10099000E20081608093E2008091E20088608093B1
:1009A000E2008091E0008E7F8093E0000895E3E60E
:1009B000F0E080818E7F808381E080933801BECF1C
:1009C0001092E20008951092E10008951F920F9294
:1009D0000FB60F9211242F933F934F935F936F9312
:1009E0007F938F939F93AF93BF93EF93FF938091E8
:1009F000E10082FF0AC08091E20082FF06C0809180
:100A0000E1008B7F8093E10090D38091E10080FF33
:100A100017C08091E20080FF13C08091E2008E7FBA
:100A20008093E2008091E20080618093E2008091F7
:100A3000D80080628093D80019BC1092390175D318
:100A40008091E10084FF2DC08091E20084FF29C0E5
:100A500084E089BD86E089BD09B400FEFDCF8091A8
:100A6000D8008F7D8093D8008091E1008F7E8093A5
:100A7000E1008091E2008F7E8093E2008091E200AD
:100A800081608093E20080913501882331F4809168
:100A9000E30087FD02C081E001C084E0809339015A
:100AA00044D38091E10083FF22C08091E20083FF64
:100AB0001EC08091E100877F8093E10082E08093F7
:100AC0003901109235018091E1008E7F8093E10021
:100AD0008091E2008E7F8093E2008091E20080614D
:100AE0008093E20080E060E042E0A0DE1ED3FF9150
:100AF000EF91BF91AF919F918F917F916F915F9196
:100B00004F913F912F910F900FBE0F901F9018950E
:100B10009C0140914001509141014617570718F43C
:100B2000F90190E03DC06115710511F0AB01F8CFFE
:100B30008091E8008E778093E80040E050E0F0CFAD
:100B4000809139018823F1F18530F1F18091E8003D
:100B500083FF02C081E008958091E80082FD2CC0EF
:100B60008091E80080FF1CC08091F200282F30E0C7
:100B700007C081918093F100415050402F5F3F4F5B
:100B80004115510519F02830310598F390E02830CF
:100B9000310509F491E08091E8008E778093E800B8
:100BA0004115510569F6992359F606C0809139011E
:100BB000882341F0853041F08091E80082FFF6CF34
:100BC00080E0089582E0089583E008959C01611516
:100BD000710529F48091E8008B778093E800F90192
:100BE00020C080913901882361F1853061F18091C5
:100BF000E80083FF02C081E008958091E80082FF51
:100C0000F0CF06C08091F10081936150704021F0D7
:100C10008091F2008823B1F78091E8008B77809370
:100C2000E80061157105E9F606C080913901882355
:100C300041F0853041F08091E80080FFF6CF80E000
:100C4000089582E0089583E008959C014091400159
:100C5000509141014617570718F4F90190E040C040
:100C60006115710511F0AB01F8CF8091E8008E7726
:100C70008093E80040E050E0F0CF80913901882374
:100C800009F440C0853009F43FC08091E80083FF3B
:100C900002C081E008958091E80082FD2DC080911E
:100CA000E80080FF1DC08091F200282F30E008C0CE
:100CB00084918093F1003196415050402F5F3F4F17
:100CC0004115510519F02830310590F390E0283096
:100CD000310509F491E08091E8008E778093E80077
:100CE0004115510551F6992341F606C0809139010D
:100CF000882341F0853041F08091E80082FFF6CFF3
:100D000080E0089582E0089583E00895BF92CF9235
:100D1000DF92EF92FF920F931F93CF93DF93182FE1
:100D2000092F7B016A01D8DDB82E8823B1F5812F08
:100D3000902F9C01E901C114D10439F0F6018081A2
:100D40009181E81AF90AC80FD91F00E010E022C00B
:100D50008091E80085FD16C08091E8008B77809334
:100D6000E800E4D1C114D10449F0F60180819181F9
:100D7000800F911F9183808385E010C0ADDD8823B3
:100D800049F00CC08091F10089930894E108F108C2
:100D90000F5F1F4FE114F104D9F68B2DDF91CF9136
:100DA0001F910F91FF90EF90DF90CF90BF9008952B
:100DB000BF92CF92DF92EF92FF920F931F93CF9348
:100DC000DF93182F092F7B016A0186DDB82E882357
:100DD000B1F5812F902F9C01E901C114D10439F0A4
:100DE000F60180819181E81AF90AC80FD91F00E045
:100DF00010E022C08091E80085FD16C08091E800D7
:100E00008E778093E80092D1C114D10449F0F601A5
:100E100080819181800F911F9183808385E010C034
:100E20005BDD882349F00CC089918093F100089420
:100E3000E108F1080F5F1F4FE114F104D9F68B2D83
:100E4000DF91CF911F910F91FF90EF90DF90CF90A6
:100E5000BF9008950F931F93DF93CF93CDB7DEB765
:100E6000AC970FB6F894DEBF0FBECDBFEAE3F1E05A
:100E70008091F100819321E0E234F207C9F703DAAF
:100E80008091E80083FF38C180913A0130913B01A5
:100E9000353009F487C0363040F43130C9F1313093
:100EA00070F0333009F028C133C0383009F4F6C08F
:100EB000393009F405C1363009F01EC197C08038B9
:100EC00021F0823809F018C108C090913601809154
:100ED0003701882399F0926011C080913E0187709C
:100EE0008093E9008091EB0090E025E0969587954E
:100EF0002A95E1F7982F91701092E9008091E8000F
:100F0000877F8093E8009093F1001092F100D1C0A8
:100F1000882319F0823009F0EFC090E08F71907053
:100F2000009721F0029709F0E7C00CC080913C01C6
:100F3000813009F0E1C010923701333069F58093B8
:100F400037012AC080913C01882331F520913E0170
:100F5000277009F4D1C02093E9008091EB0080FF55
:100F60001BC0333021F48091EB00806213C080916C
:100F7000EB0080618093EB0081E090E002C0880F7D
:100F8000991F2A95E2F78093EA001092EA00809177
:100F9000EB0088608093EB001092E9008091E800FC
:100FA000877F8AC0882309F0A7C010913C011F7772
:100FB0000FB7F8948091E800877F8093E8006BDC9E
:100FC0008091E80080FFFCCF8091E3008078812B46
:100FD0008093E30080688093E300112311F482E0A2
:100FE00001C083E0809339010FBF86C080588230F2
:100FF00008F082C080913C0190913D0123E08C3D3E
:10100000920709F033C083E08C838AE28B837FB739
:10101000F894DE0115966EE040E050E011E2E62F14
:10102000F0E010935700849140FF03C082958F70C9
:101030006F5F8F70282F30E08A3018F0C901C79693
:1010400002C0C901C0968D939D934F5F5F4F44319D
:10105000510529F77FBF8091E800877F8093E800E2
:10106000CE0103966AE270E053DD12C060913E014A
:10107000AE014F5F5F4F88DBBC01009709F43CC0B5
:101080008091E800877F8093E80089819A81DDDD87
:101090008091E8008B778093E8002EC0803861F55E
:1010A0008091E800877F8093E800809135018093EC
:1010B000F1008091E8008E778093E800ECDB1CC0A3
:1010C0008823D1F490913C019230B0F48091E800F3
:1010D000877F8093E80090933501DDDB80913501B7
:1010E000882331F48091E30087FD02C081E001C0D4
:1010F00084E080933901FED88091E80083FF0AC024
:101100008091EB0080628093EB008091E800877F04
:101110008093E800AC960FB6F894DEBF0FBECDBF4B
:10112000CF91DF911F910F91089508951F938091A2
:101130003901882361F01091E9001092E900809153
:10114000E80083FF01C086DE17701093E9001F914D
:061150000895F894FFCFA2
:02115600010096
:00000001FF
