:1000000039C0000052C0000050C000004EC00000C7
:100010004CC000004AC0000048C0000046C00000BC
:1000200044C0000042C0000040C000003EC00000CC
:100030003CC000003AC0000038C0000036C00000DC
:1000400034C0000032C0000030C000002EC00000EC
:100050002CC000002AC00000A3C2000026C000007F
:1000600024C0000022C0000020C000001EC000000C
:100070001CC0000011241FBECFEFD2E0DEBFCDBFF9
:1000800011E0A0E0B1E0E0E9F7E002C005900D92D8
:10009000A831B107D9F711E0A8E1B1E001C01D9284
:1000A000A933B107E1F72DD071C3AACFE3E6F0E0A1
:1000B000808181608083E1E6F0E080E8808381E0F8
:1000C000808353D257985F9A3A98429A5098589A98
:1000D0005198599A52985A9A53985B9A54985C9AA4
:1000E00025982D9A26982E9A27982F9A3F98479AC6
:1000F0003E98469A3D98459A559A5D98569A5E98CC
:1001000008952F923F924F925F926F927F928F92BB
:100110009F92AF92BF92CF92DF92EF92FF920F9396
:100120001F93DF93CF9300D000D0CDB7DEB7BEDFF3
:1001300014B1B7B1AAB175B168B15BB140E028ECB8
:1001400030E05D9888EE93E0F9013197F1F701977F
:10015000D9F75E9888EE93E0F9013197F1F70197AE
:10016000D9F75D9A88EE93E0F9013197F1F701979D
:10017000D9F75E9A88EE93E0F9013197F1F701978C
:10018000D9F74F5F4430E9F614B9B7B9AAB975B9D0
:1001900068B95BB980E0772455244424439490E8FF
:1001A000292E312C4F9B02C066240FC0882359F49E
:1001B0002EEF720E3FE2371508F4D3C1552009F433
:1001C00081E0582ECEC16624639442E3471508F0BF
:1001D000739451E0551611F4E1E001C0E62D86B1AB
:1001E000482F50E0569547955695479581E090E009
:1001F00048275927417050705093190140931801B6
:1002000089B181708425682F70E070931B01609321
:100210001A0189B1282F30E036952795A1E0B0E08A
:100220002A273B272170307030931D0120931C0139
:1002300089B190E096958795969587958A279B2713
:100240008170907090931F0180931E01E13009F03E
:100250007CC05D98452B19F4672B39F40DC01092C2
:10026000030110920201672B59F0EFEFF0E0F093D9
:100270000301E093020104C03092030120920201C5
:10028000232B19F4892B39F40DC01092010110921F
:100290000001892B59F02FEF30E0309301012093BA
:1002A000000104C030920101209200011092190156
:1002B0001092180110921B0110921A0110921D0148
:1002C00010921C0110921F0110921E0186B190E045
:1002D000B6E096958795BA95E1F741E050E084271E
:1002E000952781709070909331018093300186B191
:1002F00090E0A5E096958795AA95E1F78427952744
:1003000081709070909333018093320183B190E0BB
:10031000F5E096958795FA95E1F784279527817002
:100320009070909335018093340183B190E0E6E0C2
:1003300096958795EA95E1F78427952781709070C7
:1003400090933701809336013FC05D9A86B190E06B
:1003500076E0969587957A95E1F7A1E0B0E08A2757
:100360009B278170907090932D0180932C0186B112
:1003700090E065E0969587956A95E1F78A279B2737
:100380008170907090932F0180932E0183B190E043
:1003900055E0969587955A95E1F78A279B278170B6
:1003A0009070909325018093240183B190E046E002
:1003B000969587954A95E1F78A279B2781709070DB
:1003C000909327018093260109B110E033E0169540
:1003D00007953A95E1F7E1E0F0E00E271F2701705D
:1003E00010701093210100932001A9B0BB2424E0D8
:1003F000B694A7942A95E1F7AE26BF26F1E0AF2286
:10040000BB24B0922301A092220183B0992487FCDF
:100410009094809490948824990C881C99249092AC
:10042000290180922801E6B12E2F332727FD309530
:10043000209530952227330F221F33273A832983B3
:1004400030932B0120932A0180E29EE40197F1F77B
:100450004DB75EB7465150400FB6F8945EBF0FBE21
:100460004DBFADB7BEB7119680911C0190911D0193
:100470009C838B8360911E0170911F014091180134
:100480005091190120911A0130911B01E090260131
:10049000F0902701C0902401D090250189819A8194
:1004A000EDB7FEB792838183E0912C01F0912D018D
:1004B0001396FC93EE931297E0913001F091310185
:1004C0001596FC93EE931497E0912E01F0912F0175
:1004D0001796FC93EE931697E0913201F091330159
:1004E0001996FC93EE931897E0913401F091350141
:1004F0001B96FC93EE931A97E0913601F091370129
:100500001D96FC93EE931C97E0910001F091010180
:100510001F96FC93EE931E97E0910201F091030168
:100520005196FC93EE935097E0910401F0910501F0
:100530005396FC93EE935297E0910601F0910701D8
:100540005596FC93EE9354978B819C817FD0862D9A
:10055000ADB7BEB756960FB6F894BEBF0FBEADBFCF
:1005600021CE66246394772433CE239A2B9A249A3F
:100570002C9A2098289A22982A9A2198299A8CB500
:1005800088608CBD8CB584608CBD8CB580648CBD5E
:100590008CB580628CBD8CB580688CBD78940895D4
:1005A0001F920F920FB60F9211248F939F93EF9388
:1005B000FF938EB58093100180913801882321F438
:1005C00080911001813031F49091380180911101B6
:1005D000981720F1109238018FEF8EBD2EC08091B8
:1005E0001001823451F0833441F484E191E090931E
:1005F00013018093120183E007C088E091E090939B
:1006000013018093120188E0809311012C9880914E
:1006100038018F5F809338012C9A0FC08091380188
:10062000E0911201F0911301E80FF11D80818EBD60
:1006300080913801813051F7D2CFFF91EF919F9196
:100640008F910F900FBE0F901F9018953F924F9271
:100650005F926F927F928F929F92AF92BF92CF9252
:10066000DF92EF92FF920F931F93DF93CF93CDB75B
:10067000DEB73C014AA03CA0BEA158A48E8D9F8D40
:10068000892B11F0E0E001C0E2E088A199A1892B5B
:1006900011F0A0E001C0A4E08C899D89892B11F0A4
:1006A000F0E001C0F8E0452B11F050E001C050E14E
:1006B000672B11F040E001C040E2232B11F020E055
:1006C00001C020E4672811F090E001C090E880E0CC
:1006D000892809F481E0E82BEA2BEF2BE52BE42BAA
:1006E000E22BE92BE0930A018C8D9D8D892B11F073
:1006F00020E001C022E08E899F89892B11F0F0E073
:1007000001C0F4E08A8D9B8D892B11F0E0E001C0DF
:10071000E8E0EF2811F070E001C070E1CD2811F0A1
:1007200060E001C060E2AB2811F050E001C050E48D
:10073000012B11F040E001C040E830E0888D998D38
:10074000892B09F431E0232B2F2B2E2B272B262B43
:10075000252B242B20930B01B0930C0150920D01FB
:1007600040920E0130920F01CF91DF911F910F91B6
:10077000FF90EF90DF90CF90BF90AF909F908F90C1
:100780007F906F905F904F903F900895F894FFCFC7
:100790007F007F007F007F00735AFFFF7F7F7F7F96
:0807A000FF080801735A010073
:040000050080012A4C
:00000001FF
