:10000000ACC00000C5C00000C3C00000C1C00000FB
:10001000BFC00000BDC00000BBC00000B9C00000F0
:10002000B7C00000B5C00000B3C00000A1C400000C
:10003000FFC40000ADC00000ABC00000A9C00000BC
:10004000A7C00000A5C00000A3C00000A1C0000020
:100050009FC000009DC000009BC0000099C0000030
:1000600097C0000095C0000093C0000091C0000040
:100070008FC0000000010000AB001200020000BDB4
:10008000002200220000DF003F00210000CF000915
:10009000000300001E01040103090422010A0203F7
:1000A00009042E012A000001C126001201000200ED
:1000B000000020C0167E0400010102000109022296
:1000C00000010100C0320904000001030001000921
:1000D0002111010001223F000705830320000105D3
:1000E000010906A101050719E029E7150025017599
:1000F00001950881027508950181030508190129F8
:100100000575019505910275039501910305071980
:100110000029FF150025FF7508951E8100C0040306
:1001200009040A034B0041004400450000002A0373
:1001300055005300420020004B006500790062002A
:100140006F00610072006400200045006E006300D3
:100150006F00640065007200000011241FBECFEF25
:10016000D2E0DEBFCDBF11E0A0E0B1E0EEE3FDE004
:1001700002C005900D92AC30B107D9F711E0ACE0A8
:10018000B1E001C01D92A033B107E1F73CD0D5C565
:1001900037CF019719F021E130E102C02DE13BE1B9
:1001A00080E091E0982F4130510529F462307105CB
:1001B000E1F4922F0FC04230510521F463307105F4
:1001C000C9F417C04330510529F461307105B9F401
:1001D00015C0932F80910C01E82FF0E0E25FFE4FF5
:1001E00090838F5F80930C0108956330710591F7C0
:1001F000F0CF922F6130710569F7EBCF922F62300B
:10020000710541F7E6CF2F923F924F925F926F9226
:100210007F928F929F92AF92BF92CF92DF92EF9296
:10022000FF920F931F93DF93CF93CDB7DEB7EC9779
:100230000FB6F894DEBF0FBECDBF20E8209361005B
:100240001092610080E090E00FB6F8942093610076
:10025000809361000FBE14B817B81AB88FEF85B934
:1002600088B98BB914B1B7B1AAB175B168B15BB136
:1002700080E68AB940E020E931E05D9880E491E0D1
:10028000F9013197F1F70197D9F75E9880E491E091
:10029000F9013197F1F70197D9F75D9A80E491E080
:1002A000F9013197F1F70197D9F75E9A80E491E06F
:1002B000F9013197F1F70197D9F74F5F4430E9F62B
:1002C00014B9B7B9AAB975B968B95BB900E010E05B
:1002D00085E1E82EF12CEC0EFD1EC80126D5F701B4
:1002E000E00FF11F80830F5F1F4F08321105A9F740
:1002F000F0D203D38823E9F390E0EE24AA24B2E0FD
:10030000CB2EA2E0DA2EFAE0FF2E3E010894611C0B
:10031000711CE5E14E2E512C4C0E5D1E7EE2872EA7
:100320006DE2362E01C09B2D86B18470898389B120
:1003300081708A8389B182708B8389B184708C8348
:1003400089B188708D8389B180718E8389B1807203
:100350008F8389B18074888783B18170898783B1E5
:1003600082708A8783B184708B8783B188708C8711
:1003700083B180718D8783B180728E8783B18074E1
:100380008F8783B18078888B86B18078898B86B19E
:1003900080748A8B86B180728B8B86B180718C8BD6
:1003A0004F9B02C0BB2410C0992361F48EEFE80E6E
:1003B00097EF9E1508F487C280E0AA2009F481E037
:1003C000A82E81C2BB24B3948AEF8E1508F0E39463
:1003D00091E0A91611F09B2C02C0992493941092DD
:1003E0000C0100E010E050E4252EF301E00FF11FB6
:1003F0008081882309F042C281E0981611F0802F95
:1004000002C0802F8C5EF201E80FF11D20812223B3
:1004100009F434C2213041F480910C01E82FF0E05E
:10042000E25FFE4F9EE163C1223041F480910C01F6
:10043000E82FF0E0E25FFE4F92E259C1233041F431
:1004400080910C01E82FF0E0E25FFE4F92E54FC192
:10045000243041F480910C01E82FF0E0E25FFE4F80
:1004600091E545C1253041F480910C01E82FF0E081
:10047000E25FFE4F90E53BC1263041F480910C01D4
:10048000E82FF0E0E25FFE4F9FE431C1273041F4F6
:1004900080910C01E82FF0E0E25FFE4F90EE27C163
:1004A000283041F480910C01E82FF0E0E25FFE4F2C
:1004B00092EE1DC1293041F480910C01E82FF0E04B
:1004C000E25FFE4F9CE213C12A3041F480910C019F
:1004D000E82FF0E0E25FFE4F91EE09C12B3041F4CE
:1004E00080910C01E82FF0E0E25FFE4F96E0FFC044
:1004F0002C3041F480910C01E82FF0E0E25FFE4FD8
:1005000099E1F5C02D3041F480910C01E82FF0E025
:10051000E25FFE4F9FE1EBC02E3041F480910C0171
:10052000E82FF0E0E25FFE4F93E2E1C02F3041F4AC
:1005300080910C01E82FF0E0E25FFE4F95E1D7C01B
:10054000203141F480910C01E82FF0E0E25FFE4F92
:1005500099E0CDC0213141F480910C01E82FF0E009
:10056000E25FFE4F97E0C3C0223141F480910C015D
:10057000E82FF0E0E25FFE4F9AE0B9C0233141F48A
:1005800080910C01E82FF0E0E25FFE4F94E0AFC0F5
:10059000243141F480910C01E82FF0E0E25FFE4F3E
:1005A00096E1A5C0253141F480910C01E82FF0E0DF
:1005B000E25FFE4F94E19BC0263141F480910C0133
:1005C000E82FF0E0E25FFE4F9AE191C0273141F45D
:1005D00080910C01E82FF0E0E25FFE4F9CE087C0C5
:1005E000283141F480910C01E82FF0E0E25FFE4FEA
:1005F0009EE07DC0293141F480910C01E82FF0E0AC
:10060000E25FFE4F99E273C02A3141F480910C0100
:10061000E82FF0E0E25FFE4F9BE269C02B3141F42E
:1006200080910C01E82FF0E0E25FFE4F93E15FC0A4
:100630002C3141F480910C01E82FF0E0E25FFE4F95
:100640002082CEC02D3141F480910C01E82FF0E0E2
:10065000E25FFE4F9CE34BC02E3141F480910C01D0
:10066000E82FF0E0E25FFE4F97E141C02F3109F43F
:1006700088C0203209F48FC0213241F480910C01EE
:10068000E82FF0E0E25FFE4F95E431C0223241F402
:1006900080910C01E82FF0E0E25FFE4F9AE327C063
:1006A000233241F480910C01E82FF0E0E25FFE4F2D
:1006B0009FE31DC0243241F480910C01E82FF0E04B
:1006C000E25FFE4F91E413C0253241F480910C01AA
:1006D000E82FF0E0E25FFE4F92E409C0263249F4D1
:1006E00080910C01E82FF0E0E25FFE4F94E49083EC
:1006F00077C0273241F480910C01E82FF0E0E25FEF
:10070000FE4F9DE3F4CF283241F480910C01E82F95
:10071000F0E0E25FFE4F93E4EACF293241F48091AA
:100720000C01E82FF0E0E25FFE4F99E4E0CF2A32BF
:1007300041F480910C01E82FF0E0E25FFE4F20834E
:100740004FC02B3241F480910C01E82FF0E0E25FC2
:10075000FE4F9BE3CCCF2C3241F480910C01E82F6B
:10076000F0E0E25FFE4F96E2C2CF2D3241F480917D
:100770000C01E82FF0E0E25FFE4F97E2B8CF2E3297
:1007800041F480910C01E82FF0E0E25FFE4F3082EF
:1007900027C02F3241F480910C01E82FF0E0E25F96
:1007A000FE4F80821DC0203341F480910C01E82F60
:1007B000F0E0E25FFE4F98E29ACF213351F022330E
:1007C00041F0233331F0243321F0253311F0263367
:1007D00051F480910C01E82FF0E0E25FFE4F1082AF
:1007E0008F5F80930C0182E08F1528F5223371F022
:1007F0002333B1F02133F1F481E090E061E070E067
:100800004C2D50E0C6DCCC24C39461C081E090E064
:1008100062E070E04C2D50E0BCDC42E0C42E57C0DA
:1008200081E090E063E070E04C2D50E0B2DC33E01A
:10083000C32E4DC0FF24253371F02633B1F024338D
:10084000E9F482E090E061E070E04D2D50E0A1DC41
:10085000DD24D39413C082E090E062E070E04D2D7F
:1008600050E097DC22E0D22E09C082E090E063E005
:1008700070E04D2D50E08DDC93E0D92E0F5F1F4FBF
:100880000431110509F0B1CD80910C0106C0E82FAB
:10089000F0E0E25FFE4F10828F5F8E31C0F38093F5
:1008A0000C012ED08CED90E020E931E0F901319778
:1008B000F1F70197D9F7F3949BE0F91609F033CDDE
:1008C0008AE0F82E30CDBB24B394EE2480CDFF24F3
:1008D000D5CF80EA8093D80086E089BD09B400FEB8
:1008E000FDCF80E88093D8001092E00010922D0197
:1008F0008CE08093E2007894089580912D01089512
:1009000080912D01882391F12FB7F89483E0809393
:10091000E9009091E4009E5C33E08091E80085FD61
:100920000EC02FBF80912D01882301F18091E4003A
:100930008917E1F02FB7F8943093E900EECF80915A
:100940000D018093F1001092F100EEE0F1E0819151
:100950008093F10081E0EC32F807C9F78AE38093D5
:10096000E80010922E012FBF80E008958FEF0895C8
:100970001F920F920FB60F9211242F938F939F9374
:10098000EF93FF938091E1001092E100982F83FF95
:100990000FC01092E90081E08093EB001092EC0010
:1009A00082E28093ED0088E08093F00010922D01A8
:1009B00092FF34C080912D01882381F1209109019B
:1009C000222361F180912F018F5F80932F0190E0AE
:1009D00083709070892B11F583E08093E9008091FA
:1009E000E80085FF1BC080912E018F5F80932E0150
:1009F0008217A1F410922E0180910D018093F100D5
:100A00001092F100EEE0F1E081918093F10081E03D
:100A1000EC32F807C9F78AE38093E800FF91EF9181
:100A20009F918F912F910F900FBE0F901F9018954F
:100A30001F920F920FB60F9211240F931F932F93B3
:100A40003F934F935F936F937F938F939F93AF9356
:100A5000BF93EF93FF931092E9008091E80083FF2A
:100A60004EC14091F1003091F1008091F100682F6A
:100A700070E02091F100922F80E0682B792B80911B
:100A8000F100A82FB0E02091F100922F80E0A82B78
:100A9000B92B1091F1000091F10082EF8093E800F2
:100AA000363009F05AC02BE730E0A90145505040DC
:100AB000F9013797859194918617970701F5FA0107
:100AC000859194918A179B07D1F49A012E5F3F4F2D
:100AD000F901659174912E5F3F4FF9014491212FE7
:100AE00030E0902F80E0282B392B2F3F310519F073
:100AF00010F02FEF30E0241758F4422F09C0295F7F
:100B00003F4F495F5F4FF0E02C3A3F0789F6F7C04F
:100B10005EEF8091E800282F30E0C9018570907069
:100B2000892BB9F322FDEEC0342F413208F030E2B8
:100B3000232FCB0106C0FC010196E491E093F10064
:100B400021502223C1F7630F711D431B5093E8000E
:100B50004423F9F63032E9F2D5C0353061F48EEF36
:100B60008093E8008091E80080FFFCCF862F8068AA
:100B70008093E300C7C0393031F5442309F071C0D8
:100B800060932D018EEF8093E80085EA90E021E0EC
:100B90002093E900FC010196E491E093EB00EE2341
:100BA00069F0AC014F5F5F4FFC0184918093EC00D2
:100BB000CA010196FA0134913093ED002F5F253080
:100BC00039F78EE149C0383051F4403809F049C056
:100BD0008091E80080FFFCCF80912D016EC033230F
:100BE000D1F48091E80080FFFCCF423811F080E022
:100BF0000DC0A093E9008091EB0090E025E0969570
:100C000087952A95E1F781701092E9008093F100B1
:100C10001092F10070C0313011F0333011F54230D4
:100C200001F561157105E9F42A2F2F77822F815084
:100C30008430B8F48EEF8093E8002093E9003330DD
:100C400009F45DC089E18093EB0081E090E002C08F
:100C5000880F991F2A95E2F78093EA001092EA0024
:100C600051C0AB2B09F04BC0413A51F53130A1F4E2
:100C70008091E80080FFFCCF80910D018093F1000E
:100C80001092F100EEE0F1E081918093F10081E0BB
:100C9000EC32F807C9F72FC0323039F48091E80000
:100CA00080FFFCCF8091090108C0333041F580916D
:100CB000E80080FFFCCF80910A018093F1001BC007
:100CC0004132E9F4393061F48091E80082FFFCCFD1
:100CD0008091F10080932C018BEF8093E8000BC092
:100CE0003A3029F47093090110922E0104C03B3070
:100CF00031F460930A018EEF8093E80003C081E233
:100D00008093EB00FF91EF91BF91AF919F918F91F5
:100D10007F916F915F914F913F912F911F910F9113
:100D20000F900FBE0F901F901895F999FECF92BDAE
:0E0D300081BDF89A992780B50895F894FFCFF9
:0C0D3E004B45595F4E4F4E45007D0100B3
:00000001FF
