:10000000BCC00000D5C00000D3C00000D1C00000BB
:10001000CFC00000CDC00000CBC00000C9C00000B0
:10002000C7C00000C5C00000C3C00000F6C4000087
:10003000BFC00000BDC00000BBC00000B9C00000D0
:10004000B7C00000B5C00000B3C00000B1C00000E0
:10005000AFC00000ADC00000ABC00000A9C00000F0
:10006000A7C00000A5C00000A3C00000A1C0000000
:100070009FC0000005010905A101150025013500FB
:1000800045017501950D05091901290D8102950399
:10009000810105012507463B017504950165140999
:1000A00039814265009501810126FF0046FF000964
:1000B000300931093209357508950481020600FFBF
:1000C00009200921092209230924092509260927CC
:1000D00009280929092A092B950C81020A2126954C
:1000E00008B102C01201100100000040C410C0821B
:1000F0000001010200010902220001010080320911
:100100000400000103000000092111010001227018
:10011000000705810340000A040309041A036B0069
:1001200061006400650076006900630065002E00D0
:1001300063006F006D00000040034B00410044006D
:10014000450020002D0020004B00690063006B007B
:1001500020004100730073002000440079006E000D
:1001600061006D0069006300200045006E006300BF
:100170006F00640065007200000011241FBECFEF05
:10018000D2E0DEBFCDBF11E0A0E0B1E0E6E8F0E1F3
:1001900002C005900D92AA30B107D9F711E0AAE08C
:1001A000B1E001C01D92AA33B107E1F702D069C7DF
:1001B00027CFAF92BF92CF92DF92EF92FF920F9331
:1001C0001F93CF93DF9310E81093610010926100AA
:1001D00014B817B81AB88FEF85B988B98BB981E010
:1001E000E2D210931D0110931E0110931F01109372
:1001F000200186B18093150189B18093170186B1E2
:100200008093190189B18093180186B180931401FC
:1002100089B18093160198E0D92E11E084E0C82EB0
:1002200003E0B02EB5E0AB2E07E0A2E0FA2EF6E038
:10023000EF2EC0EBD4E0A1D2D0921C0110921A0193
:1002400080911B0110922801109227011092260123
:10025000109225011092290110922A0110922B016F
:1002600010922C01807E80931B014F9903C0109344
:100270000F0102C010920F0186B1909115018927DC
:1002800082FD06C099B180911701892780FF65C062
:1002900010920D01329902C010930D01489905C0CA
:1002A00080910D018E5F80930D0140910D014423DB
:1002B00029F480910A01823029F514C0413029F4D3
:1002C00080910A01882371F02EC0433029F4809177
:1002D0000A01813009F506C0423091F480910A018B
:1002E0008330A9F430911D0120910001832F90E00B
:1002F000820F911D8F3F910509F034F5230F22C025
:10030000442341F480910A018130F1F410C0882324
:1003100071F01AC0433029F480910A018230A1F4AF
:1003200006C0413089F480910A01833069F420913C
:100330001D0130910001822F90E0831B910997FDF0
:1003400003C0231B20931D0140930A0186B18093B3
:10035000150189B18093170119C080910F01813077
:10036000A9F480910E01882389F490911D0197FDD5
:1003700006C080910101890F80931D0107C091384B
:1003800028F080910101981B90931D018091180124
:10039000482F50E089B19A01369527958695822796
:1003A00080FD0AC089B15695479556954795869523
:1003B0008695842780FF65C010920D01499902C07F
:1003C00010930D014A9905C080910D018E5F8093B5
:1003D0000D0140910D01442329F480910B018230DD
:1003E00029F514C0413029F480910B01882371F064
:1003F0002EC0433029F480910B01813009F506C0ED
:10040000423091F480910B018330A9F430911E01A8
:1004100020910001832F90E0820F911D8F3F910565
:1004200009F034F5230F22C0442341F480910B01DD
:100430008130F1F410C0882371F01AC0433029F4E0
:1004400080910B018230A1F406C0413089F4809183
:100450000B01833069F420911E0130910001822F3D
:1004600090E0831B910997FD03C0231B20931E017D
:1004700040930B0186B18093190189B180931801D3
:1004800019C080910F018130A9F480910E01882359
:1004900089F490911E0197FD06C080910101890F9A
:1004A00080931E0107C0913828F080910101981BAC
:1004B00090931E0180911601482F50E089B19A0156
:1004C00063E0369527956A95E1F78695869586953A
:1004D000822780FD0BC089B194E0569547959A9587
:1004E000E1F782958F70842780FF65C010920D011F
:1004F0004B9902C010930D014C9905C080910D01DC
:100500008E5F80930D0140910D01442329F4809169
:100510000C01823029F514C0413029F480910C017E
:10052000882371F02EC0433029F480910C01813072
:1005300009F506C0423091F480910C018330A9F492
:1005400030911F0120910001832F90E0820F911DB7
:100550008F3F910509F034F5230F22C0442341F465
:1005600080910C018130F1F410C0882371F01AC021
:10057000433029F480910C018230A1F406C041304F
:1005800089F480910C01833069F420911F0130912E
:100590000001822F90E0831B910997FD03C0231B6C
:1005A00020931F0140930C0186B18093140189B1FF
:1005B0008093160119C080910F018130A9F48091B8
:1005C0000E01882389F490911F0197FD06C0809148
:1005D0000101890F80931F0107C0913828F0809195
:1005E0000101981B90931F0180910E018F5F8093F2
:1005F0000E01843008F46DC04D9902C0E0921C01D8
:100600004E9902C0F0921C0118990CC04D9903C07C
:1006100000931C0107C04E9903C010931C0102C037
:1006200010921C0119990CC04D9903C0A0921C0195
:1006300007C04E9903C0B0921C0102C0C0921C01B9
:100640001A9905C080911A01816080931A011B9943
:1006500005C080911A01826080931A011C9905C01F
:1006600080911A01846080931A011D9905C08091C0
:100670001A01886080931A011E9905C080911A01A1
:10068000806180931A011F9905C080911A018062D0
:1006900080931A01379905C080911A018064809374
:1006A0001A01369905C080911A01806880931A0159
:1006B000359905C080911B01816080931B0134999D
:1006C00005C080911B01826080931B019ED0109217
:1006D0000E01CE010197F1F7AECDDA019330B1F002
:1006E000943028F4913041F0923079F50AC091327B
:1006F00011F1923251F524C0E4EEF0E022E130E055
:1007000028C0E6EFF0E022E230E023C0813049F07B
:10071000813018F08230C9F40AC0E8E1F1E0849138
:1007200003C0ECE1F1E08491282F30E012C0E8E34F
:10073000F1E08491F9CFE8E0F1E029E030E009C090
:10074000E4E7F0E020E730E004C0E0E0F0E020E0A3
:1007500030E0ED93FC93C9010895E0911001F09110
:100760001101309709F009950895E0911201F09177
:100770001301309709F009950895A895089583E12C
:10078000EAE1F1E0DF011D928A95E9F788E08093C4
:100790001C0180E880931D0180931E0180931F013E
:1007A000809320010895882361F02FE088E190E094
:1007B0000FB6F894A895809360000FBE2093600058
:1007C00008C088E10FB6F894809360001092600032
:1007D0000FBED5DF13D17894089580913101843014
:1007E00099F481E08093E9008091E80080FF0CC0DB
:1007F0008AE191E063E170E040E050E06FD28091E7
:10080000E8008E778093E8000895E7DF25C48091A3
:100810003301813051F580913201813A31F5809177
:100820003401909135018050934081F48091E8002B
:10083000877F8093E80082E091E068E070E08FD1EC
:100840008091E8008B778093E80008958091E8001C
:10085000877F8093E8008AE191E063E170E07FD1D7
:100860008091E8008B778093E800089581E061EC47
:1008700042E300C0382F282F2EC0822F8F70809324
:10088000E900231721F4762F942F50E006C07091D1
:10089000EC009091ED005091F00091FF1BC0809111
:1008A000EB008E7F8093EB008091ED008D7F809335
:1008B000ED008091EB0081608093EB007093EC0081
:1008C0009093ED005093F0008091EE0087FD02C000
:1008D00080E008952F5F253080F23F703093E9006B
:1008E00081E008958091320188239CF404C08091B6
:1008F00031018823B9F08091E80082FFF8CF809120
:10090000E8008B778093E800089580913101882377
:1009100049F08091E80080FFF8CF8091E8008E7761
:100920008093E80008954091E4005091E50024E6AA
:100930008091EC0080FF24C08091E80080FD1EC003
:1009400080913101882311F482E00895853011F4FB
:1009500083E008958091EB0085FF02C081E0089557
:100960008091E4009091E5008417950709F3222314
:1009700011F484E008952150AC01DACF80E00895AD
:100980008091E80082FFDCCFF9CF41D043D0809145
:10099000D8008F778093D8008091D80080688093AA
:1009A000D8008091D8008F7D8093D80084E089BDE5
:1009B00086E089BD09B400FEFDCF1092310110928E
:1009C0002D0110922F0110922E0180E060E042E391
:1009D00051DF8091E1008E7F8093E1008091E20001
:1009E00081608093E2008091E20088608093E20061
:1009F0008091E0008E7F8093E0000895E3E6F0E0D0
:100A000080818E7F808381E080933001BECF109201
:100A1000E20008951092E10008951F920F920FB620
:100A20000F9211242F933F934F935F936F937F9374
:100A30008F939F93AF93BF93EF93FF938091E100C8
:100A400082FF0AC08091E20082FF06C08091E1002F
:100A50008B7F8093E100FFD28091E10080FF17C07F
:100A60008091E20080FF13C08091E2008E7F80932E
:100A7000E2008091E20080618093E2008091D800E2
:100A800080628093D80019BC109231016EDE809193
:100A9000E10084FF2DC08091E20084FF29C084E042
:100AA00089BD86E089BD09B400FEFDCF8091D800E4
:100AB0008F7D8093D8008091E1008F7E8093E1004C
:100AC0008091E2008F7E8093E2008091E20081605D
:100AD0008093E20080912D01882331F48091E3001E
:100AE00087FD02C081E001C084E08093310135DEE2
:100AF0008091E10083FF22C08091E20083FF1EC04D
:100B00008091E100877F8093E10082E08093310152
:100B100010922D018091E1008E7F8093E100809101
:100B2000E2008E7F8093E2008091E20080618093FA
:100B3000E20080E060E042E39DDE8DD2FF91EF9124
:100B4000BF91AF919F918F917F916F915F914F91E5
:100B50003F912F910F900FBE0F901F9018959C0101
:100B600040913801509139014617570718F4F9019F
:100B700090E03DC06115710511F0AB01F8CF809197
:100B8000E8008E778093E80040E050E0F0CF80915D
:100B900031018823F1F18530F1F18091E80083FF84
:100BA00002C081E008958091E80082FD2CC0809110
:100BB000E80080FF1CC08091F200282F30E007C0C1
:100BC00081918093F100415050402F5F3F4F41157C
:100BD000510519F02034310598F390E020343105A7
:100BE00009F491E08091E8008E778093E800411548
:100BF000510569F6992359F606C080913101882381
:100C000041F0853041F08091E80082FFF6CF80E02E
:100C1000089582E0089583E008959C014091380191
:100C2000509139014617570718F4F90190E040C078
:100C30006115710511F0AB01F8CF8091E8008E7756
:100C40008093E80040E050E0F0CF809131018823AC
:100C500009F440C0853009F43FC08091E80083FF6B
:100C600002C081E008958091E80082FD2DC080914E
:100C7000E80080FF1DC08091F200282F30E008C0FE
:100C800084918093F1003196415050402F5F3F4F47
:100C90004115510519F02034310590F390E02034CE
:100CA000310509F491E08091E8008E778093E800A7
:100CB0004115510551F6992341F606C08091310145
:100CC000882341F0853041F08091E80082FFF6CF23
:100CD00080E0089582E0089583E00895BF92CF9266
:100CE000DF92EF92FF920F931F93CF93DF93182F12
:100CF000092F7B016A0117DEB82E8823B1F5812FF9
:100D0000902F9C01E901C114D10439F0F6018081D2
:100D10009181E81AF90AC80FD91F00E010E022C03B
:100D20008091E80085FD16C08091E8008E77809361
:100D3000E80092D1C114D10449F0F601808191817B
:100D4000800F911F9183808385E010C0ECDD8823A4
:100D500049F00CC089918093F1000894E108F108F2
:100D60000F5F1F4FE114F104D9F68B2DDF91CF9166
:100D70001F910F91FF90EF90DF90CF90BF9008955B
:100D80000F931F93DF93CF93CDB7DEB7AC970FB61A
:100D9000F894DEBF0FBECDBFE2E3F1E08091F10039
:100DA000819321E0EA33F207C9F731DD8091E80051
:100DB00083FF38C18091320130913301353009F41D
:100DC00087C0363040F43130C9F1313070F0333003
:100DD00009F028C133C0383009F4F6C0393009F4BD
:100DE00005C1363009F01EC197C0803821F0823825
:100DF00009F018C108C090912E0180912F0188231D
:100E000099F0926011C0809136018F708093E90053
:100E10008091EB0090E025E0969587952A95E1F783
:100E2000982F91701092E9008091E800877F80935D
:100E3000E8009093F1001092F100D1C0882319F0DE
:100E4000823009F0EFC090E08F719070009721F030
:100E5000029709F0E7C00CC080913401813009F09D
:100E6000E1C010922F01333069F580932F012AC021
:100E700080913401882331F5209136012F7009F4D7
:100E8000D1C02093E9008091EB0080FF1BC033307C
:100E900021F48091EB00806213C08091EB008061AF
:100EA0008093EB0081E090E002C0880F991F2A95A3
:100EB000E2F78093EA001092EA008091EB008860EC
:100EC0008093EB001092E9008091E800877F8AC050
:100ED000882309F0A7C0109134011F770FB7F89449
:100EE0008091E800877F8093E800FCDC8091E80037
:100EF00080FFFCCF8091E3008078812B8093E3001A
:100F000080688093E300112311F482E001C083E044
:100F1000809331010FBF86C08058823008F082C0B4
:100F2000809134019091350123E08C3D920709F0C6
:100F300033C083E08C838AE28B837FB7F894DE0131
:100F400015966EE040E050E011E2E62FF0E01093DD
:100F50005700849140FF03C082958F706F5F8F7040
:100F6000282F30E08A3018F0C901C79602C0C901A5
:100F7000C0968D939D934F5F5F4F4431510529F784
:100F80007FBF8091E800877F8093E800CE010396C1
:100F90006AE270E0E4DD12C060913601AE014F5F9D
:100FA0005F4F9BDBBC01009709F43CC08091E800D7
:100FB000877F8093E80089819A812FDE8091E80005
:100FC0008B778093E8002EC0803861F58091E8002F
:100FD000877F8093E80080912D018093F1008091BC
:100FE000E8008E778093E8007DDC1CC08823D1F474
:100FF000909134019230B0F48091E800877F809323
:10100000E80090932D016EDC80912D01882331F44E
:101010008091E30087FD02C081E001C084E08093FD
:10102000310124DC8091E80083FF0AC08091EB004D
:1010300080628093EB008091E800877F8093E800D6
:10104000AC960FB6F894DEBF0FBECDBFCF91DF9147
:101050001F910F91089508951F9380913101882366
:1010600071F01091E9008091EC001092E9008091FC
:10107000E80083FF01C084DE1F701093E9001F9118
:061080000895F894FFCF73
:0A108600010121260107000000000F
:00000001FF
