:10000000B3C00000CCC00000CAC00000C8C00000DF
:10001000C6C00000C4C00000C2C00000C0C00000D4
:10002000BEC00000BCC00000BAC00000B3C30000E6
:1000300011C40000B4C00000B2C00000B0C0000095
:10004000AEC00000ACC00000AAC00000A8C0000004
:10005000A6C00000A4C00000A2C00000A0C0000014
:100060009EC000009CC000009AC0000098C0000024
:1000700096C0000000010000AB001200020000BDAD
:10008000002200220000DF003F00210000CF000915
:10009000000300001E0104010309042201180203E9
:1000A00009043C012A000001C126001201000200DF
:1000B000000020C0167E0400010102000109022296
:1000C00000010100C0320904000001030001000921
:1000D0002111010001223F000705830320000105D3
:1000E000010906A101050719E029E7150025017599
:1000F00001950881027508950181030508190129F8
:100100000575019505910275039501910305071980
:100110000029FF150025FF7508951E8100C0040306
:100120000904180344006500670065006E00610063
:10013000740072006F006E00730000002A03550007
:100140005300420020004B006500790062006F0000
:10015000610072006400200045006E0063006F00C3
:10016000640065007200000011241FBECFEFD2E0D2
:10017000DEBFCDBF11E0A0E0B1E0E2E5FBE002C0F0
:1001800005900D92A230B107D9F711E0A2E0B1E0DD
:1001900001C01D92AF34B107E1F702D0D8C430CF0F
:1001A0002F923F924F925F926F927F928F929F9287
:1001B000AF92BF92CF92DF92EF92FF920F931F9375
:1001C000DF93CF9300D000D00F92CDB7DEB78AE196
:1001D000809326018BE18093270184E0809328019E
:1001E00087E08093290110922A0110922B0110922E
:1001F0002C0110922D0110922E0110922F018CE1F2
:10020000809330018BE08093310138E130933201EB
:100210008DE0809333018CE0809334018EE08093F5
:10022000350182E1809336018FE08093370110928F
:1002300038011092390188E080933A018DE1809372
:100240003B0184E180933C0186E080933D01109264
:100250003E0110923F011092400110924101109214
:1002600042011092430187E18093440185E180932C
:10027000450189E08093460181E18093470180E157
:100280008093480183E1809349018AE080934A0189
:1002900089E180934B0110924C0110924D0120E8AE
:1002A000209361001092610014B817B810E61AB9D3
:1002B0008FEF85B988B98BB980E090E00FB6F894DC
:1002C00020936100809361000FBE84B7877F84BF55
:1002D0000FB6F89430936000109260000FBE0BD2FE
:1002E00004B1B7B1AAB175B168B15BB11AB940E058
:1002F00020E931E05D9880E491E0F9013197F1F770
:100300000197D9F75E9880E491E0F9013197F1F710
:100310000197D9F75D9A80E491E0F9013197F1F7FF
:100320000197D9F75E9A80E491E0F9013197F1F7EE
:100330000197D9F74F5F4430E9F604B9B7B9AAB9C4
:1003400075B968B95BB9EBD18823E9F34FEFAFEF2B
:100350005FEF03B116B189B1898310920201612F59
:1003600070E0FB01E074F070FD83EC8316FD09C0C2
:10037000A6FF07C08091370180930401F1E0F0935C
:10038000020117FD0EC0A7FF0CC080910201E82FEB
:10039000F0E0EC5FFE4F9091360190838F5F809389
:1003A000020107FD0EC047FF0CC080910201E82F3B
:1003B000F0E0EC5FFE4F9091350190838F5F80936A
:1003C0000201202F30E0C901807490709B838A83E2
:1003D00006FD0EC046FF0CC080910201E82FF0E040
:1003E000EC5FFE4F9091340190838F5F8093020108
:1003F00090E2292E312C2222332225FD0EC045FF0A
:100400000CC080910201E82FF0E0EC5FFE4F90916C
:10041000330190838F5F8093020180E1482E512C3D
:100420004222532224FD0EC044FF0CC080910201E1
:10043000E82FF0E0EC5FFE4F9091320190838F5FE8
:1004400080930201B8E06B2E712C6222732223FD8F
:100450000EC043FF0CC080910201E82FF0E0EC5F7A
:10046000FE4F9091310190838F5F80930201F4E001
:100470008F2E912C8222932222FD0EC042FF0CC0AF
:1004800080910201E82FF0E0EC5FFE4F9091300187
:1004900090838F5F809302019981292F30E0E4E0FF
:1004A000AE2EB12CA222B32292FD0EC052FF0CC080
:1004B00080910201E82FF0E0EC5FFE4F909129015E
:1004C00090838F5F8093020192E0C92ED12CC222CB
:1004D000D32221FD0EC051FF0CC080910201E82FF4
:1004E000F0E0EC5FFE4F9091280190838F5F809346
:1004F000020181E0E82EF12CE222F32220FD0EC061
:1005000050FF0CC080910201E82FF0E0EC5FFE4F3D
:100510009091270190838F5F809302019B0124704B
:10052000307062FD0EC0A2FF0CC080910201E82F66
:10053000F0E0EC5FFE4F9091260190838F5F8093F7
:100540000201EC81FD81EF2B71F0A6FD0CC08091C2
:100550000201E82FF0E0EC5FFE4F90914B01908399
:100560008F5F8093020117FF0EC0A7FD0CC0809122
:100570000201E82FF0E0EC5FFE4F90914A0190837A
:100580008F5F8093020107FF0EC047FD0CC0809172
:100590000201E82FF0E0EC5FFE4F9091490190835B
:1005A0008F5F809302018A819B81892B71F046FDC8
:1005B0000CC080910201E82FF0E0EC5FFE4F9091BB
:1005C000480190838F5F80930201232871F045FDDD
:1005D0000CC080910201E82FF0E0EC5FFE4F90919B
:1005E000470190838F5F80930201452871F044FD9D
:1005F0000CC080910201E82FF0E0EC5FFE4F90917B
:10060000460190838F5F80930201672871F043FD5C
:100610000CC080910201E82FF0E0EC5FFE4F90915A
:10062000450190838F5F80930201892871F042FD1C
:100630000CC080910201E82FF0E0EC5FFE4F90913A
:10064000440190838F5F80930201AB2871F052FDCB
:100650000CC080910201E82FF0E0EC5FFE4F90911A
:100660003D0190838F5F80930201CD2871F051FD91
:100670000CC080910201E82FF0E0EC5FFE4F9091FA
:100680003C0190838F5F80930201EF2871F050FD51
:100690000CC080910201E82FF0E0EC5FFE4F9091DA
:1006A0003B0190838F5F80930201232B71F0A2FDA9
:1006B0000CC080910201E82FF0E0EC5FFE4F9091BA
:1006C0003A0190838F5F809302018091020106C0FE
:1006D000E82FF0E0EC5FFE4F10828F5F8E31C0F3A9
:1006E000809302011FD080E49CE90197F1F75981C2
:1006F000A12F402F2ECE80EA8093D80086E089BDBE
:1007000009B400FEFDCF80E88093D8001092E0008D
:10071000109223018CE08093E200789408958091F8
:100720002301089580912301882391F12FB7F89434
:1007300083E08093E9009091E4009E5C33E0809137
:10074000E80085FD0EC02FBF80912301882301F1B1
:100750008091E4008917E1F02FB7F8943093E90015
:10076000EECF809103018093F1001092F100E4E05C
:10077000F1E081918093F10081E0E232F807C9F75E
:100780008AE38093E800109224012FBF80E008954F
:100790008FEF08951F920F920FB60F9211242F938F
:1007A0008F939F93EF93FF938091E1001092E1006C
:1007B000982F83FF0FC01092E90081E08093EB0037
:1007C0001092EC0082E28093ED0088E08093F000CC
:1007D0001092230192FF34C080912301882381F17C
:1007E00020910001222361F1809125018F5F809388
:1007F000250190E083709070892B11F583E0809340
:10080000E9008091E80085FF1BC0809124018F5F83
:10081000809324018217A1F4109224018091030196
:100820008093F1001092F100E4E0F1E08191809377
:10083000F10081E0E232F807C9F78AE38093E8002B
:10084000FF91EF919F918F912F910F900FBE0F907D
:100850001F9018951F920F920FB60F9211240F93AD
:100860001F932F933F934F935F936F937F938F9338
:100870009F93AF93BF93EF93FF931092E900809102
:10088000E80083FF4EC14091F1003091F10080916A
:10089000F100682F70E02091F100922F80E0682B2A
:1008A000792B8091F100A82FB0E02091F100922FD8
:1008B00080E0A82BB92B1091F1000091F10082EF9C
:1008C0008093E800363009F05AC02BE730E0A901E8
:1008D00045505040F90137978591949186179707B5
:1008E00001F5FA01859194918A179B07D1F49A0139
:1008F0002E5F3F4FF901659174912E5F3F4FF901D3
:100900004491212F30E0902F80E0282B392B2F3F6E
:10091000310519F010F02FEF30E0241758F4422F72
:1009200009C0295F3F4F495F5F4FF0E02C3A3F0716
:1009300089F6F7C05EEF8091E800282F30E0C9010A
:1009400085709070892BB9F322FDEEC0342F4132AF
:1009500008F030E2232FCB0106C0FC010196E491A0
:10096000E093F10021502223C1F7630F711D431B57
:100970005093E8004423F9F63032E9F2D5C035301F
:1009800061F48EEF8093E8008091E80080FFFCCF57
:10099000862F80688093E300C7C0393031F5442347
:1009A00009F071C0609323018EEF8093E80085EA1F
:1009B00090E021E02093E900FC010196E491E093AE
:1009C000EB00EE2369F0AC014F5F5F4FFC018491B7
:1009D0008093EC00CA010196FA0134913093ED0046
:1009E0002F5F253039F78EE149C0383051F4403857
:1009F00009F049C08091E80080FFFCCF809123017D
:100A00006EC03323D1F48091E80080FFFCCF4238E0
:100A100011F080E00DC0A093E9008091EB0090E020
:100A200025E0969587952A95E1F781701092E90067
:100A30008093F1001092F10070C0313011F033302A
:100A400011F5423001F561157105E9F42A2F2F7770
:100A5000822F81508430B8F48EEF8093E800209389
:100A6000E900333009F45DC089E18093EB0081E057
:100A700090E002C0880F991F2A95E2F78093EA0060
:100A80001092EA0051C0AB2B09F04BC0413A51F52E
:100A90003130A1F48091E80080FFFCCF8091030108
:100AA0008093F1001092F100E4E0F1E081918093F5
:100AB000F10081E0E232F807C9F72FC0323039F493
:100AC0008091E80080FFFCCF8091000108C03330A6
:100AD00041F58091E80080FFFCCF80910101809377
:100AE000F1001BC04132E9F4393061F48091E80033
:100AF00082FFFCCF8091F100809322018BEF8093E5
:100B0000E8000BC03A3029F47093000110922401E0
:100B100004C03B3031F4609301018EEF8093E80014
:100B200003C081E28093EB00FF91EF91BF91AF9101
:100B30009F918F917F916F915F914F913F912F91F5
:100B40001F910F910F900FBE0F901F901895F89462
:020B5000FFCFD5
:020B52007D0123
:00000001FF
