:10000000B3C00000CCC00000CAC00000C8C00000DF
:10001000C6C00000C4C00000C2C00000C0C00000D4
:10002000BEC00000BCC00000BAC0000002C4000096
:1000300060C40000B4C00000B2C00000B0C0000046
:10004000AEC00000ACC00000AAC00000A8C0000004
:10005000A6C00000A4C00000A2C00000A0C0000014
:100060009EC000009CC000009AC0000098C0000024
:1000700096C0000000010000AB001200020000BDAD
:10008000002200220000DF003F00210000CF000915
:10009000000300001E0104010309042201180203E9
:1000A00009043C012A000001C126001201000200DF
:1000B000000020C0167E0400010102000109022296
:1000C00000010100C0320904000001030001000921
:1000D0002111010001223F000705830320000105D3
:1000E000010906A101050719E029E7150025017599
:1000F00001950881027508950181030508190129F8
:100100000575019505910275039501910305071980
:100110000029FF150025FF7508951E8100C0040306
:100120000904180344006500670065006E00610063
:10013000740072006F006E00730000002A03550007
:100140005300420020004B006500790062006F0000
:10015000610072006400200045006E0063006F00C3
:10016000640065007200000011241FBECFEFD2E0D2
:10017000DEBFCDBF11E0A0E0B1E0E0E0FCE002C0F6
:1001800005900D92A230B107D9F711E0A2E0B1E0DD
:1001900001C01D92A632B107E1F702D02FC530CFC2
:1001A0002F923F924F925F926F927F928F929F9287
:1001B000AF92BF92CF92DF92EF92FF920F931F9375
:1001C000DF93CF93CDB7DEB7EC970FB6F894DEBFD1
:1001D0000FBECDBF20E8209361001092610080E047
:1001E00090E00FB6F89420936100809361000FBEF9
:1001F00014B817B81AB88FEF85B988B98BB914B18C
:10020000B7B1AAB175B168B15BB180E68AB940E017
:1002100020E931E05D9880E491E0F9013197F1F750
:100220000197D9F75E9880E491E0F9013197F1F7F1
:100230000197D9F75D9A80E491E0F9013197F1F7E0
:100240000197D9F75E9A80E491E0F9013197F1F7CF
:100250000197D9F74F5F4430E9F614B9B7B9AAB995
:1002600075B968B95BB900E010E095E1E92EF12CB1
:10027000EC0EFD1EC801BAD4F701E00FF11F808318
:100280000F5F1F4F08321105A9F784D297D2882338
:10029000E9F390E010E0FF246E010894C11CD11C2A
:1002A00085E1A82EB12CAC0EBD1E0DE2E02EBAE207
:1002B0009B2E86B18470898389B181708A8389B1CC
:1002C00082708B8389B184708C8389B188708D83AF
:1002D00089B180718E8389B180728F8389B1807476
:1002E000888783B18170898783B182708A8783B15F
:1002F00084708B8783B188708C8783B180718D8780
:1003000083B180728E8783B180748F8783B1807848
:10031000888B86B18078898B86B180748A8B86B110
:1003200080728B8B86B180718C8B4F9B02C000E0FA
:100330000DC0992351F41250183F08F028C280E0F4
:10034000FF2009F481E0F82E22C201E01B3F08F4EF
:100350001F5F81E0F81611F431E001C0302F90E00A
:1003600040E050E0A9E47A2EF3E46F2EEDE35E2E38
:1003700074E4472E62E4362E21E4222E65E47FE009
:10038000ADE0BEE08CE0882EF601E40FF51F808121
:10039000882309F0E4C1313011F0842F02C0842F8A
:1003A0008C5EF501E80FF11DE081EE2309F4D7C161
:1003B000E13031F4E92FF0E0EC5FFE4F8EE1CDC18A
:1003C000E23031F4E92FF0E0EC5FFE4F82E2C5C18C
:1003D000E33031F4E92FF0E0EC5FFE4F82E5BDC180
:1003E000E43031F4E92FF0E0EC5FFE4F81E5B5C178
:1003F000E53031F4E92FF0E0EC5FFE4F80E5ADC170
:10040000E63031F4E92FF0E0EC5FFE4F8FE4A5C158
:10041000E73031F4E92FF0E0EC5FFE4F80EE9DC154
:10042000E83031F4E92FF0E0EC5FFE4F84EE95C147
:10043000E93031F4E92FF0E0EC5FFE4F82EE8DC140
:10044000EA3031F4E92FF0E0EC5FFE4F8CE285C139
:10045000EB3031F4E92FF0E0EC5FFE4F81EE7DC12F
:10046000EC3031F4E92FF0E0EC5FFE4F8DE175C127
:10047000ED3031F4E92FF0E0EC5FFE4F85EE6DC119
:10048000EE3031F4E92FF0E0EC5FFE4F8BE165C117
:10049000EF3031F4E92FF0E0EC5FFE4F88E35DC10F
:1004A000E03131F4E92FF0E0EC5FFE4F84E155C11B
:1004B000E13131F4E92FF0E0EC5FFE4F89E14DC10D
:1004C000E23131F4E92FF0E0EC5FFE4F88E245C104
:1004D000E33131F4E92FF0E0EC5FFE4F88E43DC1F9
:1004E000E43131F4E92FF0E0EC5FFE4F83E135C1F8
:1004F000E53131F4E92FF0E0EC5FFE4F84E02DC1EF
:10050000E63131F4E92FF0E0EC5FFE4F84E325C1E2
:10051000E73131F4E92FF0E0EC5FFE4F8BE21DC1D3
:10052000E83131F4E92FF0E0EC5FFE4F89E215C1CC
:10053000E93131F4E92FF0E0EC5FFE4F80E40DC1CA
:10054000EA3131F4E92FF0E0EC5FFE4F8CE305C1B6
:10055000EB3131F4E92FF0E0EC5FFE4F87E1FDC0B5
:10056000EC3131F4E92FF0E0EC5FFE4F8FE1F5C0A4
:10057000ED3131F4E92FF0E0EC5FFE4F83E2EDC0A6
:10058000EE3131F4E92FF0E0EC5FFE4F85E1E5C09C
:10059000EF3131F4E92FF0E0EC5FFE4F89E0DDC090
:1005A000E03231F4E92FF0E0EC5FFE4F87E0D5C098
:1005B000E13231F4E92FF0E0EC5FFE4F8AE0CDC08C
:1005C000E23231F4E92FF0E0EC5FFE4F86E1C5C086
:1005D000E33231F4E92FF0E0EC5FFE4F8AE1BDC079
:1005E000E43231F4E92FF0E0EC5FFE4F8082B6C0D8
:1005F000E53231F4E92FF0E0EC5FFE4FB083AEC09E
:10060000E63231F4E92FF0E0EC5FFE4FA083A6C0A4
:10061000E73231F4E92FF0E0EC5FFE4F70839EC0CB
:10062000E83209F48DC0E93209F44AC0EA3231F403
:10063000E92FF0E0EC5FFE4F608390C0EB3231F4C5
:10064000E92FF0E0EC5FFE4F8AE387C0EC3231F433
:10065000E92FF0E0EC5FFE4F8FE37FC0ED3231F425
:10066000E92FF0E0EC5FFE4F208278C0EE3231F4EB
:10067000E92FF0E0EC5FFE4F308270C0EF3231F4D2
:10068000E92FF0E0EC5FFE4F408268C0E03331F4C8
:10069000E92FF0E0EC5FFE4F508260C0E13331F4AF
:1006A000E92FF0E0EC5FFE4F608258C0E23331F496
:1006B000E92FF0E0EC5FFE4F708250C0E33331F47D
:1006C000E92FF0E0EC5FFE4F908248C0E43331F454
:1006D000E92FF0E0EC5FFE4F8BE33FC0E53331F4F0
:1006E000E92FF0E0EC5FFE4F86E237C0E63331F4ED
:1006F000E92FF0E0EC5FFE4F85E22FC0E73331F4E5
:10070000E92FF0E0EC5FFE4F87E227C0E83331F4D9
:10071000E92FF0E0EC5FFE4F84E21FC0E93331F4D3
:10072000E92FF0E0EC5FFE4F8DE417C0EA3331F4BF
:10073000E92FF0E0EC5FFE4F8AE40FC0EB3331F4B9
:10074000E92FF0E0EC5FFE4FE08208C0EC3339F4B3
:10075000E92FF0E0EC5FFE4F8EE280839F5F4F5FFA
:100760005F4F4431510509F00FCE06C0E92FF0E08C
:10077000EC5FFE4F10829F5F9E31C0F390930201A9
:1007800020D080E49CE90197F1F7902F92CD01E011
:1007900010E0DECD80EA8093D80086E089BD09B400
:1007A00000FEFDCF80E88093D8001092E000109208
:1007B00023018CE08093E2007894089580912301D6
:1007C000089580912301882391F12FB7F89483E055
:1007D0008093E9009091E4009E5C33E08091E80012
:1007E00085FD0EC02FBF80912301882301F18091E8
:1007F000E4008917E1F02FB7F8943093E900EECFC9
:10080000809103018093F1001092F100E4E0F1E0A7
:1008100081918093F10081E0E232F807C9F78AE321
:100820008093E800109224012FBF80E008958FEF9D
:1008300008951F920F920FB60F9211242F938F934A
:100840009F93EF93FF938091E1001092E100982F26
:1008500083FF0FC01092E90081E08093EB001092BB
:10086000EC0082E28093ED0088E08093F00010922B
:10087000230192FF34C080912301882381F12091CC
:100880000001222361F1809125018F5F8093250172
:1008900090E083709070892B11F583E08093E900DC
:1008A0008091E80085FF1BC0809124018F5F8093B9
:1008B00024018217A1F410922401809103018093F6
:1008C000F1001092F100E4E0F1E081918093F100F9
:1008D00081E0E232F807C9F78AE38093E800FF91EC
:1008E000EF919F918F912F910F900FBE0F901F90BE
:1008F00018951F920F920FB60F9211240F931F930A
:100900002F933F934F935F936F937F938F939F9317
:10091000AF93BF93EF93FF931092E9008091E800AB
:1009200083FF4EC14091F1003091F1008091F100C0
:10093000682F70E02091F100922F80E0682B792BD6
:100940008091F100A82FB0E02091F100922F80E07B
:10095000A82BB92B1091F1000091F10082EF809348
:10096000E800363009F05AC02BE730E0A9014550C5
:100970005040F9013797859194918617970701F5B3
:10098000FA01859194918A179B07D1F49A012E5F01
:100990003F4FF901659174912E5F3F4FF9014491EA
:1009A000212F30E0902F80E0282B392B2F3F31056D
:1009B00019F010F02FEF30E0241758F4422F09C03F
:1009C000295F3F4F495F5F4FF0E02C3A3F0789F6C0
:1009D000F7C05EEF8091E800282F30E0C9018570F4
:1009E0009070892BB9F322FDEEC0342F413208F00C
:1009F00030E2232FCB0106C0FC010196E491E09385
:100A0000F10021502223C1F7630F711D431B509346
:100A1000E8004423F9F63032E9F2D5C0353061F40C
:100A20008EEF8093E8008091E80080FFFCCF862F56
:100A300080688093E300C7C0393031F5442309F062
:100A400071C0609323018EEF8093E80085EA90E007
:100A500021E02093E900FC010196E491E093EB0092
:100A6000EE2369F0AC014F5F5F4FFC0184918093EE
:100A7000EC00CA010196FA0134913093ED002F5F2A
:100A8000253039F78EE149C0383051F4403809F04B
:100A900049C08091E80080FFFCCF809123016EC0A7
:100AA0003323D1F48091E80080FFFCCF423811F06D
:100AB00080E00DC0A093E9008091EB0090E025E07C
:100AC000969587952A95E1F781701092E9008093B9
:100AD000F1001092F10070C0313011F0333011F597
:100AE000423001F561157105E9F42A2F2F77822F25
:100AF00081508430B8F48EEF8093E8002093E900B1
:100B0000333009F45DC089E18093EB0081E090E02F
:100B100002C0880F991F2A95E2F78093EA0010928D
:100B2000EA0051C0AB2B09F04BC0413A51F53130CE
:100B3000A1F48091E80080FFFCCF809103018093B5
:100B4000F1001092F100E4E0F1E081918093F10076
:100B500081E0E232F807C9F72FC0323039F48091D2
:100B6000E80080FFFCCF8091000108C0333041F5E0
:100B70008091E80080FFFCCF809101018093F1001B
:100B80001BC04132E9F4393061F48091E80082FF02
:100B9000FCCF8091F100809322018BEF8093E800DD
:100BA0000BC03A3029F4709300011092240104C064
:100BB0003B3031F4609301018EEF8093E80003C075
:100BC00081E28093EB00FF91EF91BF91AF919F91F4
:100BD0008F917F916F915F914F913F912F911F91D5
:100BE0000F910F900FBE0F901F901895F999FECF9F
:100BF00092BD81BDF89A992780B50895F894FFCFEA
:020C00007D0174
:00000001FF
