:10000000B3C00000CCC00000CAC00000C8C00000DF
:10001000C6C00000C4C00000C2C00000C0C00000D4
:10002000BEC00000BCC00000BAC00000F8C30000A1
:1000300056C40000B4C00000B2C00000B0C0000050
:10004000AEC00000ACC00000AAC00000A8C0000004
:10005000A6C00000A4C00000A2C00000A0C0000014
:100060009EC000009CC000009AC0000098C0000024
:1000700096C0000000010000AB001200020000BDAD
:10008000002200220000DF003F00210000CF000915
:10009000000300001E0104010309042201180203E9
:1000A00009043C012A000001C126001201000200DF
:1000B000000020C0167E0400010102000109022296
:1000C00000010100C0320904000001030001000921
:1000D0002111010001223F000705830320000105D3
:1000E000010906A101050719E029E7150025017599
:1000F00001950881027508950181030508190129F8
:100100000575019505910275039501910305071980
:100110000029FF150025FF7508951E8100C0040306
:100120000904180344006500670065006E00610063
:10013000740072006F006E00730000002A03550007
:100140005300420020004B006500790062006F0000
:10015000610072006400200045006E0063006F00C3
:10016000640065007200000011241FBECFEFD2E0D2
:10017000DEBFCDBF11E0A0E0B1E0E8E0FCE002C0EE
:1001800005900D92A430B107D9F711E0A4E0B1E0D9
:1001900001C01D92AF33B107E1F754D133C530CF61
:1001A00082E2809329018EE180932A018FE480937B
:1001B0002B0180E580932C0182E580932D0181E560
:1001C00080932E0180EE80932F0182EE8093300188
:1001D0008CE28093310181EE809332018DE1809336
:1001E00033018BE18093340186E08093350189E10E
:1001F0008093360188E28093370183E18093380150
:1002000080E4809339018BE280933A0189E2809304
:100210003B0110923C01089583E2809329018FE114
:1002200080932A018AE080932B0187E080932C0140
:1002300085E180932D0189E080932E0184E08093F5
:100240002F0186E18093300184E1809331018AE1BE
:10025000809332018CE0809333018EE080933401EF
:100260008DE0809335018FE08093360188E28093A2
:10027000370183E18093380180E4809339018BE278
:1002800080933A0189E280933B0110923C010895EA
:1002900084E28093290180E280932A018DE4809397
:1002A0002B018AE480932C018BE480932D018EE452
:1002B00080932E0184EE80932F0185EE8093300190
:1002C00098E29093310188E38093320187E3809331
:1002D000330186E380933401109235011092360188
:1002E0009093370183E18093380180E48093390152
:1002F0008BE280933A0189E280933B0110923C01AA
:10030000089585E28093290181E280932A018EE598
:1003100080932B018CE580932C0180E680932D0146
:100320008AE580932E0182E680932F0183E68093F5
:10033000300188E58093310187E58093320186E5BD
:100340008093330185E5809334011092350110923A
:10035000360188E28093370183E18093380180E49D
:10036000809339018BE280933A0189E280933B01CB
:1003700010923C01089580913E01823039F0833023
:1003800040F0833021F0843021F402C045CF80CF8B
:10039000B8CF06CF80913E01823051F0833018F4FF
:1003A000813029F405C0833019F0843009F081E0F0
:1003B0008093000180E28AB980E187B93091000121
:1003C00020E070E260E140E951E013C07BB968B918
:1003D00080E496E0FA013197F1F70197D9F71BB85D
:1003E00018B880E496E0FA013197F1F70197D9F750
:1003F0002F5F231758F31AB817B88FEF8BB988B946
:10040000089580913E01823051F0833018F481309C
:1004100051F403C0833039F404C082E005C083E0A6
:1004200003C084E001C081E080933E0181E090E060
:1004300060913E01D9D39FDFADDF80E49CE9019755
:10044000F1F70895EF92FF920F931F93CF93DF93ED
:1004500020E8209361001092610014B817B81AB810
:100460008FEF85B988B98BB980E090E00FB6F8942A
:1004700020936100809361000FBE84B7877F84BFA3
:1004800088E10FB6F89480936000109260000FBE70
:1004900081E090E0A1D380933E016DDF71D114B172
:1004A000B7B1AAB175B168B15BB180E68AB940E075
:1004B00020E931E05D9880E491E0F9013197F1F7AE
:1004C0000197D9F75E9880E491E0F9013197F1F74F
:1004D0000197D9F75D9A80E491E0F9013197F1F73E
:1004E0000197D9F75E9A80E491E0F9013197F1F72D
:1004F0000197D9F74F5F4430E9F614B9B7B9AAB9F3
:1005000075B968B95BB950D18823E9F38FEF9FEFD4
:100510002FEFEE24E394C0E4DFE1F3B006B119B1AC
:10052000F81629F4091719F4121709F423C11092C7
:10053000040110920501302F05FD06C080913B019A
:1005400080930701E092040136FD0CC08091040104
:10055000E82FF0E0E95FFE4F90913A0190838F5FC2
:100560008093040107FD0CC080910401E82FF0E0A6
:10057000E95FFE4F9091390190838F5F8093040172
:10058000F7FC0CC080910401E82FF0E0E95FFE4F1A
:100590009091380190838F5F809304012F2DF6FC9A
:1005A0000CC080910401E82FF0E0E95FFE4F9091CC
:1005B000370190838F5F8093040125FD0CC08091EB
:1005C0000401E82FF0E0E95FFE4F9091360190833F
:1005D0008F5F8093040124FD0CC080910401E82FFB
:1005E000F0E0E95FFE4F9091350190838F5F80933B
:1005F000040123FD0CC080910401E82FF0E0E95FC5
:10060000FE4F9091340190838F5F8093040122FD0F
:100610000CC080910401E82FF0E0E95FFE4F90915B
:10062000330190838F5F8093040121FD0CC0809182
:100630000401E82FF0E0E95FFE4F909132019083D2
:100640008F5F8093040120FD0CC080910401E82F8E
:10065000F0E0E95FFE4F9091310190838F5F8093CE
:100660000401212F16FD0CC080910401E82FF0E059
:10067000E95FFE4F9091300190838F5F809304017A
:1006800025FD0CC080910401E82FF0E0E95FFE4FEA
:1006900090912F0190838F5F8093040124FD0CC003
:1006A00080910401E82FF0E0E95FFE4F90912E0168
:1006B00090838F5F8093040123FD0CC0809104011F
:1006C000E82FF0E0E95FFE4F90912D0190838F5F5E
:1006D0008093040122FD0CC080910401E82FF0E01A
:1006E000E95FFE4F90912C0190838F5F809304010E
:1006F00021FD0CC080910401E82FF0E0E95FFE4F7E
:1007000090912B0190838F5F8093040120FD0CC09A
:1007100080910401E82FF0E0E95FFE4F90912A01FB
:1007200090838F5F8093040132FD0CC0809104019F
:10073000E82FF0E0E95FFE4F9091290190838F5FF1
:100740008093040117FD02C0E0920501809104012D
:1007500006C0E82FF0E0E95FFE4F10828F5F8E3118
:10076000C0F38093040123D080910501882309F010
:1007700048DE212FCE010197F1F7902F8F2DCDCE9E
:1007800080EA8093D80086E089BD09B400FEFDCFE1
:1007900080E88093D8001092E000109226018CE04F
:1007A0008093E200789408958091260108958091C5
:1007B0002601882391F12FB7F89483E08093E90014
:1007C0009091E4009E5C33E08091E80085FD0EC0CE
:1007D0002FBF80912601882301F18091E4008917C1
:1007E000E1F02FB7F8943093E900EECF8091060145
:1007F0008093F1001092F100E7E0F1E081918093A5
:10080000F10081E0E532F807C9F78AE38093E80058
:10081000109227012FBF80E008958FEF08951F9257
:100820000F920FB60F9211242F938F939F93EF93F4
:10083000FF938091E1001092E100982F83FF0FC099
:100840001092E90081E08093EB001092EC0082E2CC
:100850008093ED0088E08093F0001092260192FFD3
:1008600034C080912601882381F120910101222347
:1008700061F1809128018F5F8093280190E083705F
:100880009070892B11F583E08093E9008091E80056
:1008900085FF1BC0809127018F5F809327018217FE
:1008A000A1F410922701809106018093F10010922B
:1008B000F100E7E0F1E081918093F10081E0E53221
:1008C000F807C9F78AE38093E800FF91EF919F91C1
:1008D0008F912F910F900FBE0F901F9018951F9220
:1008E0000F920FB60F9211240F931F932F933F93E4
:1008F0004F935F936F937F938F939F93AF93BF9328
:10090000EF93FF931092E9008091E80083FF4EC1BE
:100910004091F1003091F1008091F100682F70E07A
:100920002091F100922F80E0682B792B8091F100CB
:10093000A82FB0E02091F100922F80E0A82BB92BD6
:100940001091F1000091F10082EF8093E8003630C1
:1009500009F05AC02BE730E0A90145505040F90199
:100960003797859194918617970701F5FA0185913C
:1009700094918A179B07D1F49A012E5F3F4FF9019A
:10098000659174912E5F3F4FF9014491212F30E022
:10099000902F80E0282B392B2F3F310519F010F0D4
:1009A0002FEF30E0241758F4422F09C0295F3F4F42
:1009B000495F5F4FF0E02C3A3F0789F6F7C05EEFE2
:1009C0008091E800282F30E0C90185709070892B54
:1009D000B9F322FDEEC0342F413208F030E2232F6C
:1009E000CB0106C0FC010196E491E093F100215097
:1009F0002223C1F7630F711D431B5093E80044236A
:100A0000F9F63032E9F2D5C0353061F48EEF8093DB
:100A1000E8008091E80080FFFCCF862F80688093FB
:100A2000E300C7C0393031F5442309F071C0609349
:100A300026018EEF8093E80085EA90E021E0209384
:100A4000E900FC010196E491E093EB00EE2369F0EC
:100A5000AC014F5F5F4FFC0184918093EC00CA01B1
:100A60000196FA0134913093ED002F5F253039F76C
:100A70008EE149C0383051F4403809F049C08091C6
:100A8000E80080FFFCCF809126016EC03323D1F4B3
:100A90008091E80080FFFCCF423811F080E00DC06B
:100AA000A093E9008091EB0090E025E09695879572
:100AB0002A95E1F781701092E9008093F10010927D
:100AC000F10070C0313011F0333011F5423001F5D2
:100AD00061157105E9F42A2F2F77822F8150843018
:100AE000B8F48EEF8093E8002093E900333009F4E6
:100AF0005DC089E18093EB0081E090E002C0880F47
:100B0000991F2A95E2F78093EA001092EA0051C0FB
:100B1000AB2B09F04BC0413A51F53130A1F4809133
:100B2000E80080FFFCCF809106018093F1001092D5
:100B3000F100E7E0F1E081918093F10081E0E5329E
:100B4000F807C9F72FC0323039F48091E80080FFF0
:100B5000FCCF8091010108C0333041F58091E8005D
:100B600080FFFCCF809102018093F1001BC04132D5
:100B7000E9F4393061F48091E80082FFFCCF809184
:100B8000F100809325018BEF8093E8000BC03A3091
:100B900029F4709301011092270104C03B3031F415
:100BA000609302018EEF8093E80003C081E280939E
:100BB000EB00FF91EF91BF91AF919F918F917F914A
:100BC0006F915F914F913F912F911F910F910F90D6
:100BD0000FBE0F901F901895F999FECF92BD81BD61
:100BE000F89A992780B50895262FF999FECF1FBA54
:100BF00092BD81BD20BD0FB6F894FA9AF99A0FBE46
:080C000001960895F894FFCF5E
:040C0800017D010069
:00000001FF
