:10000000B3C00000CCC00000CAC00000C8C00000DF
:10001000C6C00000C4C00000C2C00000C0C00000D4
:10002000BEC00000BCC00000BAC00000ABC20000EF
:1000300009C30000B4C00000B2C00000B0C000009E
:10004000AEC00000ACC00000AAC00000A8C0000004
:10005000A6C00000A4C00000A2C00000A0C0000014
:100060009EC000009CC000009AC0000098C0000024
:1000700096C0000000010000AB001200020000BDAD
:10008000002200220000DF003F00210000CF000915
:10009000000300001E0104010309042201180203E9
:1000A00009043C012A000001C126001201000200DF
:1000B000000020C0167E0400010102000109022296
:1000C00000010100C0320904000001030001000921
:1000D0002111010001223F000705830320000105D3
:1000E000010906A101050719E029E7150025017599
:1000F00001950881027508950181030508190129F8
:100100000575019505910275039501910305071980
:100110000029FF150025FF7508951E8100C0040306
:100120000904180344006500670065006E00610063
:10013000740072006F006E00730000002A03550007
:100140005300420020004B006500790062006F0000
:10015000610072006400200045006E0063006F00C3
:10016000640065007200000011241FBECFEFD2E0D2
:10017000DEBFCDBF11E0A0E0B1E0E2E4F9E002C0F3
:1001800005900D92A230B107D9F711E0A2E0B1E0DD
:1001900001C01D92A532B107E1F702D0D0C330CF24
:1001A0002F923F924F925F926F927F928F929F9287
:1001B000AF92BF92CF92DF92EF92FF920F931F9375
:1001C00092D1A5D18823E9F380E197E220E931E0DB
:1001D000F9013197F1F70197D9F700EF1FE093E2AA
:1001E000692E84E2582EB5E24B2EA6E23A2EF4E0B8
:1001F0002F2EE6E0BE2E77E0A72E68E0962E59E07F
:10020000852E4AE0742E3BE0F32E2CE0E22E9DE09A
:10021000D92E8EE0C82E04B915B90AB91BB9000051
:10022000189B07C01C9B05C087E28093030191E0E7
:1002300001C090E0189B09C01D9B07C0E92FF0E0AA
:10024000ED5FFE4F8EE180839F5F189B09C01E9B70
:1002500007C0E92FF0E0ED5FFE4F8FE180839F5FE5
:10026000189B09C01F9B07C0E92FF0E0ED5FFE4F10
:1002700080E280839F5F199B09C01C9B07C0E92F08
:10028000F0E0ED5FFE4F81E280839F5F199B09C024
:100290001D9B07C0E92FF0E0ED5FFE4F82E28083F7
:1002A0009F5F199B08C01E9B06C0E92FF0E0ED5F21
:1002B000FE4F60829F5F199B08C01F9B06C0E92FFD
:1002C000F0E0ED5FFE4F50829F5F1A9B08C01C9BC1
:1002D00006C0E92FF0E0ED5FFE4F40829F5F1A9B62
:1002E00008C01D9B06C0E92FF0E0ED5FFE4F308295
:1002F0009F5F1A9B08C01E9B06C0E92FF0E0ED5FD0
:10030000FE4F20829F5F1A9B09C01F9B07C0E92FE9
:10031000F0E0ED5FFE4F85E080839F5F1B9B08C090
:100320001C9B06C0E92FF0E0ED5FFE4FB0829F5F9F
:100330001B9B08C01D9B06C0E92FF0E0ED5FFE4F40
:10034000A0829F5F1B9B08C01E9B06C0E92FF0E0A8
:10035000ED5FFE4F90829F5F1B9B08C01F9B06C0F6
:10036000E92FF0E0ED5FFE4F80829F5F14B905B981
:100370001AB90BB90000489B08C04C9B06C0E92F76
:10038000F0E0ED5FFE4F70829F5F489B08C04D9B81
:1003900006C0E92FF0E0ED5FFE4FF0829F5F489BC3
:1003A00008C04E9B06C0E92FF0E0ED5FFE4FE082F3
:1003B0009F5F489B08C04F9B06C0E92FF0E0ED5FB0
:1003C000FE4FD0829F5F499B08C04C9B06C0E92F1F
:1003D000F0E0ED5FFE4FC0829F5F499B08C04D9BE0
:1003E00006C0E92FF0E0ED5FFE4F10839F5F499B51
:1003F00009C04E9B07C0E92FF0E0ED5FFE4F80E1A2
:1004000080839F5F499B09C04F9B07C0E92FF0E0A5
:10041000ED5FFE4F81E180839F5F4A9B09C04C9B4B
:1004200007C0E92FF0E0ED5FFE4F82E180839F5F20
:100430004A9B09C04D9B07C0E92FF0E0ED5FFE4FDE
:1004400083E180839F5F4A9B09C04E9B07C0E92FD1
:10045000F0E0ED5FFE4F84E180839F5F4A9B09C01F
:100460004F9B07C0E92FF0E0ED5FFE4F85E18083F1
:100470009F5F4B9B09C04C9B07C0E92FF0E0ED5FED
:10048000FE4F86E180839F5F4B9B09C04D9B07C059
:10049000E92FF0E0ED5FFE4F87E180839F5F4B9B8C
:1004A00009C04E9B07C0E92FF0E0ED5FFE4F88E1E9
:1004B00080839F5F4B9B0FC04F9B0DC0E92FF0E0E7
:1004C000ED5FFE4F89E1808305C0E92FF0E0ED5F2D
:1004D000FE4F10829F5F9E31C0F31CD080E49FE1ED
:1004E0000197F1F798CE80EA8093D80086E089BD25
:1004F00009B400FEFDCF80E88093D8001092E000A0
:10050000109222018CE08093E2007894089580910B
:100510002201089580912201882391F12FB7F89448
:1005200083E08093E9009091E4009E5C33E0809149
:10053000E80085FD0EC02FBF80912201882301F1C4
:100540008091E4008917E1F02FB7F8943093E90027
:10055000EECF809102018093F1001092F100E3E070
:10056000F1E081918093F10081E0E132F807C9F771
:100570008AE38093E800109223012FBF80E0089562
:100580008FEF08951F920F920FB60F9211242F93A1
:100590008F939F93EF93FF938091E1001092E1007E
:1005A000982F83FF0FC01092E90081E08093EB0049
:1005B0001092EC0082E28093ED0088E08093F000DE
:1005C0001092220192FF34C080912201882381F190
:1005D00020910001222361F1809124018F5F80939B
:1005E000240190E083709070892B11F583E0809353
:1005F000E9008091E80085FF1BC0809123018F5F97
:10060000809323018217A1F41092230180910201AB
:100610008093F1001092F100E3E0F1E0819180938A
:10062000F10081E0E132F807C9F78AE38093E8003E
:10063000FF91EF919F918F912F910F900FBE0F908F
:100640001F9018951F920F920FB60F9211240F93BF
:100650001F932F933F934F935F936F937F938F934A
:100660009F93AF93BF93EF93FF931092E900809114
:10067000E80083FF4EC14091F1003091F10080917C
:10068000F100682F70E02091F100922F80E0682B3C
:10069000792B8091F100A82FB0E02091F100922FEA
:1006A00080E0A82BB92B1091F1000091F10082EFAE
:1006B0008093E800363009F05AC02BE730E0A901FA
:1006C00045505040F90137978591949186179707C7
:1006D00001F5FA01859194918A179B07D1F49A014B
:1006E0002E5F3F4FF901659174912E5F3F4FF901E5
:1006F0004491212F30E0902F80E0282B392B2F3F81
:10070000310519F010F02FEF30E0241758F4422F84
:1007100009C0295F3F4F495F5F4FF0E02C3A3F0728
:1007200089F6F7C05EEF8091E800282F30E0C9011C
:1007300085709070892BB9F322FDEEC0342F4132C1
:1007400008F030E2232FCB0106C0FC010196E491B2
:10075000E093F10021502223C1F7630F711D431B69
:100760005093E8004423F9F63032E9F2D5C0353031
:1007700061F48EEF8093E8008091E80080FFFCCF69
:10078000862F80688093E300C7C0393031F5442359
:1007900009F071C0609322018EEF8093E80085EA32
:1007A00090E021E02093E900FC010196E491E093C0
:1007B000EB00EE2369F0AC014F5F5F4FFC018491C9
:1007C0008093EC00CA010196FA0134913093ED0058
:1007D0002F5F253039F78EE149C0383051F4403869
:1007E00009F049C08091E80080FFFCCF8091220190
:1007F0006EC03323D1F48091E80080FFFCCF4238F3
:1008000011F080E00DC0A093E9008091EB0090E032
:1008100025E0969587952A95E1F781701092E90079
:100820008093F1001092F10070C0313011F033303C
:1008300011F5423001F561157105E9F42A2F2F7782
:10084000822F81508430B8F48EEF8093E80020939B
:10085000E900333009F45DC089E18093EB0081E069
:1008600090E002C0880F991F2A95E2F78093EA0072
:100870001092EA0051C0AB2B09F04BC0413A51F540
:100880003130A1F48091E80080FFFCCF809102011B
:100890008093F1001092F100E3E0F1E08191809308
:1008A000F10081E0E132F807C9F72FC0323039F4A6
:1008B0008091E80080FFFCCF8091000108C03330B8
:1008C00041F58091E80080FFFCCF80910101809389
:1008D000F1001BC04132E9F4393061F48091E80045
:1008E00082FFFCCF8091F100809321018BEF8093F8
:1008F000E8000BC03A3029F47093000110922301F4
:1009000004C03B3031F4609301018EEF8093E80026
:1009100003C081E28093EB00FF91EF91BF91AF9113
:100920009F918F917F916F915F914F913F912F9107
:100930001F910F910F900FBE0F901F901895F89474
:02094000FFCFE7
:020942007D0135
:00000001FF
