:1000000039C0000052C0000050C000004EC00000C7
:100010004CC000004AC0000048C0000046C00000BC
:1000200044C0000042C0000040C000003EC00000CC
:100030003CC000003AC0000038C0000036C00000DC
:1000400034C0000032C0000030C000002EC00000EC
:100050002CC000002AC0000031C6000026C00000ED
:1000600024C0000022C0000020C000001EC000000C
:100070001CC0000011241FBECFEFD2E0DEBFCDBFF9
:1000800011E0A0E0B1E0ECEBFEE002C005900D92C3
:10009000A031B107D9F711E0A0E1B1E001C01D9294
:1000A000A131B107E1F702D007C7AACF2F923F9243
:1000B0004F925F926F927F928F929F92AF92BF9278
:1000C000CF92DF92EF92FF920F931F93DF93CF9324
:1000D000CDB7DEB7C656D0400FB6F894DEBF0FBE20
:1000E000CDBF8091630081608093630080E880933E
:1000F00061001092610057985F9A3A98429A50981E
:10010000589A5198599A52985A9A53985B9A549877
:100110005C9A55985D9A56985E9A25982D9A2698DD
:100120002E9A27982F9A3F98479A3E98469A3D983C
:10013000459A3C98449AA4B1F7B1EAB175B168B157
:100140005BB180E68AB940E020E03AEF5D98C901F2
:100150000197F1F75E98C9010197F1F75D9AC9011E
:100160000197F1F75E9AC9010197F1F74F5F4430AB
:1001700069F7A4B9F7B9EAB975B968B95BB968960E
:100180001FAE689700E010E0B5E1EB2EF12CEC0E0D
:10019000FD1EC80189D6982FF701E00FF11F80835B
:1001A0008B51823008F064C0802F002319F44298EC
:1001B0003A9A0AC0013019F45898509A59C002303E
:1001C00019F45998519A54C0833019F45A98529A94
:1001D0004FC0843019F45B98539A4AC0853019F4A3
:1001E0005C98549A45C0863019F45D98559A40C081
:1001F000873019F45E98569A3BC0883019F42898D5
:10020000209A36C0893019F42998219A31C08A3051
:1002100019F42A98229A2CC08B3019F42B98239A1F
:1002200027C08C3019F42C98249A22C08D3019F4F0
:100230002D98259A1DC08E3019F42E98269A18C034
:100240008F3019F45F98579A13C0803119F447988A
:100250003F9A0EC0813119F446983E9A09C0823106
:1002600019F445983D9A04C0833111F444983C9A9E
:100270009C3121F421E068962FAF68970F5F1F4FE4
:100280000832110509F085CF89E290E00DD6689615
:100290003FAD6897313009F08EC0882309F48BC0D8
:1002A00040E0282F30E02250304068EC70E008C079
:1002B00080E197E2FB013197F1F70197D9F74F5FA2
:1002C000842F90E0821793079CF320E030E0AE018A
:1002D0004B5E5F4FFA01E20FF31F80818C3109F012
:1002E00064C0822F222319F442983A9A0AC021301E
:1002F00019F45898509A59C0223019F45998519AC3
:1003000054C0833019F45A98529A4FC0843019F46B
:100310005B98539A4AC0853019F45C98549A45C04A
:10032000863019F45D98559A40C0873019F45E986C
:10033000569A3BC0883019F42898209A36C08930E4
:1003400019F42998219A31C08A3019F42A98229AEE
:100350002CC08B3019F42B98239A27C08C3019F4B9
:100360002C98249A22C08D3019F42D98259A1DC0FE
:100370008E3019F42E98269A18C08F3019F42F98C1
:10038000279A13C0803119F447983F9A0EC08131E3
:1003900019F446983E9A09C0823119F445983D9A5D
:1003A00004C0833111F444983C9A2F5F3F4F2832A8
:1003B000310509F08FCF67D4EE24FF2400E010E070
:1003C0006F961FAE6F976E961FAE6E9790E06C960D
:1003D0001FAE6C976B961FAE6B9741E069964FAF5F
:1003E000699786B18470898389B181708A8389B164
:1003F00082708B8389B184708C8389B188708D837E
:1004000089B180718E8389B180728F8389B1807444
:10041000888783B18170898783B182708A8783B12D
:1004200084708B8783B188708C8783B180718D874E
:1004300083B180728E8783B180748F8783B1807817
:10044000888B86B18078898B86B180748A8B86B1DF
:1004500080728B8B86B180718C8B4F9B04C06D96A4
:100460001FAE6D9718C0992391F46C968FAD6C9761
:100470008250883F08F0F1C380E06B969FAD6B9788
:10048000992309F481E06B968FAF6B97E6C3A1E0E7
:100490006D96AFAF6D976C96BFAD6C97BB3F38F460
:1004A0006C96EFAD6C97EF5F6C96EFAF6C976B96B9
:1004B000FFAD6B97F13019F421E02EAF04C06D96BB
:1004C0003FAD6D973EAFDE0155961DAE23961FAE34
:1004D000239722961FAE229721961FAE219790E078
:1004E00050E06A961FAE6A9760E070E0262FE1E068
:1004F000F0E0EC0FFD1FE60FF71F8081882309F065
:1005000049C04EAD413011F0362F02C0362F3C5E4F
:100510004C91463111F491E00CC0E5E1F0E0EC0FB4
:10052000FD1FE30FF11D8081863109F491E0453113
:1005300049F0E5E1F0E0EC0FFD1FE30FF11D8081D4
:10054000853109F451E0E5E1F0E0EC0FFD1FE30F28
:10055000F11DE0818E2F8751843020F481E06A966E
:100560008FAF6A97E13011F4EDAF14C0E23029F497
:10057000F1E02396FFAF23970DC0E33029F431E07B
:1005800022963FAF229706C0E43021F441E0219645
:100590004FAF21978C918B3109F063C0222319F45E
:1005A00042983A9A5EC0213019F45898509A59C02E
:1005B000223019F45998519A54C0233019F45A989A
:1005C000529A4FC0243019F45B98539A4AC0253090
:1005D00019F45C98549A45C0263019F45D98559AE0
:1005E00040C0273019F45E98569A3BC0283019F461
:1005F0002898209A36C0293019F42998219A31C0B8
:100600002A3019F42A98229A2CC02B3019F42B98EE
:10061000239A27C02C3019F42C98249A22C02D300C
:1006200019F42D98259A1DC02E3019F42E98269A6B
:1006300018C02F3019F42F98279A13C0203119F4BD
:1006400047983F9A0EC0213119F446983E9A09C046
:10065000223119F445983D9A04C0233111F444988D
:100660003C9A6F5F7F4F11966431710509F03ECF60
:100670006A968FAD6A97813039F46996AFAD699704
:10068000A1956996AFAF6997552311F540E050E009
:10069000BDADB13011F441E050E000E010E0239630
:1006A000EFAD2397E13011F401E010E020E030E0FD
:1006B0002296FFAD2297F13011F421E030E021962F
:1006C0008FAD2197813009F417C160E070E020C13F
:1006D000ADADAE15A9F42396BFAD2397BF1581F438
:1006E0002296EFAD2297E01759F42196FFAD21979E
:1006F000F11731F46E962FAD6E976F962FAF6F97FF
:100700006F963FAD6F97313049F0E32F80E000E006
:1007100010E020E030E060E070E039C023964FAD9B
:100720002397413029F4E2E081E001E010E004C0C9
:10073000E1E080E000E010E02296AFAD2297A1302A
:1007400041F4882329F4E3E081E021E030E003C0B4
:1007500081E020E030E02196BFAD2197B13041F437
:10076000882329F4E4E081E061E070E003C081E0E7
:1007700060E070E0FDADF13051F4882339F441E0E0
:100780006E964FAF6E9741E050E0C2C081E0E2301C
:1007900019F040E050E03FC0ADADA13011F0E2E013
:1007A00009C0882329F4E1E081E041E050E004C081
:1007B000E2E081E040E050E02296BFAD2297B13008
:1007C00041F4882329F4E3E081E021E030E001C036
:1007D00081E02196FFAD2197F13041F4882329F47F
:1007E000E4E081E061E070E001C081E02396AFAD1C
:1007F0002397A13081F4882369F46F96BFAD6F977A
:100800006E96BFAF6E97E2E06F96EFAF6F9701E025
:1008100010E07EC081E0E330D9F52196FFAD21974D
:10082000F13049F4882329F4E4E081E061E070E0EC
:1008300002C0E3E081E0ADADA13041F4882329F4AA
:10084000E1E081E041E050E001C081E02396BFADEE
:100850002397B13041F4882329F4E2E081E001E0FC
:1008600010E001C081E02296FFAD2297F13081F4C3
:10087000882369F46F962FAD6F976E962FAF6E97A2
:1008800033E06F963FAF6F9721E030E041C081E0E9
:10089000E43011F0EE2399F52296AFAD2297A13006
:1008A00031F4882321F4E3E081E021E030E0BDADC4
:1008B000B13031F4882321F4E1E081E041E050E0FF
:1008C0002396FFAD2397F13031F4882321F4E2E041
:1008D00081E001E010E02196AFAD2197A13079F4DD
:1008E000882369F46F96BFAD6F976E96BFAF6E9712
:1008F000E4E06F96EFAF6F9761E070E009C06F962C
:10090000FFAD6F976E96FFAF6E976F96EFAF6F97D5
:100910003E010894611C711C1FAE67961FAE1EAE8F
:10092000679765961FAE1EAE659722243324442434
:10093000552463961FAE1EAE639761961FAE1EAE22
:1009400061972F961FAE1EAE2F972D961FAE1EAE2F
:100950002D972B961FAE1EAE2B9729961FAE1EAE5F
:10096000299727961FAE1EAE279725961FAE1EAE5F
:100970002597AFE78A2E912CFFE7AF2EB12CEFE73A
:10098000CE2ED12C8FE7E82EF12C892F90E0DC01C0
:100990005196A196BFAFAEAFA197E2E1F0E0E81BA0
:1009A000F90BA396FFAFEEAFA397DC015D96A5967A
:1009B000BFAFAEAFA597EEE1F0E0E81BF90BA7964D
:1009C000FFAFEEAFA797DBC0D3018C91882309F06E
:1009D000D0C0BEADB13011F08FAD02C08FAD8C5E16
:1009E000E5E1F0E0EC0FFD1FE80FF11DE081EE23E3
:1009F00009F4BFC0E53039F481E090E067969FAF1D
:100A00008EAF679714C0E63039F4A1E0B0E0659688
:100A1000BFAFAEAF65970BC0E73021F4B1E02B2E2E
:100A2000312C05C0E83019F4A1E04A2E512C6A9609
:100A3000BFAD6A97B13031F56996FFAD6997F13076
:100A4000E9F4E73139F481E090E067969FAF8EAF2B
:100A5000679714C0E83139F4A1E0B0E06596BFAF04
:100A6000AEAF65970BC0E93121F4F1E02F2E312CA8
:100A700005C0EA3119F491E0492E512CA0E3B5E705
:100A80001197F1F7E93009F4F0C0EA3039F481E068
:100A900090E02D969FAF8EAF2D972FC0EB3039F49D
:100AA000A1E0B0E02B96BFAFAEAF2B9726C0EC30E5
:100AB00009F4E2C0EF3039F481E090E027969FAF6F
:100AC0008EAF27971AC0E03139F4A1E0B0E0259647
:100AD000BFAFAEAF259711C0ED3039F481E090E0A3
:100AE00063969FAF8EAF639708C0EE3031F4A1E0FC
:100AF000B0E06196BFAFAEAF6197AE2FB0E0A19608
:100B00008EAD9FADA197A817B90711F4AA24BB24F5
:100B1000A3968EAD9FADA397A817B90719F48FEFD1
:100B2000A82EB12CE33119F48824992405C0E431AE
:100B300019F4FFEF8F2E912CA5968EAD9FADA59742
:100B4000A817B90711F4EE24FF24A7968EAD9FAD28
:100B5000A797A817B90719F49FEFE92EF12CEF31E9
:100B600019F4CC24DD2405C0E03219F48FEFC82E2F
:100B7000D12C9FAD9F5F9FAF0894611C711CAFADDE
:100B8000A43109F021CFEDB7FEB776970FB6F894F0
:100B9000FEBF0FBEEDBF319661968EAD9FAD6197E2
:100BA000ADB7BEB712969C938E9311972F96AEADAC
:100BB000BFAD2F97B383A2832B968EAD9FAD2B979E
:100BC000958384832D96AEADBFAD2D97B783A68355
:100BD00029968EAD9FAD2997918780872796AEADD8
:100BE000BFAD2797B387A28725968EAD9FAD25977A
:100BF0009587848797868686B18AA08AD38AC28A97
:100C0000F58AE48AC901980167960EAD1FAD679712
:100C1000720161016596AEACBFAC659763968EAC10
:100C20009FAC6397A1D080EA9FE00197F1F76D96A2
:100C30009FAD6D97EDAC2396FFAC239722960FAD39
:100C4000229721961FAD2197ADB7BEB756960FB626
:100C5000F894BEBF0FBEADBFC4CBB1E06D96BFAFC1
:100C60006D976C961FAE6C971BCC81E090E02F9631
:100C70009FAF8EAF2F9741CFA1E0B0E02996BFAFD5
:100C8000AEAF29973ACF239A2B9A249A2C9A209880
:100C9000289A22982A9A2198299A8CB588608CBD26
:100CA0008CB584608CBD8CB580648CBD8CB5806245
:100CB0008CBD8CB580688CBD789408951F920F927E
:100CC0000FB60F9211248F939F93EF93FF938EB5DE
:100CD0008093080180911001882321F480910801FC
:100CE000813031F49091100180910901981720F121
:100CF000109210018FEF8EBD2EC0809108018234BA
:100D000051F0833441F48CE091E090930B01809397
:100D10000A0183E007C080E091E090930B0180938B
:100D20000A0188E0809309012C98809110018F5F5F
:100D3000809310012C9A0FC080911001E0910A015C
:100D4000F0910B01E80FF11D80818EBD80911001A3
:100D5000813051F7D2CFFF91EF919F918F910F90FA
:100D60000FBE0F901F9018953F924F925F926F9217
:100D70007F928F929F92AF92BF92CF92DF92EF922B
:100D8000FF920F931F93DF93CF93CDB7DEB73C0154
:100D90004AA03CA0BEA158A48E8D9F8D892B11F036
:100DA000E0E001C0E2E088A199A1892B11F0A0E068
:100DB00001C0A4E08C899D89892B11F0F0E001C06D
:100DC000F8E0452B11F050E001C050E1672B11F025
:100DD00040E001C040E2232B11F020E001C020E4FC
:100DE000672811F090E001C090E880E0892809F4BC
:100DF00081E0E82BEA2BEF2BE52BE42BE22BE92B10
:100E0000E09302018C8D9D8D892B11F020E001C0B3
:100E100022E08E899F89892B11F0F0E001C0F4E077
:100E20008A8D9B8D892B11F0E0E001C0E8E0EF286E
:100E300011F070E001C070E1CD2811F060E001C058
:100E400060E2AB2811F050E001C050E4012B11F03A
:100E500040E001C040E830E0888D998D892B09F48D
:100E600031E0232B2F2B2E2B272B262B252B242B2E
:100E700020930301B09304015092050140920601B2
:100E800030920701CF91DF911F910F91FF90EF906A
:100E9000DF90CF90BF90AF909F908F907F906F909A
:100EA0005F904F903F900895F999FECF92BD81BD1C
:0C0EB000F89A992780B50895F894FFCFB8
:100EBC00735AFFFF7F7F7F7FFF080001735A010089
:00000001FF
