:10000000ACC00000C5C00000C3C00000C1C00000FB
:10001000BFC00000BDC00000BBC00000B9C00000F0
:10002000B7C00000B5C00000B3C0000065C4000048
:10003000C3C40000ADC00000ABC00000A9C00000F8
:10004000A7C00000A5C00000A3C00000A1C0000020
:100050009FC000009DC000009BC0000099C0000030
:1000600097C0000095C0000093C0000091C0000040
:100070008FC0000000010000AB001200020000BDB4
:10008000002200220000DF003F00210000CF000915
:10009000000300001E01040103090422010A0203F7
:1000A00009042E012A000001C126001201000200ED
:1000B000000020C0167E0400010102000109022296
:1000C00000010100C0320904000001030001000921
:1000D0002111010001223F000705830320000105D3
:1000E000010906A101050719E029E7150025017599
:1000F00001950881027508950181030508190129F8
:100100000575019505910275039501910305071980
:100110000029FF150025FF7508951E8100C0040306
:1001200009040A034B0041004400450000002A0373
:1001300055005300420020004B006500790062002A
:100140006F00610072006400200045006E006300D3
:100150006F00640065007200000011241FBECFEF25
:10016000D2E0DEBFCDBF11E0A0E0B1E0E6ECFCE004
:1001700002C005900D92A230B107D9F711E0A2E0BC
:10018000B1E001C01D92A632B107E1F702D099C5D6
:1001900037CF2F923F924F925F926F927F928F92C2
:1001A0009F92AF92BF92CF92DF92EF92FF920F9306
:1001B0001F93DF93CF93CDB7DEB7EC970FB6F894CC
:1001C000DEBF0FBECDBF20E820936100109261001A
:1001D00080E090E00FB6F894209361008093610076
:1001E0000FBE14B817B81AB88FEF85B988B98BB994
:1001F00014B1B7B1AAB175B168B15BB180E68AB983
:1002000040E020E931E05D9880E491E0F901319728
:10021000F1F70197D9F75E9880E491E0F901319701
:10022000F1F70197D9F75D9A80E491E0F9013197F0
:10023000F1F70197D9F75E9A80E491E0F9013197DF
:10024000F1F70197D9F74F5F4430E9F614B9B7B920
:10025000AAB975B968B95BB900E010E065E1E62EAE
:10026000F12CEC0EFD1EC80124D5F701E00FF11FA3
:1002700080830F5F1F4F08321105A9F7EED201D31B
:100280008823E9F390E010E0FF246E010894C11C7C
:10029000D11C55E1A52EB12CAC0EBD1E48E2E42EBA
:1002A0003EE2932E2DE2822E86B18470898389B13D
:1002B00081708A8389B182708B8389B184708C83C9
:1002C00089B188708D8389B180718E8389B1807284
:1002D0008F8389B18074888783B18170898783B166
:1002E00082708A8783B184708B8783B188708C8792
:1002F00083B180718D8783B180728E8783B1807462
:100300008F8783B18078888B86B18078898B86B11E
:1003100080748A8B86B180728B8B86B180718C8B56
:100320004F9B02C000E00DC0992351F41250183FBA
:1003300008F090C280E0FF2009F481E0F82E8AC224
:1003400001E01B3F08F41F5F81E0F81611F431E073
:1003500001C0302F90E040E050E074E4A2E4B1E44A
:100360008AE3782EF5E46F2EE7E15E2E6CE3462EED
:1003700020E4322E83E1282E66E5F601E40FF51F16
:100380008081882309F04EC2313011F0842F02C0E1
:10039000842F8C5EF501E80FF11D8081882309F41C
:1003A00041C2813031F4E92FF0E0EC5FFE4F8EE185
:1003B00058C1823031F4E92FF0E0EC5FFE4F82E269
:1003C00050C1833031F4E92FF0E0EC5FFE4F82E55D
:1003D00048C1843031F4E92FF0E0EC5FFE4F81E555
:1003E00040C1853031F4E92FF0E0EC5FFE4F80E54D
:1003F00038C1863031F4E92FF0E0EC5FFE4F8FE436
:1004000030C1873031F4E92FF0E0EC5FFE4F80EE31
:1004100028C1883031F4E92FF0E0EC5FFE4F82EE26
:1004200020C1893031F4E92FF0E0EC5FFE4F8CE21F
:1004300018C18A3031F4E92FF0E0EC5FFE4F81EE15
:1004400010C18B3031F4E92FF0E0EC5FFE4F8DE10D
:1004500008C18C3031F4E92FF0E0EC5FFE4F8BE106
:1004600000C18D3031F4E92FF0E0EC5FFE4F86E003
:10047000F8C08E3009F4E8C08F3031F4E92FF0E095
:10048000EC5FFE4F8FE1EDC0803131F4E92FF0E0F9
:10049000EC5FFE4F83E2E5C0813131F4E92FF0E0FB
:1004A000EC5FFE4F85E1DDC0823131F4E92FF0E0F1
:1004B000EC5FFE4F89E0D5C0833131F4E92FF0E0E5
:1004C000EC5FFE4F87E0CDC0843131F4E92FF0E0DE
:1004D000EC5FFE4F8AE0C5C0853131F4E92FF0E0D2
:1004E000EC5FFE4F84E0BDC0863109F42EC1873138
:1004F00031F4E92FF0E0EC5FFE4F84E1B2C08831C7
:1005000031F4E92FF0E0EC5FFE4F8AE1AAC08931B7
:1005100031F4E92FF0E0EC5FFE4F8CE0A2C08A31AD
:1005200031F4E92FF0E0EC5FFE4F8EE09AC08B31A2
:1005300031F4E92FF0E0EC5FFE4F8DE092C08C319A
:1005400031F4E92FF0E0EC5FFE4F8FE08AC08D318F
:1005500031F4E92FF0E0EC5FFE4F80E282C08E3193
:1005600031F4E92FF0E0EC5FFE4F84E27AC08F3186
:1005700031F4E92FF0E0EC5FFE4F8BE472C0803283
:1005800031F4E92FF0E0EC5FFE4F8EE46AC0813277
:1005900031F4E92FF0E0EC5FFE4F8AE462C0823272
:1005A00031F4E92FF0E0EC5FFE4F8DE45AC0833266
:1005B00031F4E92FF0E0EC5FFE4F84EE52C084325C
:1005C00031F4E92FF0E0EC5FFE4F85EE4AC0853252
:1005D00009F422C1863231F4E92FF0E0EC5FFE4FDE
:1005E00081E33FC0873231F4E92FF0E0EC5FFE4F4A
:1005F00087E337C0883231F4E92FF0E0EC5FFE4F3B
:1006000086E32FC0893231F4E92FF0E0EC5FFE4F32
:1006100081E227C08A3231F4E92FF0E0EC5FFE4F2F
:1006200085E21FC08B3231F4E92FF0E0EC5FFE4F22
:100630008CE117C08C3231F4E92FF0E0EC5FFE4F13
:1006400081E10FC08D3231F4E92FF0E0EC5FFE4F15
:1006500089E107C08E3239F4E92FF0E0EC5FFE4FFC
:1006600088E18083DEC08F3231F4E92FF0E0EC5F67
:10067000FE4F82E6F6CF803391F0813331F4E92FDB
:10068000F0E0EC5FFE4F88E5ECCF823331F4E92FE8
:10069000F0E0EC5FFE4F87E5E4CF833331F4E92FE0
:1006A000F0E0EC5FFE4F6083BCC0843331F4E92F8F
:1006B000F0E0EC5FFE4F85E5D4CF853331F4E92FD0
:1006C000F0E0EC5FFE4F89E2CCCF863331F4E92FC6
:1006D000F0E0EC5FFE4F8BE2C4CF873331F4E92FBB
:1006E000F0E0EC5FFE4F20829CC0883331F4E92FAC
:1006F000F0E0EC5FFE4F308294C0893331F4E92F93
:10070000F0E0EC5FFE4F40828CC08A3331F4E92F79
:10071000F0E0EC5FFE4F508284C08B3309F46CC074
:100720008C3309F471C08D3331F4E92FF0E0EC5FC4
:10073000FE4F608276C08E3331F4E92FF0E0EC5F3B
:10074000FE4F70826EC08F3329F4E92FF0E0EC5F2A
:10075000FE4F87CF803431F4E92FF0E0EC5FFE4F9D
:10076000B0835FC0813431F4E92FF0E0EC5FFE4FDD
:10077000A08357C0823431F4E92FF0E0EC5FFE4FE4
:1007800070834FC0833431F4E92FF0E0EC5FFE4F0B
:100790008DE367CF843431F4E92FF0E0EC5FFE4F56
:1007A00083E45FCF853431F4E92FF0E0EC5FFE4F56
:1007B00089E457CF863431F4E92FF0E0EC5FFE4F47
:1007C0008AE24FCF873431F4E92FF0E0EC5FFE4F3F
:1007D0008BE347CF883431F4E92FF0E0EC5FFE4F34
:1007E00086E23FCF893431F4E92FF0E0EC5FFE4F31
:1007F00087E237CF8A3431F4E92FF0E0EC5FFE4F27
:1008000080820FC08B3431F4E92FF0E0EC5FFE4FB3
:10081000908207C08C3431F4E92FF0E0EC5FFE4F9A
:10082000E0829F5F4F5F5F4F4431510509F0A5CDD6
:1008300006C0E92FF0E0EC5FFE4F10829F5F9E3113
:10084000C0F39093020120D080E49FE10197F1F77B
:10085000902F2ACD01E010E076CD80EA8093D80079
:1008600086E089BD09B400FEFDCF80E88093D80002
:100870001092E000109223018CE08093E2007894C3
:10088000089580912301089580912301882391F197
:100890002FB7F89483E08093E9009091E4009E5C88
:1008A00033E08091E80085FD0EC02FBF80912301C9
:1008B000882301F18091E4008917E1F02FB7F894C3
:1008C0003093E900EECF809103018093F100109204
:1008D000F100E4E0F1E081918093F10081E0E23207
:1008E000F807C9F78AE38093E800109224012FBF2C
:1008F00080E008958FEF08951F920F920FB60F9228
:1009000011242F938F939F93EF93FF938091E10096
:100910001092E100982F83FF0FC01092E90081E050
:100920008093EB001092EC0082E28093ED0088E06F
:100930008093F0001092230192FF34C08091230134
:10094000882381F120910001222361F1809125010A
:100950008F5F8093250190E083709070892B11F553
:1009600083E08093E9008091E80085FF1BC08091BF
:1009700024018F5F809324018217A1F41092240137
:10098000809103018093F1001092F100E4E0F1E026
:1009900081918093F10081E0E232F807C9F78AE3A0
:1009A0008093E800FF91EF919F918F912F910F908D
:1009B0000FBE0F901F9018951F920F920FB60F92B7
:1009C00011240F931F932F933F934F935F936F9334
:1009D0007F938F939F93AF93BF93EF93FF93109267
:1009E000E9008091E80083FF4EC14091F100309111
:1009F000F1008091F100682F70E02091F100922FBA
:100A000080E0682B792B8091F100A82FB0E0209135
:100A1000F100922F80E0A82BB92B1091F1000091EA
:100A2000F10082EF8093E800363009F05AC02BE7DE
:100A300030E0A90145505040F901379785919491D4
:100A40008617970701F5FA01859194918A179B07FC
:100A5000D1F49A012E5F3F4FF901659174912E5F99
:100A60003F4FF9014491212F30E0902F80E0282B57
:100A7000392B2F3F310519F010F02FEF30E02417FC
:100A800058F4422F09C0295F3F4F495F5F4FF0E0A4
:100A90002C3A3F0789F6F7C05EEF8091E800282FD7
:100AA00030E0C90185709070892BB9F322FDEEC04A
:100AB000342F413208F030E2232FCB0106C0FC0175
:100AC0000196E491E093F10021502223C1F7630FD6
:100AD000711D431B5093E8004423F9F63032E9F2CC
:100AE000D5C0353061F48EEF8093E8008091E80046
:100AF00080FFFCCF862F80688093E300C7C0393029
:100B000031F5442309F071C0609323018EEF809387
:100B1000E80085EA90E021E02093E900FC010196DD
:100B2000E491E093EB00EE2369F0AC014F5F5F4F7F
:100B3000FC0184918093EC00CA010196FA01349182
:100B40003093ED002F5F253039F78EE149C0383002
:100B500051F4403809F049C08091E80080FFFCCF93
:100B6000809123016EC03323D1F48091E80080FF8F
:100B7000FCCF423811F080E00DC0A093E9008091D5
:100B8000EB0090E025E0969587952A95E1F7817036
:100B90001092E9008093F1001092F10070C03130A2
:100BA00011F0333011F5423001F561157105E9F4AA
:100BB0002A2F2F77822F81508430B8F48EEF8093C4
:100BC000E8002093E900333009F45DC089E18093A7
:100BD000EB0081E090E002C0880F991F2A95E2F7B0
:100BE0008093EA001092EA0051C0AB2B09F04BC091
:100BF000413A51F53130A1F48091E80080FFFCCFFB
:100C0000809103018093F1001092F100E4E0F1E0A3
:100C100081918093F10081E0E232F807C9F72FC09B
:100C2000323039F48091E80080FFFCCF80910001E0
:100C300008C0333041F58091E80080FFFCCF8091FF
:100C400001018093F1001BC04132E9F4393061F4B5
:100C50008091E80082FFFCCF8091F1008093220117
:100C60008BEF8093E8000BC03A3029F470930001B9
:100C70001092240104C03B3031F4609301018EEFE7
:100C80008093E80003C081E28093EB00FF91EF9135
:100C9000BF91AF919F918F917F916F915F914F9194
:100CA0003F912F911F910F910F900FBE0F901F90AA
:100CB0001895F999FECF92BD81BDF89A992780B514
:060CC0000895F894FFCF37
:020CC6007D01AE
:00000001FF
