:10000000B3C00000CCC00000CAC00000C8C00000DF
:10001000C6C00000C4C00000C2C00000C0C00000D4
:10002000BEC00000BCC00000BAC00000E7C20000B3
:1000300045C30000B4C00000B2C00000B0C0000062
:10004000AEC00000ACC00000AAC00000A8C0000004
:10005000A6C00000A4C00000A2C00000A0C0000014
:100060009EC000009CC000009AC0000098C0000024
:1000700096C0000000010000AB001200020000BDAD
:10008000002200220000DF003F00210000CF000915
:10009000000300001E0104010309042201180203E9
:1000A00009043C012A000001C126001201000200DF
:1000B000000020C0167E0400010102000109022296
:1000C00000010100C0320904000001030001000921
:1000D0002111010001223F000705830320000105D3
:1000E000010906A101050719E029E7150025017599
:1000F00001950881027508950181030508190129F8
:100100000575019505910275039501910305071980
:100110000029FF150025FF7508951E8100C0040306
:100120000904180344006500670065006E00610063
:10013000740072006F006E00730000002A03550007
:100140005300420020004B006500790062006F0000
:10015000610072006400200045006E0063006F00C3
:10016000640065007200000011241FBECFEFD2E0D2
:10017000DEBFCDBF11E0A0E0B1E0EAECF9E002C0E3
:1001800005900D92A230B107D9F711E0A2E0B1E0DD
:1001900001C01D92AD33B107E1F741D014C430CF97
:1001A00082E2809327018EE1809328018FE480937F
:1001B000290180E580932A0182E580932B0181E566
:1001C00080932C0180EE80932D0184EE80932E018C
:1001D0008CE280932F0181EE809330018DE180933A
:1001E000310185EE8093320188E38093330184E10D
:1001F0008093340188E28093350188E4809336014E
:1002000084E08093370184E3809338018BE280930C
:10021000390189E280933A010895C2CF0895EF929F
:10022000FF920F931F93CF93DF9320E820936100F9
:100230001092610014B817B810E61AB98FEF85B99B
:1002400088B98BB980E090E00FB6F89420936100F4
:10025000809361000FBE84B7877F84BF88E10FB6AB
:10026000F89480936000109260000FBE81E090E0EF
:10027000A2D380933C01D1DF72D104B1B7B1AAB14E
:1002800075B168B15BB11AB940E020E931E05D9821
:1002900088EE93E0F9013197F1F70197D9F75E986D
:1002A00088EE93E0F9013197F1F70197D9F75D9A5C
:1002B00088EE93E0F9013197F1F70197D9F75E9A4B
:1002C00088EE93E0F9013197F1F70197D9F74F5F85
:1002D0004430E9F604B9B7B9AAB975B968B95BB9D8
:1002E00052D18823E9F38FEF9FEF2FEFEE24E394B1
:1002F000C0E4DFE103B116B1F9B0081729F419170A
:1003000019F4F21609F426C110920201312F14FDDE
:1003100006C080913A0180930501E092020135FD0B
:100320000CC080910201E82FF0E0EB5FFE4F90914E
:10033000390190838F5F8093020136FD0CC080915C
:100340000201E82FF0E0EB5FFE4F909138019083BF
:100350008F5F8093020117FD0CC080910201E82F8E
:10036000F0E0EB5FFE4F9091370190838F5F8093B9
:10037000020107FD0CC080910201E82FF0E0EB5F65
:10038000FE4F9091360190838F5F80930201202F62
:1003900006FD0CC080910201E82FF0E0EB5FFE4FFC
:1003A0009091350190838F5F8093020125FD0CC0F1
:1003B00080910201E82FF0E0EB5FFE4F9091340155
:1003C00090838F5F8093020124FD0CC08091020115
:1003D000E82FF0E0EB5FFE4F9091330190838F5F49
:1003E0008093020123FD0CC080910201E82FF0E010
:1003F000EB5FFE4F9091320190838F5F80930201FB
:1004000022FD0CC080910201E82FF0E0EB5FFE4F6F
:100410009091310190838F5F8093020121FD0CC088
:1004200080910201E82FF0E0EB5FFE4F90913001E8
:1004300090838F5F8093020120FD0CC080910201A8
:10044000E82FF0E0EB5FFE4F90912F0190838F5FDC
:10045000809302012F2DF6FC0CC080910201E82F41
:10046000F0E0EB5FFE4F90912E0190838F5F8093C1
:10047000020125FD0CC080910201E82FF0E0EB5F46
:10048000FE4F90912D0190838F5F8093020124FD98
:100490000CC080910201E82FF0E0EB5FFE4F9091DD
:1004A0002C0190838F5F8093020123FD0CC080910B
:1004B0000201E82FF0E0EB5FFE4F90912B0190835B
:1004C0008F5F8093020122FD0CC080910201E82F12
:1004D000F0E0EB5FFE4F90912A0190838F5F809355
:1004E000020121FD0CC080910201E82FF0E0EB5FDA
:1004F000FE4F9091290190838F5F8093020120FD30
:100500000CC080910201E82FF0E0EB5FFE4F90916C
:10051000280190838F5F8093020132FD0CC080918F
:100520000201E82FF0E0EB5FFE4F909127019083EE
:100530008F5F809302018091020106C0E82FF0E0F6
:10054000EB5FFE4F10828F5F8E31C0F3809302010C
:100550001DD02F2DCE010197F1F7C801CBCE80EA37
:100560008093D80086E089BD09B400FEFDCF80E805
:100570008093D8001092E000109224018CE08093C8
:10058000E2007894089580912401089580912401D7
:10059000882391F12FB7F89483E08093E90090913C
:1005A000E4009E5C33E08091E80085FD0EC02FBF23
:1005B00080912401882301F18091E4008917E1F002
:1005C0002FB7F8943093E900EECF80910401809327
:1005D000F1001092F100E5E0F1E081918093F100EB
:1005E00081E0E332F807C9F78AE38093E8001092CC
:1005F00025012FBF80E008958FEF08951F920F927D
:100600000FB60F9211242F938F939F93EF93FF9325
:100610008091E1001092E100982F83FF0FC01092AB
:10062000E90081E08093EB001092EC0082E280937D
:10063000ED0088E08093F0001092240192FF34C016
:1006400080912401882381F120910001222361F10E
:10065000809126018F5F8093260190E083709070D7
:10066000892B11F583E08093E9008091E80085FFF4
:100670001BC0809125018F5F809325018217A1F413
:1006800010922501809104018093F1001092F100F5
:10069000E5E0F1E081918093F10081E0E332F80739
:1006A000C9F78AE38093E800FF91EF919F918F91C2
:1006B0002F910F900FBE0F901F9018951F920F92C1
:1006C0000FB60F9211240F931F932F933F934F93C5
:1006D0005F936F937F938F939F93AF93BF93EF93AA
:1006E000FF931092E9008091E80083FF4EC1409192
:1006F000F1003091F1008091F100682F70E02091BD
:10070000F100922F80E0682B792B8091F100A82FC7
:10071000B0E02091F100922F80E0A82BB92B10912E
:10072000F1000091F10082EF8093E800363009F08B
:100730005AC02BE730E0A90145505040F9013797E6
:10074000859194918617970701F5FA018591949107
:100750008A179B07D1F49A012E5F3F4FF9016591EB
:1007600074912E5F3F4FF9014491212F30E0902F7B
:1007700080E0282B392B2F3F310519F010F02FEF97
:1007800030E0241758F4422F09C0295F3F4F495FDA
:100790005F4FF0E02C3A3F0789F6F7C05EEF80919B
:1007A000E800282F30E0C90185709070892BB9F3DB
:1007B00022FDEEC0342F413208F030E2232FCB016E
:1007C00006C0FC010196E491E093F1002150222340
:1007D000C1F7630F711D431B5093E8004423F9F6E2
:1007E0003032E9F2D5C0353061F48EEF8093E80005
:1007F0008091E80080FFFCCF862F80688093E30023
:10080000C7C0393031F5442309F071C06093240129
:100810008EEF8093E80085EA90E021E02093E900E4
:10082000FC010196E491E093EB00EE2369F0AC014A
:100830004F5F5F4FFC0184918093EC00CA010196E9
:10084000FA0134913093ED002F5F253039F78EE1B6
:1008500049C0383051F4403809F049C08091E8006F
:1008600080FFFCCF809124016EC03323D1F48091AE
:10087000E80080FFFCCF423811F080E00DC0A0936B
:10088000E9008091EB0090E025E0969587952A9508
:10089000E1F781701092E9008093F1001092F1006D
:1008A00070C0313011F0333011F5423001F561156F
:1008B0007105E9F42A2F2F77822F81508430B8F404
:1008C0008EEF8093E8002093E900333009F45DC097
:1008D00089E18093EB0081E090E002C0880F991FCE
:1008E0002A95E2F78093EA001092EA0051C0AB2B00
:1008F00009F04BC0413A51F53130A1F48091E80044
:1009000080FFFCCF809104018093F1001092F100F0
:10091000E5E0F1E081918093F10081E0E332F807B6
:10092000C9F72FC0323039F48091E80080FFFCCF46
:100930008091000108C0333041F58091E80080FFCC
:10094000FCCF809101018093F1001BC04132E9F49A
:10095000393061F48091E80082FFFCCF8091F10092
:10096000809323018BEF8093E8000BC03A3029F489
:10097000709300011092250104C03B3031F4609364
:1009800001018EEF8093E80003C081E28093EB00C9
:10099000FF91EF91BF91AF919F918F917F916F9157
:1009A0005F914F913F912F911F910F910F900FBE2B
:1009B0000F901F901895F999FECF92BD81BDF89ABE
:0A09C000992780B50895F894FFCF41
:0209CA007D01AD
:00000001FF
