:1000000039C0000062C0000060C000005EC0000097
:100010005CC000005AC0000058C0000056C000007C
:1000200054C0000052C0000050C00000CEC000000C
:100030004CC000004AC0000048C0000046C000009C
:1000400044C0000042C0000040C000003EC00000AC
:100050003CC000003AC0000038C0000036C00000BC
:1000600034C0000032C0000030C000002EC00000CC
:100070002CC0000011241FBECFEFD2E0DEBFCDBFE9
:1000800004B603FE18C080910D0190910E01A0915D
:100090000F01B09110018A5C9C4AA244BC4D59F4F6
:1000A00010920D0110920E0110920F01109210018A
:1000B000E0E0F8E1099511E0A0E0B1E001C01D9297
:1000C000AD30B107E1F725D023C19ACF63D0F894C2
:1000D00020E040E05AEFCA010197F1F72F5F203886
:1000E000D1F78AEC9CEAA2E4BCED80930D019093D9
:1000F0000E01A0930F01B09310012CE088E190E075
:100100000FB6F894A895809360000FBE209360000E
:10011000FFCFE1E6F0E080E880831082D7DF80E067
:1001200090E00895382F282F2EC0822F8F70809353
:10013000E900231721F4762F942F50E006C0709128
:10014000EC009091ED005091F00091FF1BC0809168
:10015000EB008E7F8093EB008091ED008D7F80938C
:10016000ED008091EB0081608093EB007093EC00D8
:100170009093ED005093F0008091EE0087FD02C057
:1001800080E008952F5F253080F23F703093E900C2
:1001900081E0089514D016D0E0EEF0E08081816017
:1001A0008083E8EDF0E080818F77808319BCE3E6FF
:1001B000F0E08081816080831092030108951092A5
:1001C000E20008951092E10008951F920F920FB679
:1001D0000F9211242F933F934F935F936F937F93CD
:1001E0008F939F93AF93BF93EF93FF938091E10021
:1001F00082FF0AC08091E20082FF06C08091E10088
:100200008B7F8093E10083D08091E10080FF17C055
:100210008091E20080FF13C08091E2008E7F809386
:10022000E2008091E20080618093E2008091D8003A
:1002300080628093D80019BC1092040168D080912C
:10024000E10084FF2DC08091E20084FF29C084E09A
:1002500089BD86E089BD09B400FEFDCF8091D8003C
:100260008F7D8093D8008091E1008F7E8093E100A4
:100270008091E2008F7E8093E2008091E2008160B5
:100280008093E20080910001882331F48091E300A3
:1002900087FD02C081E001C084E08093040137D073
:1002A0008091E10083FF22C08091E20083FF1EC0A5
:1002B0008091E100877F8093E10082E080930401D8
:1002C000109200018091E1008E7F8093E100809187
:1002D000E2008E7F8093E2008091E2008061809353
:1002E000E20080E060E042E31DDF11D0FF91EF917A
:1002F000BF91AF919F918F917F916F915F914F913E
:100300003F912F910F900FBE0F901F901895089559
:04031000F894FFCF8F
:00000001FF
